{
  "contractName": "Brand",
  "abi": [
    {
      "inputs": [
        {
          "internalType": "string",
          "name": "_name",
          "type": "string"
        },
        {
          "internalType": "string",
          "name": "_symbol",
          "type": "string"
        }
      ],
      "stateMutability": "nonpayable",
      "type": "constructor"
    },
    {
      "anonymous": false,
      "inputs": [
        {
          "indexed": true,
          "internalType": "address",
          "name": "owner",
          "type": "address"
        },
        {
          "indexed": true,
          "internalType": "address",
          "name": "approved",
          "type": "address"
        },
        {
          "indexed": true,
          "internalType": "uint256",
          "name": "tokenId",
          "type": "uint256"
        }
      ],
      "name": "Approval",
      "type": "event"
    },
    {
      "anonymous": false,
      "inputs": [
        {
          "indexed": true,
          "internalType": "address",
          "name": "owner",
          "type": "address"
        },
        {
          "indexed": true,
          "internalType": "address",
          "name": "operator",
          "type": "address"
        },
        {
          "indexed": false,
          "internalType": "bool",
          "name": "approved",
          "type": "bool"
        }
      ],
      "name": "ApprovalForAll",
      "type": "event"
    },
    {
      "anonymous": false,
      "inputs": [
        {
          "indexed": true,
          "internalType": "address",
          "name": "previousOwner",
          "type": "address"
        },
        {
          "indexed": true,
          "internalType": "address",
          "name": "newOwner",
          "type": "address"
        }
      ],
      "name": "OwnershipTransferred",
      "type": "event"
    },
    {
      "anonymous": false,
      "inputs": [
        {
          "indexed": false,
          "internalType": "uint256",
          "name": "id",
          "type": "uint256"
        },
        {
          "indexed": true,
          "internalType": "address",
          "name": "owner",
          "type": "address"
        },
        {
          "indexed": false,
          "internalType": "uint256",
          "name": "cost",
          "type": "uint256"
        },
        {
          "indexed": false,
          "internalType": "string",
          "name": "metadataURI",
          "type": "string"
        },
        {
          "indexed": false,
          "internalType": "uint256",
          "name": "timestamp",
          "type": "uint256"
        }
      ],
      "name": "Sale",
      "type": "event"
    },
    {
      "anonymous": false,
      "inputs": [
        {
          "indexed": true,
          "internalType": "address",
          "name": "from",
          "type": "address"
        },
        {
          "indexed": true,
          "internalType": "address",
          "name": "to",
          "type": "address"
        },
        {
          "indexed": true,
          "internalType": "uint256",
          "name": "tokenId",
          "type": "uint256"
        }
      ],
      "name": "Transfer",
      "type": "event"
    },
    {
      "inputs": [
        {
          "internalType": "address",
          "name": "to",
          "type": "address"
        },
        {
          "internalType": "uint256",
          "name": "tokenId",
          "type": "uint256"
        }
      ],
      "name": "approve",
      "outputs": [],
      "stateMutability": "nonpayable",
      "type": "function"
    },
    {
      "inputs": [
        {
          "internalType": "address",
          "name": "owner",
          "type": "address"
        }
      ],
      "name": "balanceOf",
      "outputs": [
        {
          "internalType": "uint256",
          "name": "",
          "type": "uint256"
        }
      ],
      "stateMutability": "view",
      "type": "function",
      "constant": true
    },
    {
      "inputs": [],
      "name": "cost",
      "outputs": [
        {
          "internalType": "uint256",
          "name": "",
          "type": "uint256"
        }
      ],
      "stateMutability": "view",
      "type": "function",
      "constant": true
    },
    {
      "inputs": [
        {
          "internalType": "uint256",
          "name": "tokenId",
          "type": "uint256"
        }
      ],
      "name": "getApproved",
      "outputs": [
        {
          "internalType": "address",
          "name": "",
          "type": "address"
        }
      ],
      "stateMutability": "view",
      "type": "function",
      "constant": true
    },
    {
      "inputs": [
        {
          "internalType": "uint256",
          "name": "",
          "type": "uint256"
        }
      ],
      "name": "holderOf",
      "outputs": [
        {
          "internalType": "address",
          "name": "",
          "type": "address"
        }
      ],
      "stateMutability": "view",
      "type": "function",
      "constant": true
    },
    {
      "inputs": [
        {
          "internalType": "address",
          "name": "owner",
          "type": "address"
        },
        {
          "internalType": "address",
          "name": "operator",
          "type": "address"
        }
      ],
      "name": "isApprovedForAll",
      "outputs": [
        {
          "internalType": "bool",
          "name": "",
          "type": "bool"
        }
      ],
      "stateMutability": "view",
      "type": "function",
      "constant": true
    },
    {
      "inputs": [],
      "name": "name",
      "outputs": [
        {
          "internalType": "string",
          "name": "",
          "type": "string"
        }
      ],
      "stateMutability": "view",
      "type": "function",
      "constant": true
    },
    {
      "inputs": [],
      "name": "owner",
      "outputs": [
        {
          "internalType": "address",
          "name": "",
          "type": "address"
        }
      ],
      "stateMutability": "view",
      "type": "function",
      "constant": true
    },
    {
      "inputs": [
        {
          "internalType": "uint256",
          "name": "tokenId",
          "type": "uint256"
        }
      ],
      "name": "ownerOf",
      "outputs": [
        {
          "internalType": "address",
          "name": "",
          "type": "address"
        }
      ],
      "stateMutability": "view",
      "type": "function",
      "constant": true
    },
    {
      "inputs": [],
      "name": "renounceOwnership",
      "outputs": [],
      "stateMutability": "nonpayable",
      "type": "function"
    },
    {
      "inputs": [
        {
          "internalType": "address",
          "name": "from",
          "type": "address"
        },
        {
          "internalType": "address",
          "name": "to",
          "type": "address"
        },
        {
          "internalType": "uint256",
          "name": "tokenId",
          "type": "uint256"
        }
      ],
      "name": "safeTransferFrom",
      "outputs": [],
      "stateMutability": "nonpayable",
      "type": "function"
    },
    {
      "inputs": [
        {
          "internalType": "address",
          "name": "from",
          "type": "address"
        },
        {
          "internalType": "address",
          "name": "to",
          "type": "address"
        },
        {
          "internalType": "uint256",
          "name": "tokenId",
          "type": "uint256"
        },
        {
          "internalType": "bytes",
          "name": "data",
          "type": "bytes"
        }
      ],
      "name": "safeTransferFrom",
      "outputs": [],
      "stateMutability": "nonpayable",
      "type": "function"
    },
    {
      "inputs": [
        {
          "internalType": "address",
          "name": "operator",
          "type": "address"
        },
        {
          "internalType": "bool",
          "name": "approved",
          "type": "bool"
        }
      ],
      "name": "setApprovalForAll",
      "outputs": [],
      "stateMutability": "nonpayable",
      "type": "function"
    },
    {
      "inputs": [],
      "name": "supply",
      "outputs": [
        {
          "internalType": "uint256",
          "name": "",
          "type": "uint256"
        }
      ],
      "stateMutability": "view",
      "type": "function",
      "constant": true
    },
    {
      "inputs": [
        {
          "internalType": "bytes4",
          "name": "interfaceId",
          "type": "bytes4"
        }
      ],
      "name": "supportsInterface",
      "outputs": [
        {
          "internalType": "bool",
          "name": "",
          "type": "bool"
        }
      ],
      "stateMutability": "view",
      "type": "function",
      "constant": true
    },
    {
      "inputs": [],
      "name": "symbol",
      "outputs": [
        {
          "internalType": "string",
          "name": "",
          "type": "string"
        }
      ],
      "stateMutability": "view",
      "type": "function",
      "constant": true
    },
    {
      "inputs": [
        {
          "internalType": "uint256",
          "name": "index",
          "type": "uint256"
        }
      ],
      "name": "tokenByIndex",
      "outputs": [
        {
          "internalType": "uint256",
          "name": "",
          "type": "uint256"
        }
      ],
      "stateMutability": "view",
      "type": "function",
      "constant": true
    },
    {
      "inputs": [
        {
          "internalType": "address",
          "name": "owner",
          "type": "address"
        },
        {
          "internalType": "uint256",
          "name": "index",
          "type": "uint256"
        }
      ],
      "name": "tokenOfOwnerByIndex",
      "outputs": [
        {
          "internalType": "uint256",
          "name": "",
          "type": "uint256"
        }
      ],
      "stateMutability": "view",
      "type": "function",
      "constant": true
    },
    {
      "inputs": [
        {
          "internalType": "uint256",
          "name": "tokenId",
          "type": "uint256"
        }
      ],
      "name": "tokenURI",
      "outputs": [
        {
          "internalType": "string",
          "name": "",
          "type": "string"
        }
      ],
      "stateMutability": "view",
      "type": "function",
      "constant": true
    },
    {
      "inputs": [],
      "name": "totalSupply",
      "outputs": [
        {
          "internalType": "uint256",
          "name": "",
          "type": "uint256"
        }
      ],
      "stateMutability": "view",
      "type": "function",
      "constant": true
    },
    {
      "inputs": [],
      "name": "totalTxn",
      "outputs": [
        {
          "internalType": "uint256",
          "name": "",
          "type": "uint256"
        }
      ],
      "stateMutability": "view",
      "type": "function",
      "constant": true
    },
    {
      "inputs": [
        {
          "internalType": "address",
          "name": "from",
          "type": "address"
        },
        {
          "internalType": "address",
          "name": "to",
          "type": "address"
        },
        {
          "internalType": "uint256",
          "name": "tokenId",
          "type": "uint256"
        }
      ],
      "name": "transferFrom",
      "outputs": [],
      "stateMutability": "nonpayable",
      "type": "function"
    },
    {
      "inputs": [
        {
          "internalType": "address",
          "name": "newOwner",
          "type": "address"
        }
      ],
      "name": "transferOwnership",
      "outputs": [],
      "stateMutability": "nonpayable",
      "type": "function"
    },
    {
      "inputs": [
        {
          "internalType": "string",
          "name": "title",
          "type": "string"
        },
        {
          "internalType": "string",
          "name": "description",
          "type": "string"
        },
        {
          "internalType": "string",
          "name": "metadataURI",
          "type": "string"
        },
        {
          "internalType": "uint256",
          "name": "salesPrice",
          "type": "uint256"
        }
      ],
      "name": "mintProduct",
      "outputs": [],
      "stateMutability": "payable",
      "type": "function",
      "payable": true
    },
    {
      "inputs": [
        {
          "internalType": "uint256",
          "name": "id",
          "type": "uint256"
        }
      ],
      "name": "sellProduct",
      "outputs": [],
      "stateMutability": "payable",
      "type": "function",
      "payable": true
    },
    {
      "inputs": [
        {
          "internalType": "uint256",
          "name": "id",
          "type": "uint256"
        },
        {
          "internalType": "uint256",
          "name": "newPrice",
          "type": "uint256"
        }
      ],
      "name": "changePrice",
      "outputs": [
        {
          "internalType": "bool",
          "name": "",
          "type": "bool"
        }
      ],
      "stateMutability": "nonpayable",
      "type": "function"
    },
    {
      "inputs": [],
      "name": "getAllNFTs",
      "outputs": [
        {
          "components": [
            {
              "internalType": "uint256",
              "name": "id",
              "type": "uint256"
            },
            {
              "internalType": "address",
              "name": "owner",
              "type": "address"
            },
            {
              "internalType": "uint256",
              "name": "cost",
              "type": "uint256"
            },
            {
              "internalType": "string",
              "name": "title",
              "type": "string"
            },
            {
              "internalType": "string",
              "name": "description",
              "type": "string"
            },
            {
              "internalType": "string",
              "name": "metadataURI",
              "type": "string"
            },
            {
              "internalType": "uint256",
              "name": "timestamp",
              "type": "uint256"
            }
          ],
          "internalType": "struct Brand.TransactionStruct[]",
          "name": "",
          "type": "tuple[]"
        }
      ],
      "stateMutability": "view",
      "type": "function",
      "constant": true
    },
    {
      "inputs": [
        {
          "internalType": "uint256",
          "name": "id",
          "type": "uint256"
        }
      ],
      "name": "getNFT",
      "outputs": [
        {
          "components": [
            {
              "internalType": "uint256",
              "name": "id",
              "type": "uint256"
            },
            {
              "internalType": "address",
              "name": "owner",
              "type": "address"
            },
            {
              "internalType": "uint256",
              "name": "cost",
              "type": "uint256"
            },
            {
              "internalType": "string",
              "name": "title",
              "type": "string"
            },
            {
              "internalType": "string",
              "name": "description",
              "type": "string"
            },
            {
              "internalType": "string",
              "name": "metadataURI",
              "type": "string"
            },
            {
              "internalType": "uint256",
              "name": "timestamp",
              "type": "uint256"
            }
          ],
          "internalType": "struct Brand.TransactionStruct",
          "name": "",
          "type": "tuple"
        }
      ],
      "stateMutability": "view",
      "type": "function",
      "constant": true
    },
    {
      "inputs": [],
      "name": "getAllTransactions",
      "outputs": [
        {
          "components": [
            {
              "internalType": "uint256",
              "name": "id",
              "type": "uint256"
            },
            {
              "internalType": "address",
              "name": "owner",
              "type": "address"
            },
            {
              "internalType": "uint256",
              "name": "cost",
              "type": "uint256"
            },
            {
              "internalType": "string",
              "name": "title",
              "type": "string"
            },
            {
              "internalType": "string",
              "name": "description",
              "type": "string"
            },
            {
              "internalType": "string",
              "name": "metadataURI",
              "type": "string"
            },
            {
              "internalType": "uint256",
              "name": "timestamp",
              "type": "uint256"
            }
          ],
          "internalType": "struct Brand.TransactionStruct[]",
          "name": "",
          "type": "tuple[]"
        }
      ],
      "stateMutability": "view",
      "type": "function",
      "constant": true
    }
  ],
  "bytecode": "0x60806040526000600d556000600e55655af3107a4000600f553480156200002557600080fd5b50604051620058d2380380620058d283398181016040528101906200004b9190620002fc565b818181600090816200005e9190620005cc565b508060019081620000709190620005cc565b50505062000093620000876200009b60201b60201c565b620000a360201b60201c565b5050620006b3565b600033905090565b6000600a60009054906101000a900473ffffffffffffffffffffffffffffffffffffffff16905081600a60006101000a81548173ffffffffffffffffffffffffffffffffffffffff021916908373ffffffffffffffffffffffffffffffffffffffff1602179055508173ffffffffffffffffffffffffffffffffffffffff168173ffffffffffffffffffffffffffffffffffffffff167f8be0079c531659141344cd1fd0a4f28419497f9722a3daafe3b4186f6b6457e060405160405180910390a35050565b6000604051905090565b600080fd5b600080fd5b600080fd5b600080fd5b6000601f19601f8301169050919050565b7f4e487b7100000000000000000000000000000000000000000000000000000000600052604160045260246000fd5b620001d28262000187565b810181811067ffffffffffffffff82111715620001f457620001f362000198565b5b80604052505050565b60006200020962000169565b9050620002178282620001c7565b919050565b600067ffffffffffffffff8211156200023a576200023962000198565b5b620002458262000187565b9050602081019050919050565b60005b838110156200027257808201518184015260208101905062000255565b60008484015250505050565b6000620002956200028f846200021c565b620001fd565b905082815260208101848484011115620002b457620002b362000182565b5b620002c184828562000252565b509392505050565b600082601f830112620002e157620002e06200017d565b5b8151620002f38482602086016200027e565b91505092915050565b6000806040838503121562000316576200031562000173565b5b600083015167ffffffffffffffff81111562000337576200033662000178565b5b6200034585828601620002c9565b925050602083015167ffffffffffffffff81111562000369576200036862000178565b5b6200037785828601620002c9565b9150509250929050565b600081519050919050565b7f4e487b7100000000000000000000000000000000000000000000000000000000600052602260045260246000fd5b60006002820490506001821680620003d457607f821691505b602082108103620003ea57620003e96200038c565b5b50919050565b60008190508160005260206000209050919050565b60006020601f8301049050919050565b600082821b905092915050565b600060088302620004547fffffffffffffffffffffffffffffffffffffffffffffffffffffffffffffffff8262000415565b62000460868362000415565b95508019841693508086168417925050509392505050565b6000819050919050565b6000819050919050565b6000620004ad620004a7620004a18462000478565b62000482565b62000478565b9050919050565b6000819050919050565b620004c9836200048c565b620004e1620004d882620004b4565b84845462000422565b825550505050565b600090565b620004f8620004e9565b62000505818484620004be565b505050565b5b818110156200052d5762000521600082620004ee565b6001810190506200050b565b5050565b601f8211156200057c576200054681620003f0565b620005518462000405565b8101602085101562000561578190505b62000579620005708562000405565b8301826200050a565b50505b505050565b600082821c905092915050565b6000620005a16000198460080262000581565b1980831691505092915050565b6000620005bc83836200058e565b9150826002028217905092915050565b620005d78262000381565b67ffffffffffffffff811115620005f357620005f262000198565b5b620005ff8254620003bb565b6200060c82828562000531565b600060209050601f8311600181146200064457600084156200062f578287015190505b6200063b8582620005ae565b865550620006ab565b601f1984166200065486620003f0565b60005b828110156200067e5784890151825560018201915060208501945060208101905062000657565b868310156200069e57848901516200069a601f8916826200058e565b8355505b6001600288020188555050505b505050505050565b61520f80620006c36000396000f3fe6080604052600436106101c25760003560e01c80636352211e116100f7578063a6d8681811610095578063dbacc23711610064578063dbacc23714610660578063e0391b091461069d578063e985e9c5146106c8578063f2fde38b14610705576101c2565b8063a6d8681814610592578063b3de019c146105bd578063b88d4fde146105fa578063c87b56dd14610623576101c2565b806372af3f7d116100d157806372af3f7d146104f75780638da5cb5b1461051357806395d89b411461053e578063a22cb46514610569576101c2565b80636352211e1461046657806370a08231146104a3578063715018a6146104e0576101c2565b806323b872dd1161016457806342842e0e1161013e57806342842e0e146103a7578063492deb15146103d05780634f6ccce7146103ec578063576f7ea714610429576101c2565b806323b872dd1461031657806327506f531461033f5780632f745c591461036a576101c2565b8063081812fc116101a0578063081812fc1461025a578063095ea7b31461029757806313faede6146102c057806318160ddd146102eb576101c2565b806301ffc9a7146101c7578063047fc9aa1461020457806306fdde031461022f575b600080fd5b3480156101d357600080fd5b506101ee60048036038101906101e991906136dd565b61072e565b6040516101fb9190613725565b60405180910390f35b34801561021057600080fd5b506102196107a8565b6040516102269190613759565b60405180910390f35b34801561023b57600080fd5b506102446107ae565b6040516102519190613804565b60405180910390f35b34801561026657600080fd5b50610281600480360381019061027c9190613852565b610840565b60405161028e91906138c0565b60405180910390f35b3480156102a357600080fd5b506102be60048036038101906102b99190613907565b610886565b005b3480156102cc57600080fd5b506102d561099d565b6040516102e29190613759565b60405180910390f35b3480156102f757600080fd5b506103006109a3565b60405161030d9190613759565b60405180910390f35b34801561032257600080fd5b5061033d60048036038101906103389190613947565b6109b0565b005b34801561034b57600080fd5b50610354610a10565b6040516103619190613b6e565b60405180910390f35b34801561037657600080fd5b50610391600480360381019061038c9190613907565b610c99565b60405161039e9190613759565b60405180910390f35b3480156103b357600080fd5b506103ce60048036038101906103c99190613947565b610d3e565b005b6103ea60048036038101906103e59190613852565b610d5e565b005b3480156103f857600080fd5b50610413600480360381019061040e9190613852565b6112ec565b6040516104209190613759565b60405180910390f35b34801561043557600080fd5b50610450600480360381019061044b9190613852565b61135d565b60405161045d9190613c3a565b60405180910390f35b34801561047257600080fd5b5061048d60048036038101906104889190613852565b6115cf565b60405161049a91906138c0565b60405180910390f35b3480156104af57600080fd5b506104ca60048036038101906104c59190613c5c565b611655565b6040516104d79190613759565b60405180910390f35b3480156104ec57600080fd5b506104f561170c565b005b610511600480360381019061050c9190613dbe565b611720565b005b34801561051f57600080fd5b50610528611a93565b60405161053591906138c0565b60405180910390f35b34801561054a57600080fd5b50610553611abd565b6040516105609190613804565b60405180910390f35b34801561057557600080fd5b50610590600480360381019061058b9190613ea5565b611b4f565b005b34801561059e57600080fd5b506105a7611b65565b6040516105b49190613759565b60405180910390f35b3480156105c957600080fd5b506105e460048036038101906105df9190613ee5565b611b6b565b6040516105f19190613725565b60405180910390f35b34801561060657600080fd5b50610621600480360381019061061c9190613fc6565b611cae565b005b34801561062f57600080fd5b5061064a60048036038101906106459190613852565b611d10565b6040516106579190613804565b60405180910390f35b34801561066c57600080fd5b5061068760048036038101906106829190613852565b611d78565b60405161069491906138c0565b60405180910390f35b3480156106a957600080fd5b506106b2611dab565b6040516106bf9190613b6e565b60405180910390f35b3480156106d457600080fd5b506106ef60048036038101906106ea9190614049565b612034565b6040516106fc9190613725565b60405180910390f35b34801561071157600080fd5b5061072c60048036038101906107279190613c5c565b6120c8565b005b60007f780e9d63000000000000000000000000000000000000000000000000000000007bffffffffffffffffffffffffffffffffffffffffffffffffffffffff1916827bffffffffffffffffffffffffffffffffffffffffffffffffffffffff191614806107a157506107a08261214b565b5b9050919050565b600d5481565b6060600080546107bd906140b8565b80601f01602080910402602001604051908101604052809291908181526020018280546107e9906140b8565b80156108365780601f1061080b57610100808354040283529160200191610836565b820191906000526020600020905b81548152906001019060200180831161081957829003601f168201915b5050505050905090565b600061084b8261222d565b6004600083815260200190815260200160002060009054906101000a900473ffffffffffffffffffffffffffffffffffffffff169050919050565b6000610891826115cf565b90508073ffffffffffffffffffffffffffffffffffffffff168373ffffffffffffffffffffffffffffffffffffffff1603610901576040517f08c379a00000000000000000000000000000000000000000000000000000000081526004016108f89061415b565b60405180910390fd5b8073ffffffffffffffffffffffffffffffffffffffff16610920612278565b73ffffffffffffffffffffffffffffffffffffffff16148061094f575061094e81610949612278565b612034565b5b61098e576040517f08c379a0000000000000000000000000000000000000000000000000000000008152600401610985906141ed565b60405180910390fd5b6109988383612280565b505050565b600f5481565b6000600880549050905090565b6109c16109bb612278565b82612339565b610a00576040517f08c379a00000000000000000000000000000000000000000000000000000000081526004016109f79061427f565b60405180910390fd5b610a0b8383836123ce565b505050565b60606010805480602002602001604051908101604052809291908181526020016000905b82821015610c9057838290600052602060002090600702016040518060e0016040529081600082015481526020016001820160009054906101000a900473ffffffffffffffffffffffffffffffffffffffff1673ffffffffffffffffffffffffffffffffffffffff1673ffffffffffffffffffffffffffffffffffffffff16815260200160028201548152602001600382018054610ad1906140b8565b80601f0160208091040260200160405190810160405280929190818152602001828054610afd906140b8565b8015610b4a5780601f10610b1f57610100808354040283529160200191610b4a565b820191906000526020600020905b815481529060010190602001808311610b2d57829003601f168201915b50505050508152602001600482018054610b63906140b8565b80601f0160208091040260200160405190810160405280929190818152602001828054610b8f906140b8565b8015610bdc5780601f10610bb157610100808354040283529160200191610bdc565b820191906000526020600020905b815481529060010190602001808311610bbf57829003601f168201915b50505050508152602001600582018054610bf5906140b8565b80601f0160208091040260200160405190810160405280929190818152602001828054610c21906140b8565b8015610c6e5780601f10610c4357610100808354040283529160200191610c6e565b820191906000526020600020905b815481529060010190602001808311610c5157829003601f168201915b5050505050815260200160068201548152505081526020019060010190610a34565b50505050905090565b6000610ca483611655565b8210610ce5576040517f08c379a0000000000000000000000000000000000000000000000000000000008152600401610cdc90614311565b60405180910390fd5b600660008473ffffffffffffffffffffffffffffffffffffffff1673ffffffffffffffffffffffffffffffffffffffff168152602001908152602001600020600083815260200190815260200160002054905092915050565b610d5983838360405180602001604052806000815250611cae565b505050565b6011600182610d6d9190614360565b81548110610d7e57610d7d614394565b5b906000526020600020906007020160020154341015610dd2576040517f08c379a0000000000000000000000000000000000000000000000000000000008152600401610dc99061440f565b60405180910390fd5b6011600182610de19190614360565b81548110610df257610df1614394565b5b906000526020600020906007020160010160009054906101000a900473ffffffffffffffffffffffffffffffffffffffff1673ffffffffffffffffffffffffffffffffffffffff163373ffffffffffffffffffffffffffffffffffffffff1603610e91576040517f08c379a0000000000000000000000000000000000000000000000000000000008152600401610e889061447b565b60405180910390fd5b600e6000815480929190610ea49061449b565b919050555060106040518060e00160405280600e5481526020013373ffffffffffffffffffffffffffffffffffffffff1681526020013481526020016011600185610eef9190614360565b81548110610f0057610eff614394565b5b90600052602060002090600702016003018054610f1c906140b8565b80601f0160208091040260200160405190810160405280929190818152602001828054610f48906140b8565b8015610f955780601f10610f6a57610100808354040283529160200191610f95565b820191906000526020600020905b815481529060010190602001808311610f7857829003601f168201915b505050505081526020016011600185610fae9190614360565b81548110610fbf57610fbe614394565b5b90600052602060002090600702016004018054610fdb906140b8565b80601f0160208091040260200160405190810160405280929190818152602001828054611007906140b8565b80156110545780601f1061102957610100808354040283529160200191611054565b820191906000526020600020905b81548152906001019060200180831161103757829003601f168201915b50505050508152602001601160018561106d9190614360565b8154811061107e5761107d614394565b5b9060005260206000209060070201600501805461109a906140b8565b80601f01602080910402602001604051908101604052809291908181526020018280546110c6906140b8565b80156111135780601f106110e857610100808354040283529160200191611113565b820191906000526020600020905b8154815290600101906020018083116110f657829003601f168201915b505050505081526020014281525090806001815401808255809150506001900390600052602060002090600702016000909190919091506000820151816000015560208201518160010160006101000a81548173ffffffffffffffffffffffffffffffffffffffff021916908373ffffffffffffffffffffffffffffffffffffffff1602179055506040820151816002015560608201518160030190816111ba919061468f565b5060808201518160040190816111d0919061468f565b5060a08201518160050190816111e6919061468f565b5060c0820151816006015550503373ffffffffffffffffffffffffffffffffffffffff167fb9508407a6eccb191d8da3286f4173697cf95604e9ea192fe5ab7c862b5221f6600e5434601160018661123e9190614360565b8154811061124f5761124e614394565b5b90600052602060002090600702016005014260405161127194939291906147e5565b60405180910390a23360116001836112899190614360565b8154811061129a57611299614394565b5b906000526020600020906007020160010160006101000a81548173ffffffffffffffffffffffffffffffffffffffff021916908373ffffffffffffffffffffffffffffffffffffffff16021790555050565b60006112f66109a3565b8210611337576040517f08c379a000000000000000000000000000000000000000000000000000000000815260040161132e906148a3565b60405180910390fd5b6008828154811061134b5761134a614394565b5b90600052602060002001549050919050565b61136561361e565b60116001836113749190614360565b8154811061138557611384614394565b5b90600052602060002090600702016040518060e0016040529081600082015481526020016001820160009054906101000a900473ffffffffffffffffffffffffffffffffffffffff1673ffffffffffffffffffffffffffffffffffffffff1673ffffffffffffffffffffffffffffffffffffffff16815260200160028201548152602001600382018054611418906140b8565b80601f0160208091040260200160405190810160405280929190818152602001828054611444906140b8565b80156114915780601f1061146657610100808354040283529160200191611491565b820191906000526020600020905b81548152906001019060200180831161147457829003601f168201915b505050505081526020016004820180546114aa906140b8565b80601f01602080910402602001604051908101604052809291908181526020018280546114d6906140b8565b80156115235780601f106114f857610100808354040283529160200191611523565b820191906000526020600020905b81548152906001019060200180831161150657829003601f168201915b5050505050815260200160058201805461153c906140b8565b80601f0160208091040260200160405190810160405280929190818152602001828054611568906140b8565b80156115b55780601f1061158a576101008083540402835291602001916115b5565b820191906000526020600020905b81548152906001019060200180831161159857829003601f168201915b505050505081526020016006820154815250509050919050565b6000806115db836126c7565b9050600073ffffffffffffffffffffffffffffffffffffffff168173ffffffffffffffffffffffffffffffffffffffff160361164c576040517f08c379a00000000000000000000000000000000000000000000000000000000081526004016116439061490f565b60405180910390fd5b80915050919050565b60008073ffffffffffffffffffffffffffffffffffffffff168273ffffffffffffffffffffffffffffffffffffffff16036116c5576040517f08c379a00000000000000000000000000000000000000000000000000000000081526004016116bc906149a1565b60405180910390fd5b600360008373ffffffffffffffffffffffffffffffffffffffff1673ffffffffffffffffffffffffffffffffffffffff168152602001908152602001600020549050919050565b611714612704565b61171e6000612782565b565b600f5434101561172f34612848565b90611770576040517f08c379a00000000000000000000000000000000000000000000000000000000081526004016117679190613804565b60405180910390fd5b506000600b8360405161178391906149fd565b908152602001604051809103902060009054906101000a900460ff1660ff16146117e2576040517f08c379a00000000000000000000000000000000000000000000000000000000081526004016117d990614a60565b60405180910390fd5b6117ea611a93565b73ffffffffffffffffffffffffffffffffffffffff163373ffffffffffffffffffffffffffffffffffffffff1603611857576040517f08c379a000000000000000000000000000000000000000000000000000000000815260040161184e90614acc565b60405180910390fd5b600d600081548092919061186a9061449b565b919050555060116040518060e00160405280600d5481526020013373ffffffffffffffffffffffffffffffffffffffff1681526020018381526020018681526020018581526020018481526020014281525090806001815401808255809150506001900390600052602060002090600702016000909190919091506000820151816000015560208201518160010160006101000a81548173ffffffffffffffffffffffffffffffffffffffff021916908373ffffffffffffffffffffffffffffffffffffffff160217905550604082015181600201556060820151816003019081611955919061468f565b50608082015181600401908161196b919061468f565b5060a0820151816005019081611981919061468f565b5060c08201518160060155505061199f611999611a93565b34612916565b3373ffffffffffffffffffffffffffffffffffffffff167fb9508407a6eccb191d8da3286f4173697cf95604e9ea192fe5ab7c862b5221f6600d543485426040516119ed9493929190614aec565b60405180910390a2611a0133600d54612991565b6001600b83604051611a1391906149fd565b908152602001604051809103902060006101000a81548160ff021916908360ff16021790555033600c6000600d54815260200190815260200160002060006101000a81548173ffffffffffffffffffffffffffffffffffffffff021916908373ffffffffffffffffffffffffffffffffffffffff16021790555050505050565b6000600a60009054906101000a900473ffffffffffffffffffffffffffffffffffffffff16905090565b606060018054611acc906140b8565b80601f0160208091040260200160405190810160405280929190818152602001828054611af8906140b8565b8015611b455780601f10611b1a57610100808354040283529160200191611b45565b820191906000526020600020905b815481529060010190602001808311611b2857829003601f168201915b5050505050905090565b611b61611b5a612278565b83836129af565b5050565b600e5481565b6000808211611baf576040517f08c379a0000000000000000000000000000000000000000000000000000000008152600401611ba690614b84565b60405180910390fd5b6011600184611bbe9190614360565b81548110611bcf57611bce614394565b5b906000526020600020906007020160010160009054906101000a900473ffffffffffffffffffffffffffffffffffffffff1673ffffffffffffffffffffffffffffffffffffffff163373ffffffffffffffffffffffffffffffffffffffff1614611c6e576040517f08c379a0000000000000000000000000000000000000000000000000000000008152600401611c659061447b565b60405180910390fd5b816011600185611c7e9190614360565b81548110611c8f57611c8e614394565b5b9060005260206000209060070201600201819055506001905092915050565b611cbf611cb9612278565b83612339565b611cfe576040517f08c379a0000000000000000000000000000000000000000000000000000000008152600401611cf59061427f565b60405180910390fd5b611d0a84848484612b1b565b50505050565b6060611d1b8261222d565b6000611d25612b77565b90506000815111611d455760405180602001604052806000815250611d70565b80611d4f84612848565b604051602001611d60929190614ba4565b6040516020818303038152906040525b915050919050565b600c6020528060005260406000206000915054906101000a900473ffffffffffffffffffffffffffffffffffffffff1681565b60606011805480602002602001604051908101604052809291908181526020016000905b8282101561202b57838290600052602060002090600702016040518060e0016040529081600082015481526020016001820160009054906101000a900473ffffffffffffffffffffffffffffffffffffffff1673ffffffffffffffffffffffffffffffffffffffff1673ffffffffffffffffffffffffffffffffffffffff16815260200160028201548152602001600382018054611e6c906140b8565b80601f0160208091040260200160405190810160405280929190818152602001828054611e98906140b8565b8015611ee55780601f10611eba57610100808354040283529160200191611ee5565b820191906000526020600020905b815481529060010190602001808311611ec857829003601f168201915b50505050508152602001600482018054611efe906140b8565b80601f0160208091040260200160405190810160405280929190818152602001828054611f2a906140b8565b8015611f775780601f10611f4c57610100808354040283529160200191611f77565b820191906000526020600020905b815481529060010190602001808311611f5a57829003601f168201915b50505050508152602001600582018054611f90906140b8565b80601f0160208091040260200160405190810160405280929190818152602001828054611fbc906140b8565b80156120095780601f10611fde57610100808354040283529160200191612009565b820191906000526020600020905b815481529060010190602001808311611fec57829003601f168201915b5050505050815260200160068201548152505081526020019060010190611dcf565b50505050905090565b6000600560008473ffffffffffffffffffffffffffffffffffffffff1673ffffffffffffffffffffffffffffffffffffffff16815260200190815260200160002060008373ffffffffffffffffffffffffffffffffffffffff1673ffffffffffffffffffffffffffffffffffffffff16815260200190815260200160002060009054906101000a900460ff16905092915050565b6120d0612704565b600073ffffffffffffffffffffffffffffffffffffffff168173ffffffffffffffffffffffffffffffffffffffff160361213f576040517f08c379a000000000000000000000000000000000000000000000000000000000815260040161213690614c3a565b60405180910390fd5b61214881612782565b50565b60007f80ac58cd000000000000000000000000000000000000000000000000000000007bffffffffffffffffffffffffffffffffffffffffffffffffffffffff1916827bffffffffffffffffffffffffffffffffffffffffffffffffffffffff1916148061221657507f5b5e139f000000000000000000000000000000000000000000000000000000007bffffffffffffffffffffffffffffffffffffffffffffffffffffffff1916827bffffffffffffffffffffffffffffffffffffffffffffffffffffffff1916145b80612226575061222582612b8e565b5b9050919050565b61223681612bf8565b612275576040517f08c379a000000000000000000000000000000000000000000000000000000000815260040161226c9061490f565b60405180910390fd5b50565b600033905090565b816004600083815260200190815260200160002060006101000a81548173ffffffffffffffffffffffffffffffffffffffff021916908373ffffffffffffffffffffffffffffffffffffffff160217905550808273ffffffffffffffffffffffffffffffffffffffff166122f3836115cf565b73ffffffffffffffffffffffffffffffffffffffff167f8c5be1e5ebec7d5bd14f71427d1e84f3dd0314c0f7b2291e5b200ac8c7c3b92560405160405180910390a45050565b600080612345836115cf565b90508073ffffffffffffffffffffffffffffffffffffffff168473ffffffffffffffffffffffffffffffffffffffff16148061238757506123868185612034565b5b806123c557508373ffffffffffffffffffffffffffffffffffffffff166123ad84610840565b73ffffffffffffffffffffffffffffffffffffffff16145b91505092915050565b8273ffffffffffffffffffffffffffffffffffffffff166123ee826115cf565b73ffffffffffffffffffffffffffffffffffffffff1614612444576040517f08c379a000000000000000000000000000000000000000000000000000000000815260040161243b90614ccc565b60405180910390fd5b600073ffffffffffffffffffffffffffffffffffffffff168273ffffffffffffffffffffffffffffffffffffffff16036124b3576040517f08c379a00000000000000000000000000000000000000000000000000000000081526004016124aa90614d5e565b60405180910390fd5b6124c08383836001612c39565b8273ffffffffffffffffffffffffffffffffffffffff166124e0826115cf565b73ffffffffffffffffffffffffffffffffffffffff1614612536576040517f08c379a000000000000000000000000000000000000000000000000000000000815260040161252d90614ccc565b60405180910390fd5b6004600082815260200190815260200160002060006101000a81549073ffffffffffffffffffffffffffffffffffffffff02191690556001600360008573ffffffffffffffffffffffffffffffffffffffff1673ffffffffffffffffffffffffffffffffffffffff168152602001908152602001600020600082825403925050819055506001600360008473ffffffffffffffffffffffffffffffffffffffff1673ffffffffffffffffffffffffffffffffffffffff16815260200190815260200160002060008282540192505081905550816002600083815260200190815260200160002060006101000a81548173ffffffffffffffffffffffffffffffffffffffff021916908373ffffffffffffffffffffffffffffffffffffffff160217905550808273ffffffffffffffffffffffffffffffffffffffff168473ffffffffffffffffffffffffffffffffffffffff167fddf252ad1be2c89b69c2b068fc378daa952ba7f163c4a11628f55a4df523b3ef60405160405180910390a46126c28383836001612d97565b505050565b60006002600083815260200190815260200160002060009054906101000a900473ffffffffffffffffffffffffffffffffffffffff169050919050565b61270c612278565b73ffffffffffffffffffffffffffffffffffffffff1661272a611a93565b73ffffffffffffffffffffffffffffffffffffffff1614612780576040517f08c379a000000000000000000000000000000000000000000000000000000000815260040161277790614dca565b60405180910390fd5b565b6000600a60009054906101000a900473ffffffffffffffffffffffffffffffffffffffff16905081600a60006101000a81548173ffffffffffffffffffffffffffffffffffffffff021916908373ffffffffffffffffffffffffffffffffffffffff1602179055508173ffffffffffffffffffffffffffffffffffffffff168173ffffffffffffffffffffffffffffffffffffffff167f8be0079c531659141344cd1fd0a4f28419497f9722a3daafe3b4186f6b6457e060405160405180910390a35050565b60606000600161285784612d9d565b01905060008167ffffffffffffffff81111561287657612875613c93565b5b6040519080825280601f01601f1916602001820160405280156128a85781602001600182028036833780820191505090505b509050600082602001820190505b60011561290b578080600190039150507f3031323334353637383961626364656600000000000000000000000000000000600a86061a8153600a85816128ff576128fe614dea565b5b049450600085036128b6575b819350505050919050565b60008273ffffffffffffffffffffffffffffffffffffffff168260405161293c90614e4a565b60006040518083038185875af1925050503d8060008114612979576040519150601f19603f3d011682016040523d82523d6000602084013e61297e565b606091505b505090508061298c57600080fd5b505050565b6129ab828260405180602001604052806000815250612ef0565b5050565b8173ffffffffffffffffffffffffffffffffffffffff168373ffffffffffffffffffffffffffffffffffffffff1603612a1d576040517f08c379a0000000000000000000000000000000000000000000000000000000008152600401612a1490614eab565b60405180910390fd5b80600560008573ffffffffffffffffffffffffffffffffffffffff1673ffffffffffffffffffffffffffffffffffffffff16815260200190815260200160002060008473ffffffffffffffffffffffffffffffffffffffff1673ffffffffffffffffffffffffffffffffffffffff16815260200190815260200160002060006101000a81548160ff0219169083151502179055508173ffffffffffffffffffffffffffffffffffffffff168373ffffffffffffffffffffffffffffffffffffffff167f17307eab39ab6107e8899845ad3d59bd9653f200f220920489ca2b5937696c3183604051612b0e9190613725565b60405180910390a3505050565b612b268484846123ce565b612b3284848484612f4b565b612b71576040517f08c379a0000000000000000000000000000000000000000000000000000000008152600401612b6890614f3d565b60405180910390fd5b50505050565b606060405180602001604052806000815250905090565b60007f01ffc9a7000000000000000000000000000000000000000000000000000000007bffffffffffffffffffffffffffffffffffffffffffffffffffffffff1916827bffffffffffffffffffffffffffffffffffffffffffffffffffffffff1916149050919050565b60008073ffffffffffffffffffffffffffffffffffffffff16612c1a836126c7565b73ffffffffffffffffffffffffffffffffffffffff1614159050919050565b612c45848484846130d2565b6001811115612c89576040517f08c379a0000000000000000000000000000000000000000000000000000000008152600401612c8090614fcf565b60405180910390fd5b6000829050600073ffffffffffffffffffffffffffffffffffffffff168573ffffffffffffffffffffffffffffffffffffffff1603612cd057612ccb816130d8565b612d0f565b8373ffffffffffffffffffffffffffffffffffffffff168573ffffffffffffffffffffffffffffffffffffffff1614612d0e57612d0d8582613121565b5b5b600073ffffffffffffffffffffffffffffffffffffffff168473ffffffffffffffffffffffffffffffffffffffff1603612d5157612d4c8161328e565b612d90565b8473ffffffffffffffffffffffffffffffffffffffff168473ffffffffffffffffffffffffffffffffffffffff1614612d8f57612d8e848261335f565b5b5b5050505050565b50505050565b600080600090507a184f03e93ff9f4daa797ed6e38ed64bf6a1f0100000000000000008310612dfb577a184f03e93ff9f4daa797ed6e38ed64bf6a1f0100000000000000008381612df157612df0614dea565b5b0492506040810190505b6d04ee2d6d415b85acef81000000008310612e38576d04ee2d6d415b85acef81000000008381612e2e57612e2d614dea565b5b0492506020810190505b662386f26fc100008310612e6757662386f26fc100008381612e5d57612e5c614dea565b5b0492506010810190505b6305f5e1008310612e90576305f5e1008381612e8657612e85614dea565b5b0492506008810190505b6127108310612eb5576127108381612eab57612eaa614dea565b5b0492506004810190505b60648310612ed85760648381612ece57612ecd614dea565b5b0492506002810190505b600a8310612ee7576001810190505b80915050919050565b612efa83836133de565b612f076000848484612f4b565b612f46576040517f08c379a0000000000000000000000000000000000000000000000000000000008152600401612f3d90614f3d565b60405180910390fd5b505050565b6000612f6c8473ffffffffffffffffffffffffffffffffffffffff166135fb565b156130c5578373ffffffffffffffffffffffffffffffffffffffff1663150b7a02612f95612278565b8786866040518563ffffffff1660e01b8152600401612fb79493929190615044565b6020604051808303816000875af1925050508015612ff357506040513d601f19601f82011682018060405250810190612ff091906150a5565b60015b613075573d8060008114613023576040519150601f19603f3d011682016040523d82523d6000602084013e613028565b606091505b50600081510361306d576040517f08c379a000000000000000000000000000000000000000000000000000000000815260040161306490614f3d565b60405180910390fd5b805181602001fd5b63150b7a0260e01b7bffffffffffffffffffffffffffffffffffffffffffffffffffffffff1916817bffffffffffffffffffffffffffffffffffffffffffffffffffffffff1916149150506130ca565b600190505b949350505050565b50505050565b6008805490506009600083815260200190815260200160002081905550600881908060018154018082558091505060019003906000526020600020016000909190919091505550565b6000600161312e84611655565b6131389190614360565b905060006007600084815260200190815260200160002054905081811461321d576000600660008673ffffffffffffffffffffffffffffffffffffffff1673ffffffffffffffffffffffffffffffffffffffff168152602001908152602001600020600084815260200190815260200160002054905080600660008773ffffffffffffffffffffffffffffffffffffffff1673ffffffffffffffffffffffffffffffffffffffff168152602001908152602001600020600084815260200190815260200160002081905550816007600083815260200190815260200160002081905550505b6007600084815260200190815260200160002060009055600660008573ffffffffffffffffffffffffffffffffffffffff1673ffffffffffffffffffffffffffffffffffffffff16815260200190815260200160002060008381526020019081526020016000206000905550505050565b600060016008805490506132a29190614360565b90506000600960008481526020019081526020016000205490506000600883815481106132d2576132d1614394565b5b9060005260206000200154905080600883815481106132f4576132f3614394565b5b906000526020600020018190555081600960008381526020019081526020016000208190555060096000858152602001908152602001600020600090556008805480613343576133426150d2565b5b6001900381819060005260206000200160009055905550505050565b600061336a83611655565b905081600660008573ffffffffffffffffffffffffffffffffffffffff1673ffffffffffffffffffffffffffffffffffffffff168152602001908152602001600020600083815260200190815260200160002081905550806007600084815260200190815260200160002081905550505050565b600073ffffffffffffffffffffffffffffffffffffffff168273ffffffffffffffffffffffffffffffffffffffff160361344d576040517f08c379a00000000000000000000000000000000000000000000000000000000081526004016134449061514d565b60405180910390fd5b61345681612bf8565b15613496576040517f08c379a000000000000000000000000000000000000000000000000000000000815260040161348d906151b9565b60405180910390fd5b6134a4600083836001612c39565b6134ad81612bf8565b156134ed576040517f08c379a00000000000000000000000000000000000000000000000000000000081526004016134e4906151b9565b60405180910390fd5b6001600360008473ffffffffffffffffffffffffffffffffffffffff1673ffffffffffffffffffffffffffffffffffffffff16815260200190815260200160002060008282540192505081905550816002600083815260200190815260200160002060006101000a81548173ffffffffffffffffffffffffffffffffffffffff021916908373ffffffffffffffffffffffffffffffffffffffff160217905550808273ffffffffffffffffffffffffffffffffffffffff16600073ffffffffffffffffffffffffffffffffffffffff167fddf252ad1be2c89b69c2b068fc378daa952ba7f163c4a11628f55a4df523b3ef60405160405180910390a46135f7600083836001612d97565b5050565b6000808273ffffffffffffffffffffffffffffffffffffffff163b119050919050565b6040518060e0016040528060008152602001600073ffffffffffffffffffffffffffffffffffffffff16815260200160008152602001606081526020016060815260200160608152602001600081525090565b6000604051905090565b600080fd5b600080fd5b60007fffffffff0000000000000000000000000000000000000000000000000000000082169050919050565b6136ba81613685565b81146136c557600080fd5b50565b6000813590506136d7816136b1565b92915050565b6000602082840312156136f3576136f261367b565b5b6000613701848285016136c8565b91505092915050565b60008115159050919050565b61371f8161370a565b82525050565b600060208201905061373a6000830184613716565b92915050565b6000819050919050565b61375381613740565b82525050565b600060208201905061376e600083018461374a565b92915050565b600081519050919050565b600082825260208201905092915050565b60005b838110156137ae578082015181840152602081019050613793565b60008484015250505050565b6000601f19601f8301169050919050565b60006137d682613774565b6137e0818561377f565b93506137f0818560208601613790565b6137f9816137ba565b840191505092915050565b6000602082019050818103600083015261381e81846137cb565b905092915050565b61382f81613740565b811461383a57600080fd5b50565b60008135905061384c81613826565b92915050565b6000602082840312156138685761386761367b565b5b60006138768482850161383d565b91505092915050565b600073ffffffffffffffffffffffffffffffffffffffff82169050919050565b60006138aa8261387f565b9050919050565b6138ba8161389f565b82525050565b60006020820190506138d560008301846138b1565b92915050565b6138e48161389f565b81146138ef57600080fd5b50565b600081359050613901816138db565b92915050565b6000806040838503121561391e5761391d61367b565b5b600061392c858286016138f2565b925050602061393d8582860161383d565b9150509250929050565b6000806000606084860312156139605761395f61367b565b5b600061396e868287016138f2565b935050602061397f868287016138f2565b92505060406139908682870161383d565b9150509250925092565b600081519050919050565b600082825260208201905092915050565b6000819050602082019050919050565b6139cf81613740565b82525050565b6139de8161389f565b82525050565b600082825260208201905092915050565b6000613a0082613774565b613a0a81856139e4565b9350613a1a818560208601613790565b613a23816137ba565b840191505092915050565b600060e083016000830151613a4660008601826139c6565b506020830151613a5960208601826139d5565b506040830151613a6c60408601826139c6565b5060608301518482036060860152613a8482826139f5565b91505060808301518482036080860152613a9e82826139f5565b91505060a083015184820360a0860152613ab882826139f5565b91505060c0830151613acd60c08601826139c6565b508091505092915050565b6000613ae48383613a2e565b905092915050565b6000602082019050919050565b6000613b048261399a565b613b0e81856139a5565b935083602082028501613b20856139b6565b8060005b85811015613b5c5784840389528151613b3d8582613ad8565b9450613b4883613aec565b925060208a01995050600181019050613b24565b50829750879550505050505092915050565b60006020820190508181036000830152613b888184613af9565b905092915050565b600060e083016000830151613ba860008601826139c6565b506020830151613bbb60208601826139d5565b506040830151613bce60408601826139c6565b5060608301518482036060860152613be682826139f5565b91505060808301518482036080860152613c0082826139f5565b91505060a083015184820360a0860152613c1a82826139f5565b91505060c0830151613c2f60c08601826139c6565b508091505092915050565b60006020820190508181036000830152613c548184613b90565b905092915050565b600060208284031215613c7257613c7161367b565b5b6000613c80848285016138f2565b91505092915050565b600080fd5b600080fd5b7f4e487b7100000000000000000000000000000000000000000000000000000000600052604160045260246000fd5b613ccb826137ba565b810181811067ffffffffffffffff82111715613cea57613ce9613c93565b5b80604052505050565b6000613cfd613671565b9050613d098282613cc2565b919050565b600067ffffffffffffffff821115613d2957613d28613c93565b5b613d32826137ba565b9050602081019050919050565b82818337600083830152505050565b6000613d61613d5c84613d0e565b613cf3565b905082815260208101848484011115613d7d57613d7c613c8e565b5b613d88848285613d3f565b509392505050565b600082601f830112613da557613da4613c89565b5b8135613db5848260208601613d4e565b91505092915050565b60008060008060808587031215613dd857613dd761367b565b5b600085013567ffffffffffffffff811115613df657613df5613680565b5b613e0287828801613d90565b945050602085013567ffffffffffffffff811115613e2357613e22613680565b5b613e2f87828801613d90565b935050604085013567ffffffffffffffff811115613e5057613e4f613680565b5b613e5c87828801613d90565b9250506060613e6d8782880161383d565b91505092959194509250565b613e828161370a565b8114613e8d57600080fd5b50565b600081359050613e9f81613e79565b92915050565b60008060408385031215613ebc57613ebb61367b565b5b6000613eca858286016138f2565b9250506020613edb85828601613e90565b9150509250929050565b60008060408385031215613efc57613efb61367b565b5b6000613f0a8582860161383d565b9250506020613f1b8582860161383d565b9150509250929050565b600067ffffffffffffffff821115613f4057613f3f613c93565b5b613f49826137ba565b9050602081019050919050565b6000613f69613f6484613f25565b613cf3565b905082815260208101848484011115613f8557613f84613c8e565b5b613f90848285613d3f565b509392505050565b600082601f830112613fad57613fac613c89565b5b8135613fbd848260208601613f56565b91505092915050565b60008060008060808587031215613fe057613fdf61367b565b5b6000613fee878288016138f2565b9450506020613fff878288016138f2565b93505060406140108782880161383d565b925050606085013567ffffffffffffffff81111561403157614030613680565b5b61403d87828801613f98565b91505092959194509250565b600080604083850312156140605761405f61367b565b5b600061406e858286016138f2565b925050602061407f858286016138f2565b9150509250929050565b7f4e487b7100000000000000000000000000000000000000000000000000000000600052602260045260246000fd5b600060028204905060018216806140d057607f821691505b6020821081036140e3576140e2614089565b5b50919050565b7f4552433732313a20617070726f76616c20746f2063757272656e74206f776e6560008201527f7200000000000000000000000000000000000000000000000000000000000000602082015250565b600061414560218361377f565b9150614150826140e9565b604082019050919050565b6000602082019050818103600083015261417481614138565b9050919050565b7f4552433732313a20617070726f76652063616c6c6572206973206e6f7420746f60008201527f6b656e206f776e6572206f7220617070726f76656420666f7220616c6c000000602082015250565b60006141d7603d8361377f565b91506141e28261417b565b604082019050919050565b60006020820190508181036000830152614206816141ca565b9050919050565b7f4552433732313a2063616c6c6572206973206e6f7420746f6b656e206f776e6560008201527f72206f7220617070726f76656400000000000000000000000000000000000000602082015250565b6000614269602d8361377f565b91506142748261420d565b604082019050919050565b600060208201905081810360008301526142988161425c565b9050919050565b7f455243373231456e756d657261626c653a206f776e657220696e646578206f7560008201527f74206f6620626f756e6473000000000000000000000000000000000000000000602082015250565b60006142fb602b8361377f565b91506143068261429f565b604082019050919050565b6000602082019050818103600083015261432a816142ee565b9050919050565b7f4e487b7100000000000000000000000000000000000000000000000000000000600052601160045260246000fd5b600061436b82613740565b915061437683613740565b925082820390508181111561438e5761438d614331565b5b92915050565b7f4e487b7100000000000000000000000000000000000000000000000000000000600052603260045260246000fd5b7f457468657220746f6f206c6f7720666f72207075726368617365210000000000600082015250565b60006143f9601b8361377f565b9150614404826143c3565b602082019050919050565b60006020820190508181036000830152614428816143ec565b9050919050565b7f4f7065726174696f6e204e6f7420416c6c6f7765642100000000000000000000600082015250565b600061446560168361377f565b91506144708261442f565b602082019050919050565b6000602082019050818103600083015261449481614458565b9050919050565b60006144a682613740565b91507fffffffffffffffffffffffffffffffffffffffffffffffffffffffffffffffff82036144d8576144d7614331565b5b600182019050919050565b60008190508160005260206000209050919050565b60006020601f8301049050919050565b600082821b905092915050565b6000600883026145457fffffffffffffffffffffffffffffffffffffffffffffffffffffffffffffffff82614508565b61454f8683614508565b95508019841693508086168417925050509392505050565b6000819050919050565b600061458c61458761458284613740565b614567565b613740565b9050919050565b6000819050919050565b6145a683614571565b6145ba6145b282614593565b848454614515565b825550505050565b600090565b6145cf6145c2565b6145da81848461459d565b505050565b5b818110156145fe576145f36000826145c7565b6001810190506145e0565b5050565b601f82111561464357614614816144e3565b61461d846144f8565b8101602085101561462c578190505b614640614638856144f8565b8301826145df565b50505b505050565b600082821c905092915050565b600061466660001984600802614648565b1980831691505092915050565b600061467f8383614655565b9150826002028217905092915050565b61469882613774565b67ffffffffffffffff8111156146b1576146b0613c93565b5b6146bb82546140b8565b6146c6828285614602565b600060209050601f8311600181146146f957600084156146e7578287015190505b6146f18582614673565b865550614759565b601f198416614707866144e3565b60005b8281101561472f5784890151825560018201915060208501945060208101905061470a565b8683101561474c5784890151614748601f891682614655565b8355505b6001600288020188555050505b505050505050565b6000815461476e816140b8565b614778818661377f565b9450600182166000811461479357600181146147a9576147dc565b60ff1983168652811515602002860193506147dc565b6147b2856144e3565b60005b838110156147d4578154818901526001820191506020810190506147b5565b808801955050505b50505092915050565b60006080820190506147fa600083018761374a565b614807602083018661374a565b81810360408301526148198185614761565b9050614828606083018461374a565b95945050505050565b7f455243373231456e756d657261626c653a20676c6f62616c20696e646578206f60008201527f7574206f6620626f756e64730000000000000000000000000000000000000000602082015250565b600061488d602c8361377f565b915061489882614831565b604082019050919050565b600060208201905081810360008301526148bc81614880565b9050919050565b7f4552433732313a20696e76616c696420746f6b656e2049440000000000000000600082015250565b60006148f960188361377f565b9150614904826148c3565b602082019050919050565b60006020820190508181036000830152614928816148ec565b9050919050565b7f4552433732313a2061646472657373207a65726f206973206e6f74206120766160008201527f6c6964206f776e65720000000000000000000000000000000000000000000000602082015250565b600061498b60298361377f565b91506149968261492f565b604082019050919050565b600060208201905081810360008301526149ba8161497e565b9050919050565b600081905092915050565b60006149d782613774565b6149e181856149c1565b93506149f1818560208601613790565b80840191505092915050565b6000614a0982846149cc565b915081905092915050565b7f54686973204e465420697320616c7265616479206d696e746564210000000000600082015250565b6000614a4a601b8361377f565b9150614a5582614a14565b602082019050919050565b60006020820190508181036000830152614a7981614a3d565b9050919050565b7f53616c6573206e6f7420616c6c6f776564210000000000000000000000000000600082015250565b6000614ab660128361377f565b9150614ac182614a80565b602082019050919050565b60006020820190508181036000830152614ae581614aa9565b9050919050565b6000608082019050614b01600083018761374a565b614b0e602083018661374a565b8181036040830152614b2081856137cb565b9050614b2f606083018461374a565b95945050505050565b7f457468657220746f6f206c6f7721000000000000000000000000000000000000600082015250565b6000614b6e600e8361377f565b9150614b7982614b38565b602082019050919050565b60006020820190508181036000830152614b9d81614b61565b9050919050565b6000614bb082856149cc565b9150614bbc82846149cc565b91508190509392505050565b7f4f776e61626c653a206e6577206f776e657220697320746865207a65726f206160008201527f6464726573730000000000000000000000000000000000000000000000000000602082015250565b6000614c2460268361377f565b9150614c2f82614bc8565b604082019050919050565b60006020820190508181036000830152614c5381614c17565b9050919050565b7f4552433732313a207472616e736665722066726f6d20696e636f72726563742060008201527f6f776e6572000000000000000000000000000000000000000000000000000000602082015250565b6000614cb660258361377f565b9150614cc182614c5a565b604082019050919050565b60006020820190508181036000830152614ce581614ca9565b9050919050565b7f4552433732313a207472616e7366657220746f20746865207a65726f2061646460008201527f7265737300000000000000000000000000000000000000000000000000000000602082015250565b6000614d4860248361377f565b9150614d5382614cec565b604082019050919050565b60006020820190508181036000830152614d7781614d3b565b9050919050565b7f4f776e61626c653a2063616c6c6572206973206e6f7420746865206f776e6572600082015250565b6000614db460208361377f565b9150614dbf82614d7e565b602082019050919050565b60006020820190508181036000830152614de381614da7565b9050919050565b7f4e487b7100000000000000000000000000000000000000000000000000000000600052601260045260246000fd5b600081905092915050565b50565b6000614e34600083614e19565b9150614e3f82614e24565b600082019050919050565b6000614e5582614e27565b9150819050919050565b7f4552433732313a20617070726f766520746f2063616c6c657200000000000000600082015250565b6000614e9560198361377f565b9150614ea082614e5f565b602082019050919050565b60006020820190508181036000830152614ec481614e88565b9050919050565b7f4552433732313a207472616e7366657220746f206e6f6e20455243373231526560008201527f63656976657220696d706c656d656e7465720000000000000000000000000000602082015250565b6000614f2760328361377f565b9150614f3282614ecb565b604082019050919050565b60006020820190508181036000830152614f5681614f1a565b9050919050565b7f455243373231456e756d657261626c653a20636f6e736563757469766520747260008201527f616e7366657273206e6f7420737570706f727465640000000000000000000000602082015250565b6000614fb960358361377f565b9150614fc482614f5d565b604082019050919050565b60006020820190508181036000830152614fe881614fac565b9050919050565b600081519050919050565b600082825260208201905092915050565b600061501682614fef565b6150208185614ffa565b9350615030818560208601613790565b615039816137ba565b840191505092915050565b600060808201905061505960008301876138b1565b61506660208301866138b1565b615073604083018561374a565b8181036060830152615085818461500b565b905095945050505050565b60008151905061509f816136b1565b92915050565b6000602082840312156150bb576150ba61367b565b5b60006150c984828501615090565b91505092915050565b7f4e487b7100000000000000000000000000000000000000000000000000000000600052603160045260246000fd5b7f4552433732313a206d696e7420746f20746865207a65726f2061646472657373600082015250565b600061513760208361377f565b915061514282615101565b602082019050919050565b600060208201905081810360008301526151668161512a565b9050919050565b7f4552433732313a20746f6b656e20616c7265616479206d696e74656400000000600082015250565b60006151a3601c8361377f565b91506151ae8261516d565b602082019050919050565b600060208201905081810360008301526151d281615196565b905091905056fea264697066735822122017cca3f58ba32372c059407983fba46988aac92b869bf450bd5f5a6fdf821dfa64736f6c63430008130033",
  "immutableReferences": {},
  "source": "// SPDX-License-Identifier: MIT\npragma solidity >=0.4.22 <0.9.0;\nimport \"./ServerContract.sol\";\nimport \"./Tracking.sol\";\n\nimport \"@openzeppelin/contracts/token/ERC721/ERC721.sol\";\nimport \"@openzeppelin/contracts/token/ERC721/extensions/ERC721Enumerable.sol\";\nimport \"@openzeppelin/contracts/utils/Counters.sol\";\nimport \"@openzeppelin/contracts/access/Ownable.sol\";\n\ncontract Brand is ERC721Enumerable, Ownable {\n    using Strings for uint256;\n    \n\nconstructor(\n  string memory _name,\n  string memory _symbol\n) ERC721(_name, _symbol) {\n  \n}\n\n    mapping(string => uint8) existingURIs;\n    mapping(uint256 => address) public holderOf;\n    uint256 public supply = 0; //determines the id\n    uint256 public totalTxn = 0;\n    uint256 public cost = 0.0001 ether;\n\n    event Sale(\n        uint256 id,\n        address indexed owner,\n        uint256 cost,\n        string metadataURI,\n        uint256 timestamp\n    );\n\n    \n\n    TransactionStruct[] transactions;\n    TransactionStruct[] minted;\n    ProductStruct [] Product;\n    struct ProductStruct{\n      uint256 prodId;\n      string BrandName;\n      string title;\n      string description;\n      uint256 currentCost;\n      address prod_Owner;\n\n    }\n\n    struct TransactionStruct {\n        uint256 id;\n        address owner;\n        uint256 cost;\n        string title;\n        string description;\n        string metadataURI;\n        uint256 timestamp;\n    }\n\n\n    function mintProduct(string memory title,string memory description,string memory metadataURI,uint256 salesPrice) external payable{\n        require(msg.value >= cost, msg.value.toString());\n        require(existingURIs[metadataURI] == 0, \"This NFT is already minted!\");\n        require(msg.sender != owner(), \"Sales not allowed!\");\n\n        supply++;\n\n        minted.push(\n            TransactionStruct(\n                supply,\n                msg.sender,\n                salesPrice,\n                title,\n                description,\n                metadataURI,\n                block.timestamp\n            )\n        );\n        payTo(owner(), msg.value);\n        emit Sale(\n            supply,\n            msg.sender,\n            msg.value,\n            metadataURI,\n            block.timestamp\n        );\n\n        _safeMint(msg.sender, supply);\n        existingURIs[metadataURI] = 1;\n        holderOf[supply] = msg.sender;\n\n    }\n    // function sellProduct(){\n\n\n    // }\n\n    // function transferProduct(){\n\n    // }\n\n    // function changePrice(){\n\n    // }\n    // function payToMint(\n    //     string memory title,\n    //     string memory description,\n    //     string memory metadataURI,\n    //     uint256 salesPrice\n    // ) external payable {\n\n    //     require(msg.value >= cost, msg.value.toString());\n    //     require(existingURIs[metadataURI] == 0, \"This NFT is already minted!\");\n    //     require(msg.sender != owner(), \"Sales not allowed!\");\n        \n\n        \n\n        // supply++;\n\n        // minted.push(\n        //     TransactionStruct(\n        //         supply,\n        //         msg.sender,\n        //         salesPrice,\n        //         title,\n        //         description,\n        //         metadataURI,\n        //         block.timestamp\n        //     )\n        // );\n\n        // emit Sale(\n        //     supply,\n        //     msg.sender,\n        //     msg.value,\n        //     metadataURI,\n        //     block.timestamp\n        // );\n\n        // _safeMint(msg.sender, supply);\n        // existingURIs[metadataURI] = 1;\n        // holderOf[supply] = msg.sender;\n    // }\n\n    function sellProduct(uint256 id) external payable {\n        require(msg.value >= minted[id - 1].cost, \"Ether too low for purchase!\");\n        require(msg.sender != minted[id - 1].owner, \"Operation Not Allowed!\");\n\n        totalTxn++;\n\n        transactions.push(\n            TransactionStruct(\n                totalTxn,\n                msg.sender,\n                msg.value,\n                minted[id - 1].title,\n                minted[id - 1].description,\n                minted[id - 1].metadataURI,\n                block.timestamp\n            )\n        );\n\n        emit Sale(\n            totalTxn,\n            msg.sender,\n            msg.value,\n            minted[id - 1].metadataURI,\n            block.timestamp\n        );\n\n        minted[id - 1].owner = msg.sender;\n    }\n\n    function changePrice(uint256 id, uint256 newPrice) external returns (bool) {\n        require(newPrice > 0 ether, \"Ether too low!\");\n        require(msg.sender == minted[id - 1].owner, \"Operation Not Allowed!\");\n\n        minted[id - 1].cost = newPrice;\n        return true;\n    }\n\n    function payTo(address to, uint256 amount) internal {\n        (bool success, ) = payable(to).call{value: amount}(\"\");\n        require(success);\n    }\n\n    function getAllNFTs() external view returns (TransactionStruct[] memory) {\n        return minted;\n    }\n\n    function getNFT(uint256 id) external view returns (TransactionStruct memory) {\n        return minted[id - 1];\n    }\n\n    function getAllTransactions() external view returns (TransactionStruct[] memory) {\n        return transactions;\n    }\n}\n",
  "sourcePath": "/Users/muskaansharma/Desktop/ZCoders_LOC/ZCoders_LOC5.0/scontracts/contracts/Brand.sol",
  "compiler": {
    "name": "solc",
    "version": "0.8.19+commit.7dd6d404.Emscripten.clang"
  },
  "schemaVersion": "3.4.13",
  "updatedAt": "2023-03-11T17:58:08.182Z",
  "networkType": "ethereum",
  "devdoc": {
    "events": {
      "Approval(address,address,uint256)": {
        "details": "Emitted when `owner` enables `approved` to manage the `tokenId` token."
      },
      "ApprovalForAll(address,address,bool)": {
        "details": "Emitted when `owner` enables or disables (`approved`) `operator` to manage all of its assets."
      },
      "Transfer(address,address,uint256)": {
        "details": "Emitted when `tokenId` token is transferred from `from` to `to`."
      }
    },
    "kind": "dev",
    "methods": {
      "approve(address,uint256)": {
        "details": "See {IERC721-approve}."
      },
      "balanceOf(address)": {
        "details": "See {IERC721-balanceOf}."
      },
      "getApproved(uint256)": {
        "details": "See {IERC721-getApproved}."
      },
      "isApprovedForAll(address,address)": {
        "details": "See {IERC721-isApprovedForAll}."
      },
      "name()": {
        "details": "See {IERC721Metadata-name}."
      },
      "owner()": {
        "details": "Returns the address of the current owner."
      },
      "ownerOf(uint256)": {
        "details": "See {IERC721-ownerOf}."
      },
      "renounceOwnership()": {
        "details": "Leaves the contract without owner. It will not be possible to call `onlyOwner` functions anymore. Can only be called by the current owner. NOTE: Renouncing ownership will leave the contract without an owner, thereby removing any functionality that is only available to the owner."
      },
      "safeTransferFrom(address,address,uint256)": {
        "details": "See {IERC721-safeTransferFrom}."
      },
      "safeTransferFrom(address,address,uint256,bytes)": {
        "details": "See {IERC721-safeTransferFrom}."
      },
      "setApprovalForAll(address,bool)": {
        "details": "See {IERC721-setApprovalForAll}."
      },
      "supportsInterface(bytes4)": {
        "details": "See {IERC165-supportsInterface}."
      },
      "symbol()": {
        "details": "See {IERC721Metadata-symbol}."
      },
      "tokenByIndex(uint256)": {
        "details": "See {IERC721Enumerable-tokenByIndex}."
      },
      "tokenOfOwnerByIndex(address,uint256)": {
        "details": "See {IERC721Enumerable-tokenOfOwnerByIndex}."
      },
      "tokenURI(uint256)": {
        "details": "See {IERC721Metadata-tokenURI}."
      },
      "totalSupply()": {
        "details": "See {IERC721Enumerable-totalSupply}."
      },
      "transferFrom(address,address,uint256)": {
        "details": "See {IERC721-transferFrom}."
      },
      "transferOwnership(address)": {
        "details": "Transfers ownership of the contract to a new account (`newOwner`). Can only be called by the current owner."
      }
    },
    "version": 1
  },
  "userdoc": {
    "kind": "user",
    "methods": {},
    "version": 1
  }
}