{
  "contractName": "Brand",
  "abi": [
    {
      "inputs": [
        {
          "internalType": "string",
          "name": "_name",
          "type": "string"
        },
        {
          "internalType": "string",
          "name": "_symbol",
          "type": "string"
        }
      ],
      "stateMutability": "nonpayable",
      "type": "constructor"
    },
    {
      "anonymous": false,
      "inputs": [
        {
          "indexed": true,
          "internalType": "address",
          "name": "owner",
          "type": "address"
        },
        {
          "indexed": true,
          "internalType": "address",
          "name": "approved",
          "type": "address"
        },
        {
          "indexed": true,
          "internalType": "uint256",
          "name": "tokenId",
          "type": "uint256"
        }
      ],
      "name": "Approval",
      "type": "event"
    },
    {
      "anonymous": false,
      "inputs": [
        {
          "indexed": true,
          "internalType": "address",
          "name": "owner",
          "type": "address"
        },
        {
          "indexed": true,
          "internalType": "address",
          "name": "operator",
          "type": "address"
        },
        {
          "indexed": false,
          "internalType": "bool",
          "name": "approved",
          "type": "bool"
        }
      ],
      "name": "ApprovalForAll",
      "type": "event"
    },
    {
      "anonymous": false,
      "inputs": [
        {
          "indexed": true,
          "internalType": "address",
          "name": "previousOwner",
          "type": "address"
        },
        {
          "indexed": true,
          "internalType": "address",
          "name": "newOwner",
          "type": "address"
        }
      ],
      "name": "OwnershipTransferred",
      "type": "event"
    },
    {
      "anonymous": false,
      "inputs": [
        {
          "indexed": false,
          "internalType": "uint256",
          "name": "id",
          "type": "uint256"
        },
        {
          "indexed": true,
          "internalType": "address",
          "name": "owner",
          "type": "address"
        },
        {
          "indexed": false,
          "internalType": "uint256",
          "name": "cost",
          "type": "uint256"
        },
        {
          "indexed": false,
          "internalType": "string",
          "name": "metadataURI",
          "type": "string"
        },
        {
          "indexed": false,
          "internalType": "uint256",
          "name": "timestamp",
          "type": "uint256"
        }
      ],
      "name": "Sale",
      "type": "event"
    },
    {
      "anonymous": false,
      "inputs": [
        {
          "indexed": true,
          "internalType": "address",
          "name": "from",
          "type": "address"
        },
        {
          "indexed": true,
          "internalType": "address",
          "name": "to",
          "type": "address"
        },
        {
          "indexed": true,
          "internalType": "uint256",
          "name": "tokenId",
          "type": "uint256"
        }
      ],
      "name": "Transfer",
      "type": "event"
    },
    {
      "inputs": [
        {
          "internalType": "address",
          "name": "to",
          "type": "address"
        },
        {
          "internalType": "uint256",
          "name": "tokenId",
          "type": "uint256"
        }
      ],
      "name": "approve",
      "outputs": [],
      "stateMutability": "nonpayable",
      "type": "function"
    },
    {
      "inputs": [
        {
          "internalType": "address",
          "name": "owner",
          "type": "address"
        }
      ],
      "name": "balanceOf",
      "outputs": [
        {
          "internalType": "uint256",
          "name": "",
          "type": "uint256"
        }
      ],
      "stateMutability": "view",
      "type": "function",
      "constant": true
    },
    {
      "inputs": [],
      "name": "cost",
      "outputs": [
        {
          "internalType": "uint256",
          "name": "",
          "type": "uint256"
        }
      ],
      "stateMutability": "view",
      "type": "function",
      "constant": true
    },
    {
      "inputs": [
        {
          "internalType": "uint256",
          "name": "tokenId",
          "type": "uint256"
        }
      ],
      "name": "getApproved",
      "outputs": [
        {
          "internalType": "address",
          "name": "",
          "type": "address"
        }
      ],
      "stateMutability": "view",
      "type": "function",
      "constant": true
    },
    {
      "inputs": [
        {
          "internalType": "uint256",
          "name": "",
          "type": "uint256"
        }
      ],
      "name": "holderOf",
      "outputs": [
        {
          "internalType": "address",
          "name": "",
          "type": "address"
        }
      ],
      "stateMutability": "view",
      "type": "function",
      "constant": true
    },
    {
      "inputs": [
        {
          "internalType": "address",
          "name": "owner",
          "type": "address"
        },
        {
          "internalType": "address",
          "name": "operator",
          "type": "address"
        }
      ],
      "name": "isApprovedForAll",
      "outputs": [
        {
          "internalType": "bool",
          "name": "",
          "type": "bool"
        }
      ],
      "stateMutability": "view",
      "type": "function",
      "constant": true
    },
    {
      "inputs": [],
      "name": "name",
      "outputs": [
        {
          "internalType": "string",
          "name": "",
          "type": "string"
        }
      ],
      "stateMutability": "view",
      "type": "function",
      "constant": true
    },
    {
      "inputs": [],
      "name": "owner",
      "outputs": [
        {
          "internalType": "address",
          "name": "",
          "type": "address"
        }
      ],
      "stateMutability": "view",
      "type": "function",
      "constant": true
    },
    {
      "inputs": [
        {
          "internalType": "uint256",
          "name": "tokenId",
          "type": "uint256"
        }
      ],
      "name": "ownerOf",
      "outputs": [
        {
          "internalType": "address",
          "name": "",
          "type": "address"
        }
      ],
      "stateMutability": "view",
      "type": "function",
      "constant": true
    },
    {
      "inputs": [],
      "name": "renounceOwnership",
      "outputs": [],
      "stateMutability": "nonpayable",
      "type": "function"
    },
    {
      "inputs": [
        {
          "internalType": "address",
          "name": "from",
          "type": "address"
        },
        {
          "internalType": "address",
          "name": "to",
          "type": "address"
        },
        {
          "internalType": "uint256",
          "name": "tokenId",
          "type": "uint256"
        }
      ],
      "name": "safeTransferFrom",
      "outputs": [],
      "stateMutability": "nonpayable",
      "type": "function"
    },
    {
      "inputs": [
        {
          "internalType": "address",
          "name": "from",
          "type": "address"
        },
        {
          "internalType": "address",
          "name": "to",
          "type": "address"
        },
        {
          "internalType": "uint256",
          "name": "tokenId",
          "type": "uint256"
        },
        {
          "internalType": "bytes",
          "name": "data",
          "type": "bytes"
        }
      ],
      "name": "safeTransferFrom",
      "outputs": [],
      "stateMutability": "nonpayable",
      "type": "function"
    },
    {
      "inputs": [
        {
          "internalType": "address",
          "name": "operator",
          "type": "address"
        },
        {
          "internalType": "bool",
          "name": "approved",
          "type": "bool"
        }
      ],
      "name": "setApprovalForAll",
      "outputs": [],
      "stateMutability": "nonpayable",
      "type": "function"
    },
    {
      "inputs": [],
      "name": "supply",
      "outputs": [
        {
          "internalType": "uint256",
          "name": "",
          "type": "uint256"
        }
      ],
      "stateMutability": "view",
      "type": "function",
      "constant": true
    },
    {
      "inputs": [
        {
          "internalType": "bytes4",
          "name": "interfaceId",
          "type": "bytes4"
        }
      ],
      "name": "supportsInterface",
      "outputs": [
        {
          "internalType": "bool",
          "name": "",
          "type": "bool"
        }
      ],
      "stateMutability": "view",
      "type": "function",
      "constant": true
    },
    {
      "inputs": [],
      "name": "symbol",
      "outputs": [
        {
          "internalType": "string",
          "name": "",
          "type": "string"
        }
      ],
      "stateMutability": "view",
      "type": "function",
      "constant": true
    },
    {
      "inputs": [
        {
          "internalType": "uint256",
          "name": "index",
          "type": "uint256"
        }
      ],
      "name": "tokenByIndex",
      "outputs": [
        {
          "internalType": "uint256",
          "name": "",
          "type": "uint256"
        }
      ],
      "stateMutability": "view",
      "type": "function",
      "constant": true
    },
    {
      "inputs": [
        {
          "internalType": "address",
          "name": "owner",
          "type": "address"
        },
        {
          "internalType": "uint256",
          "name": "index",
          "type": "uint256"
        }
      ],
      "name": "tokenOfOwnerByIndex",
      "outputs": [
        {
          "internalType": "uint256",
          "name": "",
          "type": "uint256"
        }
      ],
      "stateMutability": "view",
      "type": "function",
      "constant": true
    },
    {
      "inputs": [
        {
          "internalType": "uint256",
          "name": "tokenId",
          "type": "uint256"
        }
      ],
      "name": "tokenURI",
      "outputs": [
        {
          "internalType": "string",
          "name": "",
          "type": "string"
        }
      ],
      "stateMutability": "view",
      "type": "function",
      "constant": true
    },
    {
      "inputs": [],
      "name": "totalSupply",
      "outputs": [
        {
          "internalType": "uint256",
          "name": "",
          "type": "uint256"
        }
      ],
      "stateMutability": "view",
      "type": "function",
      "constant": true
    },
    {
      "inputs": [],
      "name": "totalTxn",
      "outputs": [
        {
          "internalType": "uint256",
          "name": "",
          "type": "uint256"
        }
      ],
      "stateMutability": "view",
      "type": "function",
      "constant": true
    },
    {
      "inputs": [
        {
          "internalType": "address",
          "name": "from",
          "type": "address"
        },
        {
          "internalType": "address",
          "name": "to",
          "type": "address"
        },
        {
          "internalType": "uint256",
          "name": "tokenId",
          "type": "uint256"
        }
      ],
      "name": "transferFrom",
      "outputs": [],
      "stateMutability": "nonpayable",
      "type": "function"
    },
    {
      "inputs": [
        {
          "internalType": "address",
          "name": "newOwner",
          "type": "address"
        }
      ],
      "name": "transferOwnership",
      "outputs": [],
      "stateMutability": "nonpayable",
      "type": "function"
    },
    {
      "inputs": [
        {
          "internalType": "string",
          "name": "title",
          "type": "string"
        },
        {
          "internalType": "string",
          "name": "description",
          "type": "string"
        },
        {
          "internalType": "string",
          "name": "metadataURI",
          "type": "string"
        },
        {
          "internalType": "uint256",
          "name": "salesPrice",
          "type": "uint256"
        }
      ],
      "name": "payToMint",
      "outputs": [],
      "stateMutability": "payable",
      "type": "function",
      "payable": true
    },
    {
      "inputs": [
        {
          "internalType": "uint256",
          "name": "id",
          "type": "uint256"
        }
      ],
      "name": "payToBuy",
      "outputs": [],
      "stateMutability": "payable",
      "type": "function",
      "payable": true
    },
    {
      "inputs": [
        {
          "internalType": "uint256",
          "name": "id",
          "type": "uint256"
        },
        {
          "internalType": "uint256",
          "name": "newPrice",
          "type": "uint256"
        }
      ],
      "name": "changePrice",
      "outputs": [
        {
          "internalType": "bool",
          "name": "",
          "type": "bool"
        }
      ],
      "stateMutability": "nonpayable",
      "type": "function"
    },
    {
      "inputs": [],
      "name": "getAllNFTs",
      "outputs": [
        {
          "components": [
            {
              "internalType": "uint256",
              "name": "id",
              "type": "uint256"
            },
            {
              "internalType": "address",
              "name": "owner",
              "type": "address"
            },
            {
              "internalType": "uint256",
              "name": "cost",
              "type": "uint256"
            },
            {
              "internalType": "string",
              "name": "title",
              "type": "string"
            },
            {
              "internalType": "string",
              "name": "description",
              "type": "string"
            },
            {
              "internalType": "string",
              "name": "metadataURI",
              "type": "string"
            },
            {
              "internalType": "uint256",
              "name": "timestamp",
              "type": "uint256"
            }
          ],
          "internalType": "struct Brand.TransactionStruct[]",
          "name": "",
          "type": "tuple[]"
        }
      ],
      "stateMutability": "view",
      "type": "function",
      "constant": true
    },
    {
      "inputs": [
        {
          "internalType": "uint256",
          "name": "id",
          "type": "uint256"
        }
      ],
      "name": "getNFT",
      "outputs": [
        {
          "components": [
            {
              "internalType": "uint256",
              "name": "id",
              "type": "uint256"
            },
            {
              "internalType": "address",
              "name": "owner",
              "type": "address"
            },
            {
              "internalType": "uint256",
              "name": "cost",
              "type": "uint256"
            },
            {
              "internalType": "string",
              "name": "title",
              "type": "string"
            },
            {
              "internalType": "string",
              "name": "description",
              "type": "string"
            },
            {
              "internalType": "string",
              "name": "metadataURI",
              "type": "string"
            },
            {
              "internalType": "uint256",
              "name": "timestamp",
              "type": "uint256"
            }
          ],
          "internalType": "struct Brand.TransactionStruct",
          "name": "",
          "type": "tuple"
        }
      ],
      "stateMutability": "view",
      "type": "function",
      "constant": true
    },
    {
      "inputs": [],
      "name": "getAllTransactions",
      "outputs": [
        {
          "components": [
            {
              "internalType": "uint256",
              "name": "id",
              "type": "uint256"
            },
            {
              "internalType": "address",
              "name": "owner",
              "type": "address"
            },
            {
              "internalType": "uint256",
              "name": "cost",
              "type": "uint256"
            },
            {
              "internalType": "string",
              "name": "title",
              "type": "string"
            },
            {
              "internalType": "string",
              "name": "description",
              "type": "string"
            },
            {
              "internalType": "string",
              "name": "metadataURI",
              "type": "string"
            },
            {
              "internalType": "uint256",
              "name": "timestamp",
              "type": "uint256"
            }
          ],
          "internalType": "struct Brand.TransactionStruct[]",
          "name": "",
          "type": "tuple[]"
        }
      ],
      "stateMutability": "view",
      "type": "function",
      "constant": true
    }
  ],
  "bytecode": "0x60806040526000600d556000600e55655af3107a4000600f553480156200002557600080fd5b50604051620058003803806200580083398181016040528101906200004b9190620002fc565b818181600090816200005e9190620005cc565b508060019081620000709190620005cc565b50505062000093620000876200009b60201b60201c565b620000a360201b60201c565b5050620006b3565b600033905090565b6000600a60009054906101000a900473ffffffffffffffffffffffffffffffffffffffff16905081600a60006101000a81548173ffffffffffffffffffffffffffffffffffffffff021916908373ffffffffffffffffffffffffffffffffffffffff1602179055508173ffffffffffffffffffffffffffffffffffffffff168173ffffffffffffffffffffffffffffffffffffffff167f8be0079c531659141344cd1fd0a4f28419497f9722a3daafe3b4186f6b6457e060405160405180910390a35050565b6000604051905090565b600080fd5b600080fd5b600080fd5b600080fd5b6000601f19601f8301169050919050565b7f4e487b7100000000000000000000000000000000000000000000000000000000600052604160045260246000fd5b620001d28262000187565b810181811067ffffffffffffffff82111715620001f457620001f362000198565b5b80604052505050565b60006200020962000169565b9050620002178282620001c7565b919050565b600067ffffffffffffffff8211156200023a576200023962000198565b5b620002458262000187565b9050602081019050919050565b60005b838110156200027257808201518184015260208101905062000255565b60008484015250505050565b6000620002956200028f846200021c565b620001fd565b905082815260208101848484011115620002b457620002b362000182565b5b620002c184828562000252565b509392505050565b600082601f830112620002e157620002e06200017d565b5b8151620002f38482602086016200027e565b91505092915050565b6000806040838503121562000316576200031562000173565b5b600083015167ffffffffffffffff81111562000337576200033662000178565b5b6200034585828601620002c9565b925050602083015167ffffffffffffffff81111562000369576200036862000178565b5b6200037785828601620002c9565b9150509250929050565b600081519050919050565b7f4e487b7100000000000000000000000000000000000000000000000000000000600052602260045260246000fd5b60006002820490506001821680620003d457607f821691505b602082108103620003ea57620003e96200038c565b5b50919050565b60008190508160005260206000209050919050565b60006020601f8301049050919050565b600082821b905092915050565b600060088302620004547fffffffffffffffffffffffffffffffffffffffffffffffffffffffffffffffff8262000415565b62000460868362000415565b95508019841693508086168417925050509392505050565b6000819050919050565b6000819050919050565b6000620004ad620004a7620004a18462000478565b62000482565b62000478565b9050919050565b6000819050919050565b620004c9836200048c565b620004e1620004d882620004b4565b84845462000422565b825550505050565b600090565b620004f8620004e9565b62000505818484620004be565b505050565b5b818110156200052d5762000521600082620004ee565b6001810190506200050b565b5050565b601f8211156200057c576200054681620003f0565b620005518462000405565b8101602085101562000561578190505b62000579620005708562000405565b8301826200050a565b50505b505050565b600082821c905092915050565b6000620005a16000198460080262000581565b1980831691505092915050565b6000620005bc83836200058e565b9150826002028217905092915050565b620005d78262000381565b67ffffffffffffffff811115620005f357620005f262000198565b5b620005ff8254620003bb565b6200060c82828562000531565b600060209050601f8311600181146200064457600084156200062f578287015190505b6200063b8582620005ae565b865550620006ab565b601f1984166200065486620003f0565b60005b828110156200067e5784890151825560018201915060208501945060208101905062000657565b868310156200069e57848901516200069a601f8916826200058e565b8355505b6001600288020188555050505b505050505050565b61513d80620006c36000396000f3fe6080604052600436106101c25760003560e01c806370a08231116100f7578063a6d8681811610095578063dbacc23711610064578063dbacc23714610660578063e0391b091461069d578063e985e9c5146106c8578063f2fde38b14610705576101c2565b8063a6d8681814610592578063b3de019c146105bd578063b88d4fde146105fa578063c87b56dd14610623576101c2565b80638da5cb5b116100d15780638da5cb5b146104f757806395d89b41146105225780639ba4b0171461054d578063a22cb46514610569576101c2565b806370a0823114610487578063715018a6146104c4578063799c0c1e146104db576101c2565b806323b872dd1161016457806342842e0e1161013e57806342842e0e146103a75780634f6ccce7146103d0578063576f7ea71461040d5780636352211e1461044a576101c2565b806323b872dd1461031657806327506f531461033f5780632f745c591461036a576101c2565b8063081812fc116101a0578063081812fc1461025a578063095ea7b31461029757806313faede6146102c057806318160ddd146102eb576101c2565b806301ffc9a7146101c7578063047fc9aa1461020457806306fdde031461022f575b600080fd5b3480156101d357600080fd5b506101ee60048036038101906101e99190613651565b61072e565b6040516101fb9190613699565b60405180910390f35b34801561021057600080fd5b506102196107a8565b60405161022691906136cd565b60405180910390f35b34801561023b57600080fd5b506102446107ae565b6040516102519190613778565b60405180910390f35b34801561026657600080fd5b50610281600480360381019061027c91906137c6565b610840565b60405161028e9190613834565b60405180910390f35b3480156102a357600080fd5b506102be60048036038101906102b9919061387b565b610886565b005b3480156102cc57600080fd5b506102d561099d565b6040516102e291906136cd565b60405180910390f35b3480156102f757600080fd5b506103006109a3565b60405161030d91906136cd565b60405180910390f35b34801561032257600080fd5b5061033d600480360381019061033891906138bb565b6109b0565b005b34801561034b57600080fd5b50610354610a10565b6040516103619190613ae2565b60405180910390f35b34801561037657600080fd5b50610391600480360381019061038c919061387b565b610c99565b60405161039e91906136cd565b60405180910390f35b3480156103b357600080fd5b506103ce60048036038101906103c991906138bb565b610d3e565b005b3480156103dc57600080fd5b506103f760048036038101906103f291906137c6565b610d5e565b60405161040491906136cd565b60405180910390f35b34801561041957600080fd5b50610434600480360381019061042f91906137c6565b610dcf565b6040516104419190613bae565b60405180910390f35b34801561045657600080fd5b50610471600480360381019061046c91906137c6565b611041565b60405161047e9190613834565b60405180910390f35b34801561049357600080fd5b506104ae60048036038101906104a99190613bd0565b6110c7565b6040516104bb91906136cd565b60405180910390f35b3480156104d057600080fd5b506104d961117e565b005b6104f560048036038101906104f09190613d32565b611192565b005b34801561050357600080fd5b5061050c6114f4565b6040516105199190613834565b60405180910390f35b34801561052e57600080fd5b5061053761151e565b6040516105449190613778565b60405180910390f35b610567600480360381019061056291906137c6565b6115b0565b005b34801561057557600080fd5b50610590600480360381019061058b9190613e19565b611b3e565b005b34801561059e57600080fd5b506105a7611b54565b6040516105b491906136cd565b60405180910390f35b3480156105c957600080fd5b506105e460048036038101906105df9190613e59565b611b5a565b6040516105f19190613699565b60405180910390f35b34801561060657600080fd5b50610621600480360381019061061c9190613f3a565b611c9d565b005b34801561062f57600080fd5b5061064a600480360381019061064591906137c6565b611cff565b6040516106579190613778565b60405180910390f35b34801561066c57600080fd5b50610687600480360381019061068291906137c6565b611d67565b6040516106949190613834565b60405180910390f35b3480156106a957600080fd5b506106b2611d9a565b6040516106bf9190613ae2565b60405180910390f35b3480156106d457600080fd5b506106ef60048036038101906106ea9190613fbd565b612023565b6040516106fc9190613699565b60405180910390f35b34801561071157600080fd5b5061072c60048036038101906107279190613bd0565b6120b7565b005b60007f780e9d63000000000000000000000000000000000000000000000000000000007bffffffffffffffffffffffffffffffffffffffffffffffffffffffff1916827bffffffffffffffffffffffffffffffffffffffffffffffffffffffff191614806107a157506107a08261213a565b5b9050919050565b600d5481565b6060600080546107bd9061402c565b80601f01602080910402602001604051908101604052809291908181526020018280546107e99061402c565b80156108365780601f1061080b57610100808354040283529160200191610836565b820191906000526020600020905b81548152906001019060200180831161081957829003601f168201915b5050505050905090565b600061084b8261221c565b6004600083815260200190815260200160002060009054906101000a900473ffffffffffffffffffffffffffffffffffffffff169050919050565b600061089182611041565b90508073ffffffffffffffffffffffffffffffffffffffff168373ffffffffffffffffffffffffffffffffffffffff1603610901576040517f08c379a00000000000000000000000000000000000000000000000000000000081526004016108f8906140cf565b60405180910390fd5b8073ffffffffffffffffffffffffffffffffffffffff16610920612267565b73ffffffffffffffffffffffffffffffffffffffff16148061094f575061094e81610949612267565b612023565b5b61098e576040517f08c379a000000000000000000000000000000000000000000000000000000000815260040161098590614161565b60405180910390fd5b610998838361226f565b505050565b600f5481565b6000600880549050905090565b6109c16109bb612267565b82612328565b610a00576040517f08c379a00000000000000000000000000000000000000000000000000000000081526004016109f7906141f3565b60405180910390fd5b610a0b8383836123bd565b505050565b60606010805480602002602001604051908101604052809291908181526020016000905b82821015610c9057838290600052602060002090600702016040518060e0016040529081600082015481526020016001820160009054906101000a900473ffffffffffffffffffffffffffffffffffffffff1673ffffffffffffffffffffffffffffffffffffffff1673ffffffffffffffffffffffffffffffffffffffff16815260200160028201548152602001600382018054610ad19061402c565b80601f0160208091040260200160405190810160405280929190818152602001828054610afd9061402c565b8015610b4a5780601f10610b1f57610100808354040283529160200191610b4a565b820191906000526020600020905b815481529060010190602001808311610b2d57829003601f168201915b50505050508152602001600482018054610b639061402c565b80601f0160208091040260200160405190810160405280929190818152602001828054610b8f9061402c565b8015610bdc5780601f10610bb157610100808354040283529160200191610bdc565b820191906000526020600020905b815481529060010190602001808311610bbf57829003601f168201915b50505050508152602001600582018054610bf59061402c565b80601f0160208091040260200160405190810160405280929190818152602001828054610c219061402c565b8015610c6e5780601f10610c4357610100808354040283529160200191610c6e565b820191906000526020600020905b815481529060010190602001808311610c5157829003601f168201915b5050505050815260200160068201548152505081526020019060010190610a34565b50505050905090565b6000610ca4836110c7565b8210610ce5576040517f08c379a0000000000000000000000000000000000000000000000000000000008152600401610cdc90614285565b60405180910390fd5b600660008473ffffffffffffffffffffffffffffffffffffffff1673ffffffffffffffffffffffffffffffffffffffff168152602001908152602001600020600083815260200190815260200160002054905092915050565b610d5983838360405180602001604052806000815250611c9d565b505050565b6000610d686109a3565b8210610da9576040517f08c379a0000000000000000000000000000000000000000000000000000000008152600401610da090614317565b60405180910390fd5b60088281548110610dbd57610dbc614337565b5b90600052602060002001549050919050565b610dd7613592565b6011600183610de69190614395565b81548110610df757610df6614337565b5b90600052602060002090600702016040518060e0016040529081600082015481526020016001820160009054906101000a900473ffffffffffffffffffffffffffffffffffffffff1673ffffffffffffffffffffffffffffffffffffffff1673ffffffffffffffffffffffffffffffffffffffff16815260200160028201548152602001600382018054610e8a9061402c565b80601f0160208091040260200160405190810160405280929190818152602001828054610eb69061402c565b8015610f035780601f10610ed857610100808354040283529160200191610f03565b820191906000526020600020905b815481529060010190602001808311610ee657829003601f168201915b50505050508152602001600482018054610f1c9061402c565b80601f0160208091040260200160405190810160405280929190818152602001828054610f489061402c565b8015610f955780601f10610f6a57610100808354040283529160200191610f95565b820191906000526020600020905b815481529060010190602001808311610f7857829003601f168201915b50505050508152602001600582018054610fae9061402c565b80601f0160208091040260200160405190810160405280929190818152602001828054610fda9061402c565b80156110275780601f10610ffc57610100808354040283529160200191611027565b820191906000526020600020905b81548152906001019060200180831161100a57829003601f168201915b505050505081526020016006820154815250509050919050565b60008061104d836126b6565b9050600073ffffffffffffffffffffffffffffffffffffffff168173ffffffffffffffffffffffffffffffffffffffff16036110be576040517f08c379a00000000000000000000000000000000000000000000000000000000081526004016110b590614415565b60405180910390fd5b80915050919050565b60008073ffffffffffffffffffffffffffffffffffffffff168273ffffffffffffffffffffffffffffffffffffffff1603611137576040517f08c379a000000000000000000000000000000000000000000000000000000000815260040161112e906144a7565b60405180910390fd5b600360008373ffffffffffffffffffffffffffffffffffffffff1673ffffffffffffffffffffffffffffffffffffffff168152602001908152602001600020549050919050565b6111866126f3565b6111906000612771565b565b600f543410156111a134612837565b906111e2576040517f08c379a00000000000000000000000000000000000000000000000000000000081526004016111d99190613778565b60405180910390fd5b506000600b836040516111f59190614503565b908152602001604051809103902060009054906101000a900460ff1660ff1614611254576040517f08c379a000000000000000000000000000000000000000000000000000000000815260040161124b90614566565b60405180910390fd5b61125c6114f4565b73ffffffffffffffffffffffffffffffffffffffff163373ffffffffffffffffffffffffffffffffffffffff16036112c9576040517f08c379a00000000000000000000000000000000000000000000000000000000081526004016112c0906145d2565b60405180910390fd5b600d60008154809291906112dc906145f2565b919050555060116040518060e00160405280600d5481526020013373ffffffffffffffffffffffffffffffffffffffff1681526020018381526020018681526020018581526020018481526020014281525090806001815401808255809150506001900390600052602060002090600702016000909190919091506000820151816000015560208201518160010160006101000a81548173ffffffffffffffffffffffffffffffffffffffff021916908373ffffffffffffffffffffffffffffffffffffffff1602179055506040820151816002015560608201518160030190816113c791906147e6565b5060808201518160040190816113dd91906147e6565b5060a08201518160050190816113f391906147e6565b5060c0820151816006015550503373ffffffffffffffffffffffffffffffffffffffff167fb9508407a6eccb191d8da3286f4173697cf95604e9ea192fe5ab7c862b5221f6600d5434854260405161144e94939291906148b8565b60405180910390a261146233600d54612905565b6001600b836040516114749190614503565b908152602001604051809103902060006101000a81548160ff021916908360ff16021790555033600c6000600d54815260200190815260200160002060006101000a81548173ffffffffffffffffffffffffffffffffffffffff021916908373ffffffffffffffffffffffffffffffffffffffff16021790555050505050565b6000600a60009054906101000a900473ffffffffffffffffffffffffffffffffffffffff16905090565b60606001805461152d9061402c565b80601f01602080910402602001604051908101604052809291908181526020018280546115599061402c565b80156115a65780601f1061157b576101008083540402835291602001916115a6565b820191906000526020600020905b81548152906001019060200180831161158957829003601f168201915b5050505050905090565b60116001826115bf9190614395565b815481106115d0576115cf614337565b5b906000526020600020906007020160020154341015611624576040517f08c379a000000000000000000000000000000000000000000000000000000000815260040161161b90614950565b60405180910390fd5b60116001826116339190614395565b8154811061164457611643614337565b5b906000526020600020906007020160010160009054906101000a900473ffffffffffffffffffffffffffffffffffffffff1673ffffffffffffffffffffffffffffffffffffffff163373ffffffffffffffffffffffffffffffffffffffff16036116e3576040517f08c379a00000000000000000000000000000000000000000000000000000000081526004016116da906149bc565b60405180910390fd5b600e60008154809291906116f6906145f2565b919050555060106040518060e00160405280600e5481526020013373ffffffffffffffffffffffffffffffffffffffff16815260200134815260200160116001856117419190614395565b8154811061175257611751614337565b5b9060005260206000209060070201600301805461176e9061402c565b80601f016020809104026020016040519081016040528092919081815260200182805461179a9061402c565b80156117e75780601f106117bc576101008083540402835291602001916117e7565b820191906000526020600020905b8154815290600101906020018083116117ca57829003601f168201915b5050505050815260200160116001856118009190614395565b8154811061181157611810614337565b5b9060005260206000209060070201600401805461182d9061402c565b80601f01602080910402602001604051908101604052809291908181526020018280546118599061402c565b80156118a65780601f1061187b576101008083540402835291602001916118a6565b820191906000526020600020905b81548152906001019060200180831161188957829003601f168201915b5050505050815260200160116001856118bf9190614395565b815481106118d0576118cf614337565b5b906000526020600020906007020160050180546118ec9061402c565b80601f01602080910402602001604051908101604052809291908181526020018280546119189061402c565b80156119655780601f1061193a57610100808354040283529160200191611965565b820191906000526020600020905b81548152906001019060200180831161194857829003601f168201915b505050505081526020014281525090806001815401808255809150506001900390600052602060002090600702016000909190919091506000820151816000015560208201518160010160006101000a81548173ffffffffffffffffffffffffffffffffffffffff021916908373ffffffffffffffffffffffffffffffffffffffff160217905550604082015181600201556060820151816003019081611a0c91906147e6565b506080820151816004019081611a2291906147e6565b5060a0820151816005019081611a3891906147e6565b5060c0820151816006015550503373ffffffffffffffffffffffffffffffffffffffff167fb9508407a6eccb191d8da3286f4173697cf95604e9ea192fe5ab7c862b5221f6600e54346011600186611a909190614395565b81548110611aa157611aa0614337565b5b906000526020600020906007020160050142604051611ac39493929190614a60565b60405180910390a2336011600183611adb9190614395565b81548110611aec57611aeb614337565b5b906000526020600020906007020160010160006101000a81548173ffffffffffffffffffffffffffffffffffffffff021916908373ffffffffffffffffffffffffffffffffffffffff16021790555050565b611b50611b49612267565b8383612923565b5050565b600e5481565b6000808211611b9e576040517f08c379a0000000000000000000000000000000000000000000000000000000008152600401611b9590614af8565b60405180910390fd5b6011600184611bad9190614395565b81548110611bbe57611bbd614337565b5b906000526020600020906007020160010160009054906101000a900473ffffffffffffffffffffffffffffffffffffffff1673ffffffffffffffffffffffffffffffffffffffff163373ffffffffffffffffffffffffffffffffffffffff1614611c5d576040517f08c379a0000000000000000000000000000000000000000000000000000000008152600401611c54906149bc565b60405180910390fd5b816011600185611c6d9190614395565b81548110611c7e57611c7d614337565b5b9060005260206000209060070201600201819055506001905092915050565b611cae611ca8612267565b83612328565b611ced576040517f08c379a0000000000000000000000000000000000000000000000000000000008152600401611ce4906141f3565b60405180910390fd5b611cf984848484612a8f565b50505050565b6060611d0a8261221c565b6000611d14612aeb565b90506000815111611d345760405180602001604052806000815250611d5f565b80611d3e84612837565b604051602001611d4f929190614b18565b6040516020818303038152906040525b915050919050565b600c6020528060005260406000206000915054906101000a900473ffffffffffffffffffffffffffffffffffffffff1681565b60606011805480602002602001604051908101604052809291908181526020016000905b8282101561201a57838290600052602060002090600702016040518060e0016040529081600082015481526020016001820160009054906101000a900473ffffffffffffffffffffffffffffffffffffffff1673ffffffffffffffffffffffffffffffffffffffff1673ffffffffffffffffffffffffffffffffffffffff16815260200160028201548152602001600382018054611e5b9061402c565b80601f0160208091040260200160405190810160405280929190818152602001828054611e879061402c565b8015611ed45780601f10611ea957610100808354040283529160200191611ed4565b820191906000526020600020905b815481529060010190602001808311611eb757829003601f168201915b50505050508152602001600482018054611eed9061402c565b80601f0160208091040260200160405190810160405280929190818152602001828054611f199061402c565b8015611f665780601f10611f3b57610100808354040283529160200191611f66565b820191906000526020600020905b815481529060010190602001808311611f4957829003601f168201915b50505050508152602001600582018054611f7f9061402c565b80601f0160208091040260200160405190810160405280929190818152602001828054611fab9061402c565b8015611ff85780601f10611fcd57610100808354040283529160200191611ff8565b820191906000526020600020905b815481529060010190602001808311611fdb57829003601f168201915b5050505050815260200160068201548152505081526020019060010190611dbe565b50505050905090565b6000600560008473ffffffffffffffffffffffffffffffffffffffff1673ffffffffffffffffffffffffffffffffffffffff16815260200190815260200160002060008373ffffffffffffffffffffffffffffffffffffffff1673ffffffffffffffffffffffffffffffffffffffff16815260200190815260200160002060009054906101000a900460ff16905092915050565b6120bf6126f3565b600073ffffffffffffffffffffffffffffffffffffffff168173ffffffffffffffffffffffffffffffffffffffff160361212e576040517f08c379a000000000000000000000000000000000000000000000000000000000815260040161212590614bae565b60405180910390fd5b61213781612771565b50565b60007f80ac58cd000000000000000000000000000000000000000000000000000000007bffffffffffffffffffffffffffffffffffffffffffffffffffffffff1916827bffffffffffffffffffffffffffffffffffffffffffffffffffffffff1916148061220557507f5b5e139f000000000000000000000000000000000000000000000000000000007bffffffffffffffffffffffffffffffffffffffffffffffffffffffff1916827bffffffffffffffffffffffffffffffffffffffffffffffffffffffff1916145b80612215575061221482612b02565b5b9050919050565b61222581612b6c565b612264576040517f08c379a000000000000000000000000000000000000000000000000000000000815260040161225b90614415565b60405180910390fd5b50565b600033905090565b816004600083815260200190815260200160002060006101000a81548173ffffffffffffffffffffffffffffffffffffffff021916908373ffffffffffffffffffffffffffffffffffffffff160217905550808273ffffffffffffffffffffffffffffffffffffffff166122e283611041565b73ffffffffffffffffffffffffffffffffffffffff167f8c5be1e5ebec7d5bd14f71427d1e84f3dd0314c0f7b2291e5b200ac8c7c3b92560405160405180910390a45050565b60008061233483611041565b90508073ffffffffffffffffffffffffffffffffffffffff168473ffffffffffffffffffffffffffffffffffffffff16148061237657506123758185612023565b5b806123b457508373ffffffffffffffffffffffffffffffffffffffff1661239c84610840565b73ffffffffffffffffffffffffffffffffffffffff16145b91505092915050565b8273ffffffffffffffffffffffffffffffffffffffff166123dd82611041565b73ffffffffffffffffffffffffffffffffffffffff1614612433576040517f08c379a000000000000000000000000000000000000000000000000000000000815260040161242a90614c40565b60405180910390fd5b600073ffffffffffffffffffffffffffffffffffffffff168273ffffffffffffffffffffffffffffffffffffffff16036124a2576040517f08c379a000000000000000000000000000000000000000000000000000000000815260040161249990614cd2565b60405180910390fd5b6124af8383836001612bad565b8273ffffffffffffffffffffffffffffffffffffffff166124cf82611041565b73ffffffffffffffffffffffffffffffffffffffff1614612525576040517f08c379a000000000000000000000000000000000000000000000000000000000815260040161251c90614c40565b60405180910390fd5b6004600082815260200190815260200160002060006101000a81549073ffffffffffffffffffffffffffffffffffffffff02191690556001600360008573ffffffffffffffffffffffffffffffffffffffff1673ffffffffffffffffffffffffffffffffffffffff168152602001908152602001600020600082825403925050819055506001600360008473ffffffffffffffffffffffffffffffffffffffff1673ffffffffffffffffffffffffffffffffffffffff16815260200190815260200160002060008282540192505081905550816002600083815260200190815260200160002060006101000a81548173ffffffffffffffffffffffffffffffffffffffff021916908373ffffffffffffffffffffffffffffffffffffffff160217905550808273ffffffffffffffffffffffffffffffffffffffff168473ffffffffffffffffffffffffffffffffffffffff167fddf252ad1be2c89b69c2b068fc378daa952ba7f163c4a11628f55a4df523b3ef60405160405180910390a46126b18383836001612d0b565b505050565b60006002600083815260200190815260200160002060009054906101000a900473ffffffffffffffffffffffffffffffffffffffff169050919050565b6126fb612267565b73ffffffffffffffffffffffffffffffffffffffff166127196114f4565b73ffffffffffffffffffffffffffffffffffffffff161461276f576040517f08c379a000000000000000000000000000000000000000000000000000000000815260040161276690614d3e565b60405180910390fd5b565b6000600a60009054906101000a900473ffffffffffffffffffffffffffffffffffffffff16905081600a60006101000a81548173ffffffffffffffffffffffffffffffffffffffff021916908373ffffffffffffffffffffffffffffffffffffffff1602179055508173ffffffffffffffffffffffffffffffffffffffff168173ffffffffffffffffffffffffffffffffffffffff167f8be0079c531659141344cd1fd0a4f28419497f9722a3daafe3b4186f6b6457e060405160405180910390a35050565b60606000600161284684612d11565b01905060008167ffffffffffffffff81111561286557612864613c07565b5b6040519080825280601f01601f1916602001820160405280156128975781602001600182028036833780820191505090505b509050600082602001820190505b6001156128fa578080600190039150507f3031323334353637383961626364656600000000000000000000000000000000600a86061a8153600a85816128ee576128ed614d5e565b5b049450600085036128a5575b819350505050919050565b61291f828260405180602001604052806000815250612e64565b5050565b8173ffffffffffffffffffffffffffffffffffffffff168373ffffffffffffffffffffffffffffffffffffffff1603612991576040517f08c379a000000000000000000000000000000000000000000000000000000000815260040161298890614dd9565b60405180910390fd5b80600560008573ffffffffffffffffffffffffffffffffffffffff1673ffffffffffffffffffffffffffffffffffffffff16815260200190815260200160002060008473ffffffffffffffffffffffffffffffffffffffff1673ffffffffffffffffffffffffffffffffffffffff16815260200190815260200160002060006101000a81548160ff0219169083151502179055508173ffffffffffffffffffffffffffffffffffffffff168373ffffffffffffffffffffffffffffffffffffffff167f17307eab39ab6107e8899845ad3d59bd9653f200f220920489ca2b5937696c3183604051612a829190613699565b60405180910390a3505050565b612a9a8484846123bd565b612aa684848484612ebf565b612ae5576040517f08c379a0000000000000000000000000000000000000000000000000000000008152600401612adc90614e6b565b60405180910390fd5b50505050565b606060405180602001604052806000815250905090565b60007f01ffc9a7000000000000000000000000000000000000000000000000000000007bffffffffffffffffffffffffffffffffffffffffffffffffffffffff1916827bffffffffffffffffffffffffffffffffffffffffffffffffffffffff1916149050919050565b60008073ffffffffffffffffffffffffffffffffffffffff16612b8e836126b6565b73ffffffffffffffffffffffffffffffffffffffff1614159050919050565b612bb984848484613046565b6001811115612bfd576040517f08c379a0000000000000000000000000000000000000000000000000000000008152600401612bf490614efd565b60405180910390fd5b6000829050600073ffffffffffffffffffffffffffffffffffffffff168573ffffffffffffffffffffffffffffffffffffffff1603612c4457612c3f8161304c565b612c83565b8373ffffffffffffffffffffffffffffffffffffffff168573ffffffffffffffffffffffffffffffffffffffff1614612c8257612c818582613095565b5b5b600073ffffffffffffffffffffffffffffffffffffffff168473ffffffffffffffffffffffffffffffffffffffff1603612cc557612cc081613202565b612d04565b8473ffffffffffffffffffffffffffffffffffffffff168473ffffffffffffffffffffffffffffffffffffffff1614612d0357612d0284826132d3565b5b5b5050505050565b50505050565b600080600090507a184f03e93ff9f4daa797ed6e38ed64bf6a1f0100000000000000008310612d6f577a184f03e93ff9f4daa797ed6e38ed64bf6a1f0100000000000000008381612d6557612d64614d5e565b5b0492506040810190505b6d04ee2d6d415b85acef81000000008310612dac576d04ee2d6d415b85acef81000000008381612da257612da1614d5e565b5b0492506020810190505b662386f26fc100008310612ddb57662386f26fc100008381612dd157612dd0614d5e565b5b0492506010810190505b6305f5e1008310612e04576305f5e1008381612dfa57612df9614d5e565b5b0492506008810190505b6127108310612e29576127108381612e1f57612e1e614d5e565b5b0492506004810190505b60648310612e4c5760648381612e4257612e41614d5e565b5b0492506002810190505b600a8310612e5b576001810190505b80915050919050565b612e6e8383613352565b612e7b6000848484612ebf565b612eba576040517f08c379a0000000000000000000000000000000000000000000000000000000008152600401612eb190614e6b565b60405180910390fd5b505050565b6000612ee08473ffffffffffffffffffffffffffffffffffffffff1661356f565b15613039578373ffffffffffffffffffffffffffffffffffffffff1663150b7a02612f09612267565b8786866040518563ffffffff1660e01b8152600401612f2b9493929190614f72565b6020604051808303816000875af1925050508015612f6757506040513d601f19601f82011682018060405250810190612f649190614fd3565b60015b612fe9573d8060008114612f97576040519150601f19603f3d011682016040523d82523d6000602084013e612f9c565b606091505b506000815103612fe1576040517f08c379a0000000000000000000000000000000000000000000000000000000008152600401612fd890614e6b565b60405180910390fd5b805181602001fd5b63150b7a0260e01b7bffffffffffffffffffffffffffffffffffffffffffffffffffffffff1916817bffffffffffffffffffffffffffffffffffffffffffffffffffffffff19161491505061303e565b600190505b949350505050565b50505050565b6008805490506009600083815260200190815260200160002081905550600881908060018154018082558091505060019003906000526020600020016000909190919091505550565b600060016130a2846110c7565b6130ac9190614395565b9050600060076000848152602001908152602001600020549050818114613191576000600660008673ffffffffffffffffffffffffffffffffffffffff1673ffffffffffffffffffffffffffffffffffffffff168152602001908152602001600020600084815260200190815260200160002054905080600660008773ffffffffffffffffffffffffffffffffffffffff1673ffffffffffffffffffffffffffffffffffffffff168152602001908152602001600020600084815260200190815260200160002081905550816007600083815260200190815260200160002081905550505b6007600084815260200190815260200160002060009055600660008573ffffffffffffffffffffffffffffffffffffffff1673ffffffffffffffffffffffffffffffffffffffff16815260200190815260200160002060008381526020019081526020016000206000905550505050565b600060016008805490506132169190614395565b905060006009600084815260200190815260200160002054905060006008838154811061324657613245614337565b5b90600052602060002001549050806008838154811061326857613267614337565b5b9060005260206000200181905550816009600083815260200190815260200160002081905550600960008581526020019081526020016000206000905560088054806132b7576132b6615000565b5b6001900381819060005260206000200160009055905550505050565b60006132de836110c7565b905081600660008573ffffffffffffffffffffffffffffffffffffffff1673ffffffffffffffffffffffffffffffffffffffff168152602001908152602001600020600083815260200190815260200160002081905550806007600084815260200190815260200160002081905550505050565b600073ffffffffffffffffffffffffffffffffffffffff168273ffffffffffffffffffffffffffffffffffffffff16036133c1576040517f08c379a00000000000000000000000000000000000000000000000000000000081526004016133b89061507b565b60405180910390fd5b6133ca81612b6c565b1561340a576040517f08c379a0000000000000000000000000000000000000000000000000000000008152600401613401906150e7565b60405180910390fd5b613418600083836001612bad565b61342181612b6c565b15613461576040517f08c379a0000000000000000000000000000000000000000000000000000000008152600401613458906150e7565b60405180910390fd5b6001600360008473ffffffffffffffffffffffffffffffffffffffff1673ffffffffffffffffffffffffffffffffffffffff16815260200190815260200160002060008282540192505081905550816002600083815260200190815260200160002060006101000a81548173ffffffffffffffffffffffffffffffffffffffff021916908373ffffffffffffffffffffffffffffffffffffffff160217905550808273ffffffffffffffffffffffffffffffffffffffff16600073ffffffffffffffffffffffffffffffffffffffff167fddf252ad1be2c89b69c2b068fc378daa952ba7f163c4a11628f55a4df523b3ef60405160405180910390a461356b600083836001612d0b565b5050565b6000808273ffffffffffffffffffffffffffffffffffffffff163b119050919050565b6040518060e0016040528060008152602001600073ffffffffffffffffffffffffffffffffffffffff16815260200160008152602001606081526020016060815260200160608152602001600081525090565b6000604051905090565b600080fd5b600080fd5b60007fffffffff0000000000000000000000000000000000000000000000000000000082169050919050565b61362e816135f9565b811461363957600080fd5b50565b60008135905061364b81613625565b92915050565b600060208284031215613667576136666135ef565b5b60006136758482850161363c565b91505092915050565b60008115159050919050565b6136938161367e565b82525050565b60006020820190506136ae600083018461368a565b92915050565b6000819050919050565b6136c7816136b4565b82525050565b60006020820190506136e260008301846136be565b92915050565b600081519050919050565b600082825260208201905092915050565b60005b83811015613722578082015181840152602081019050613707565b60008484015250505050565b6000601f19601f8301169050919050565b600061374a826136e8565b61375481856136f3565b9350613764818560208601613704565b61376d8161372e565b840191505092915050565b60006020820190508181036000830152613792818461373f565b905092915050565b6137a3816136b4565b81146137ae57600080fd5b50565b6000813590506137c08161379a565b92915050565b6000602082840312156137dc576137db6135ef565b5b60006137ea848285016137b1565b91505092915050565b600073ffffffffffffffffffffffffffffffffffffffff82169050919050565b600061381e826137f3565b9050919050565b61382e81613813565b82525050565b60006020820190506138496000830184613825565b92915050565b61385881613813565b811461386357600080fd5b50565b6000813590506138758161384f565b92915050565b60008060408385031215613892576138916135ef565b5b60006138a085828601613866565b92505060206138b1858286016137b1565b9150509250929050565b6000806000606084860312156138d4576138d36135ef565b5b60006138e286828701613866565b93505060206138f386828701613866565b9250506040613904868287016137b1565b9150509250925092565b600081519050919050565b600082825260208201905092915050565b6000819050602082019050919050565b613943816136b4565b82525050565b61395281613813565b82525050565b600082825260208201905092915050565b6000613974826136e8565b61397e8185613958565b935061398e818560208601613704565b6139978161372e565b840191505092915050565b600060e0830160008301516139ba600086018261393a565b5060208301516139cd6020860182613949565b5060408301516139e0604086018261393a565b50606083015184820360608601526139f88282613969565b91505060808301518482036080860152613a128282613969565b91505060a083015184820360a0860152613a2c8282613969565b91505060c0830151613a4160c086018261393a565b508091505092915050565b6000613a5883836139a2565b905092915050565b6000602082019050919050565b6000613a788261390e565b613a828185613919565b935083602082028501613a948561392a565b8060005b85811015613ad05784840389528151613ab18582613a4c565b9450613abc83613a60565b925060208a01995050600181019050613a98565b50829750879550505050505092915050565b60006020820190508181036000830152613afc8184613a6d565b905092915050565b600060e083016000830151613b1c600086018261393a565b506020830151613b2f6020860182613949565b506040830151613b42604086018261393a565b5060608301518482036060860152613b5a8282613969565b91505060808301518482036080860152613b748282613969565b91505060a083015184820360a0860152613b8e8282613969565b91505060c0830151613ba360c086018261393a565b508091505092915050565b60006020820190508181036000830152613bc88184613b04565b905092915050565b600060208284031215613be657613be56135ef565b5b6000613bf484828501613866565b91505092915050565b600080fd5b600080fd5b7f4e487b7100000000000000000000000000000000000000000000000000000000600052604160045260246000fd5b613c3f8261372e565b810181811067ffffffffffffffff82111715613c5e57613c5d613c07565b5b80604052505050565b6000613c716135e5565b9050613c7d8282613c36565b919050565b600067ffffffffffffffff821115613c9d57613c9c613c07565b5b613ca68261372e565b9050602081019050919050565b82818337600083830152505050565b6000613cd5613cd084613c82565b613c67565b905082815260208101848484011115613cf157613cf0613c02565b5b613cfc848285613cb3565b509392505050565b600082601f830112613d1957613d18613bfd565b5b8135613d29848260208601613cc2565b91505092915050565b60008060008060808587031215613d4c57613d4b6135ef565b5b600085013567ffffffffffffffff811115613d6a57613d696135f4565b5b613d7687828801613d04565b945050602085013567ffffffffffffffff811115613d9757613d966135f4565b5b613da387828801613d04565b935050604085013567ffffffffffffffff811115613dc457613dc36135f4565b5b613dd087828801613d04565b9250506060613de1878288016137b1565b91505092959194509250565b613df68161367e565b8114613e0157600080fd5b50565b600081359050613e1381613ded565b92915050565b60008060408385031215613e3057613e2f6135ef565b5b6000613e3e85828601613866565b9250506020613e4f85828601613e04565b9150509250929050565b60008060408385031215613e7057613e6f6135ef565b5b6000613e7e858286016137b1565b9250506020613e8f858286016137b1565b9150509250929050565b600067ffffffffffffffff821115613eb457613eb3613c07565b5b613ebd8261372e565b9050602081019050919050565b6000613edd613ed884613e99565b613c67565b905082815260208101848484011115613ef957613ef8613c02565b5b613f04848285613cb3565b509392505050565b600082601f830112613f2157613f20613bfd565b5b8135613f31848260208601613eca565b91505092915050565b60008060008060808587031215613f5457613f536135ef565b5b6000613f6287828801613866565b9450506020613f7387828801613866565b9350506040613f84878288016137b1565b925050606085013567ffffffffffffffff811115613fa557613fa46135f4565b5b613fb187828801613f0c565b91505092959194509250565b60008060408385031215613fd457613fd36135ef565b5b6000613fe285828601613866565b9250506020613ff385828601613866565b9150509250929050565b7f4e487b7100000000000000000000000000000000000000000000000000000000600052602260045260246000fd5b6000600282049050600182168061404457607f821691505b60208210810361405757614056613ffd565b5b50919050565b7f4552433732313a20617070726f76616c20746f2063757272656e74206f776e6560008201527f7200000000000000000000000000000000000000000000000000000000000000602082015250565b60006140b96021836136f3565b91506140c48261405d565b604082019050919050565b600060208201905081810360008301526140e8816140ac565b9050919050565b7f4552433732313a20617070726f76652063616c6c6572206973206e6f7420746f60008201527f6b656e206f776e6572206f7220617070726f76656420666f7220616c6c000000602082015250565b600061414b603d836136f3565b9150614156826140ef565b604082019050919050565b6000602082019050818103600083015261417a8161413e565b9050919050565b7f4552433732313a2063616c6c6572206973206e6f7420746f6b656e206f776e6560008201527f72206f7220617070726f76656400000000000000000000000000000000000000602082015250565b60006141dd602d836136f3565b91506141e882614181565b604082019050919050565b6000602082019050818103600083015261420c816141d0565b9050919050565b7f455243373231456e756d657261626c653a206f776e657220696e646578206f7560008201527f74206f6620626f756e6473000000000000000000000000000000000000000000602082015250565b600061426f602b836136f3565b915061427a82614213565b604082019050919050565b6000602082019050818103600083015261429e81614262565b9050919050565b7f455243373231456e756d657261626c653a20676c6f62616c20696e646578206f60008201527f7574206f6620626f756e64730000000000000000000000000000000000000000602082015250565b6000614301602c836136f3565b915061430c826142a5565b604082019050919050565b60006020820190508181036000830152614330816142f4565b9050919050565b7f4e487b7100000000000000000000000000000000000000000000000000000000600052603260045260246000fd5b7f4e487b7100000000000000000000000000000000000000000000000000000000600052601160045260246000fd5b60006143a0826136b4565b91506143ab836136b4565b92508282039050818111156143c3576143c2614366565b5b92915050565b7f4552433732313a20696e76616c696420746f6b656e2049440000000000000000600082015250565b60006143ff6018836136f3565b915061440a826143c9565b602082019050919050565b6000602082019050818103600083015261442e816143f2565b9050919050565b7f4552433732313a2061646472657373207a65726f206973206e6f74206120766160008201527f6c6964206f776e65720000000000000000000000000000000000000000000000602082015250565b60006144916029836136f3565b915061449c82614435565b604082019050919050565b600060208201905081810360008301526144c081614484565b9050919050565b600081905092915050565b60006144dd826136e8565b6144e781856144c7565b93506144f7818560208601613704565b80840191505092915050565b600061450f82846144d2565b915081905092915050565b7f54686973204e465420697320616c7265616479206d696e746564210000000000600082015250565b6000614550601b836136f3565b915061455b8261451a565b602082019050919050565b6000602082019050818103600083015261457f81614543565b9050919050565b7f53616c6573206e6f7420616c6c6f776564210000000000000000000000000000600082015250565b60006145bc6012836136f3565b91506145c782614586565b602082019050919050565b600060208201905081810360008301526145eb816145af565b9050919050565b60006145fd826136b4565b91507fffffffffffffffffffffffffffffffffffffffffffffffffffffffffffffffff820361462f5761462e614366565b5b600182019050919050565b60008190508160005260206000209050919050565b60006020601f8301049050919050565b600082821b905092915050565b60006008830261469c7fffffffffffffffffffffffffffffffffffffffffffffffffffffffffffffffff8261465f565b6146a6868361465f565b95508019841693508086168417925050509392505050565b6000819050919050565b60006146e36146de6146d9846136b4565b6146be565b6136b4565b9050919050565b6000819050919050565b6146fd836146c8565b614711614709826146ea565b84845461466c565b825550505050565b600090565b614726614719565b6147318184846146f4565b505050565b5b818110156147555761474a60008261471e565b600181019050614737565b5050565b601f82111561479a5761476b8161463a565b6147748461464f565b81016020851015614783578190505b61479761478f8561464f565b830182614736565b50505b505050565b600082821c905092915050565b60006147bd6000198460080261479f565b1980831691505092915050565b60006147d683836147ac565b9150826002028217905092915050565b6147ef826136e8565b67ffffffffffffffff81111561480857614807613c07565b5b614812825461402c565b61481d828285614759565b600060209050601f831160018114614850576000841561483e578287015190505b61484885826147ca565b8655506148b0565b601f19841661485e8661463a565b60005b8281101561488657848901518255600182019150602085019450602081019050614861565b868310156148a3578489015161489f601f8916826147ac565b8355505b6001600288020188555050505b505050505050565b60006080820190506148cd60008301876136be565b6148da60208301866136be565b81810360408301526148ec818561373f565b90506148fb60608301846136be565b95945050505050565b7f457468657220746f6f206c6f7720666f72207075726368617365210000000000600082015250565b600061493a601b836136f3565b915061494582614904565b602082019050919050565b600060208201905081810360008301526149698161492d565b9050919050565b7f4f7065726174696f6e204e6f7420416c6c6f7765642100000000000000000000600082015250565b60006149a66016836136f3565b91506149b182614970565b602082019050919050565b600060208201905081810360008301526149d581614999565b9050919050565b600081546149e98161402c565b6149f381866136f3565b94506001821660008114614a0e5760018114614a2457614a57565b60ff198316865281151560200286019350614a57565b614a2d8561463a565b60005b83811015614a4f57815481890152600182019150602081019050614a30565b808801955050505b50505092915050565b6000608082019050614a7560008301876136be565b614a8260208301866136be565b8181036040830152614a9481856149dc565b9050614aa360608301846136be565b95945050505050565b7f457468657220746f6f206c6f7721000000000000000000000000000000000000600082015250565b6000614ae2600e836136f3565b9150614aed82614aac565b602082019050919050565b60006020820190508181036000830152614b1181614ad5565b9050919050565b6000614b2482856144d2565b9150614b3082846144d2565b91508190509392505050565b7f4f776e61626c653a206e6577206f776e657220697320746865207a65726f206160008201527f6464726573730000000000000000000000000000000000000000000000000000602082015250565b6000614b986026836136f3565b9150614ba382614b3c565b604082019050919050565b60006020820190508181036000830152614bc781614b8b565b9050919050565b7f4552433732313a207472616e736665722066726f6d20696e636f72726563742060008201527f6f776e6572000000000000000000000000000000000000000000000000000000602082015250565b6000614c2a6025836136f3565b9150614c3582614bce565b604082019050919050565b60006020820190508181036000830152614c5981614c1d565b9050919050565b7f4552433732313a207472616e7366657220746f20746865207a65726f2061646460008201527f7265737300000000000000000000000000000000000000000000000000000000602082015250565b6000614cbc6024836136f3565b9150614cc782614c60565b604082019050919050565b60006020820190508181036000830152614ceb81614caf565b9050919050565b7f4f776e61626c653a2063616c6c6572206973206e6f7420746865206f776e6572600082015250565b6000614d286020836136f3565b9150614d3382614cf2565b602082019050919050565b60006020820190508181036000830152614d5781614d1b565b9050919050565b7f4e487b7100000000000000000000000000000000000000000000000000000000600052601260045260246000fd5b7f4552433732313a20617070726f766520746f2063616c6c657200000000000000600082015250565b6000614dc36019836136f3565b9150614dce82614d8d565b602082019050919050565b60006020820190508181036000830152614df281614db6565b9050919050565b7f4552433732313a207472616e7366657220746f206e6f6e20455243373231526560008201527f63656976657220696d706c656d656e7465720000000000000000000000000000602082015250565b6000614e556032836136f3565b9150614e6082614df9565b604082019050919050565b60006020820190508181036000830152614e8481614e48565b9050919050565b7f455243373231456e756d657261626c653a20636f6e736563757469766520747260008201527f616e7366657273206e6f7420737570706f727465640000000000000000000000602082015250565b6000614ee76035836136f3565b9150614ef282614e8b565b604082019050919050565b60006020820190508181036000830152614f1681614eda565b9050919050565b600081519050919050565b600082825260208201905092915050565b6000614f4482614f1d565b614f4e8185614f28565b9350614f5e818560208601613704565b614f678161372e565b840191505092915050565b6000608082019050614f876000830187613825565b614f946020830186613825565b614fa160408301856136be565b8181036060830152614fb38184614f39565b905095945050505050565b600081519050614fcd81613625565b92915050565b600060208284031215614fe957614fe86135ef565b5b6000614ff784828501614fbe565b91505092915050565b7f4e487b7100000000000000000000000000000000000000000000000000000000600052603160045260246000fd5b7f4552433732313a206d696e7420746f20746865207a65726f2061646472657373600082015250565b60006150656020836136f3565b91506150708261502f565b602082019050919050565b6000602082019050818103600083015261509481615058565b9050919050565b7f4552433732313a20746f6b656e20616c7265616479206d696e74656400000000600082015250565b60006150d1601c836136f3565b91506150dc8261509b565b602082019050919050565b60006020820190508181036000830152615100816150c4565b905091905056fea264697066735822122073c3b185e644de0caf3182a2a0e09296b4fd58c3875f10bf7dda4f7ddacf58d564736f6c63430008130033",
  "immutableReferences": {},
  "source": "// SPDX-License-Identifier: MIT\npragma solidity >=0.4.22 <0.9.0;\n\n\nimport \"@openzeppelin/contracts/token/ERC721/ERC721.sol\";\nimport \"@openzeppelin/contracts/token/ERC721/extensions/ERC721Enumerable.sol\";\nimport \"@openzeppelin/contracts/utils/Counters.sol\";\nimport \"@openzeppelin/contracts/access/Ownable.sol\";\n\ncontract Brand is ERC721Enumerable, Ownable {\n    using Strings for uint256;\n\nconstructor(\n   string memory _name,\n   string memory _symbol\n) ERC721(_name, _symbol) {\n  \n}\n\n    mapping(string => uint8) existingURIs;\n    mapping(uint256 => address) public holderOf;\n    uint256 public supply = 0; //determines the id\n    uint256 public totalTxn = 0;\n    uint256 public cost = 0.0001 ether;\n\n    event Sale(\n        uint256 id,\n        address indexed owner,\n        uint256 cost,\n        string metadataURI,\n        uint256 timestamp\n    );\n\n    struct TransactionStruct {\n        uint256 id;\n        address owner;\n        uint256 cost;\n        string title;\n        string description;\n        string metadataURI;\n        uint256 timestamp;\n    }\n\n    TransactionStruct[] transactions;\n    TransactionStruct[] minted;\n\n\n    function payToMint(\n        string memory title,\n        string memory description,\n        string memory metadataURI,\n        uint256 salesPrice\n    ) external payable {\n\n        require(msg.value >= cost, msg.value.toString());\n        require(existingURIs[metadataURI] == 0, \"This NFT is already minted!\");\n        require(msg.sender != owner(), \"Sales not allowed!\");\n        \n\n        \n\n        supply++;\n\n        minted.push(\n            TransactionStruct(\n                supply,\n                msg.sender,\n                salesPrice,\n                title,\n                description,\n                metadataURI,\n                block.timestamp\n            )\n        );\n\n        emit Sale(\n            supply,\n            msg.sender,\n            msg.value,\n            metadataURI,\n            block.timestamp\n        );\n\n        _safeMint(msg.sender, supply);\n        existingURIs[metadataURI] = 1;\n        holderOf[supply] = msg.sender;\n    }\n\n    function payToBuy(uint256 id) external payable {\n        require(msg.value >= minted[id - 1].cost, \"Ether too low for purchase!\");\n        require(msg.sender != minted[id - 1].owner, \"Operation Not Allowed!\");\n\n        totalTxn++;\n\n        transactions.push(\n            TransactionStruct(\n                totalTxn,\n                msg.sender,\n                msg.value,\n                minted[id - 1].title,\n                minted[id - 1].description,\n                minted[id - 1].metadataURI,\n                block.timestamp\n            )\n        );\n\n        emit Sale(\n            totalTxn,\n            msg.sender,\n            msg.value,\n            minted[id - 1].metadataURI,\n            block.timestamp\n        );\n\n        minted[id - 1].owner = msg.sender;\n    }\n\n    function changePrice(uint256 id, uint256 newPrice) external returns (bool) {\n        require(newPrice > 0 ether, \"Ether too low!\");\n        require(msg.sender == minted[id - 1].owner, \"Operation Not Allowed!\");\n\n        minted[id - 1].cost = newPrice;\n        return true;\n    }\n\n    function payTo(address to, uint256 amount) internal {\n        (bool success, ) = payable(to).call{value: amount}(\"\");\n        require(success);\n    }\n\n    function getAllNFTs() external view returns (TransactionStruct[] memory) {\n        return minted;\n    }\n\n    function getNFT(uint256 id) external view returns (TransactionStruct memory) {\n        return minted[id - 1];\n    }\n\n    function getAllTransactions() external view returns (TransactionStruct[] memory) {\n        return transactions;\n    }\n}\n",
  "sourcePath": "/Users/muskaansharma/Desktop/ZCoders_LOC/ZCoders_LOC5.0/scontracts/contracts/Brand.sol",
  "compiler": {
    "name": "solc",
    "version": "0.8.19+commit.7dd6d404.Emscripten.clang"
  },
  "schemaVersion": "3.4.13",
  "updatedAt": "2023-03-11T15:46:14.966Z",
  "networkType": "ethereum",
  "devdoc": {
    "events": {
      "Approval(address,address,uint256)": {
        "details": "Emitted when `owner` enables `approved` to manage the `tokenId` token."
      },
      "ApprovalForAll(address,address,bool)": {
        "details": "Emitted when `owner` enables or disables (`approved`) `operator` to manage all of its assets."
      },
      "Transfer(address,address,uint256)": {
        "details": "Emitted when `tokenId` token is transferred from `from` to `to`."
      }
    },
    "kind": "dev",
    "methods": {
      "approve(address,uint256)": {
        "details": "See {IERC721-approve}."
      },
      "balanceOf(address)": {
        "details": "See {IERC721-balanceOf}."
      },
      "getApproved(uint256)": {
        "details": "See {IERC721-getApproved}."
      },
      "isApprovedForAll(address,address)": {
        "details": "See {IERC721-isApprovedForAll}."
      },
      "name()": {
        "details": "See {IERC721Metadata-name}."
      },
      "owner()": {
        "details": "Returns the address of the current owner."
      },
      "ownerOf(uint256)": {
        "details": "See {IERC721-ownerOf}."
      },
      "renounceOwnership()": {
        "details": "Leaves the contract without owner. It will not be possible to call `onlyOwner` functions anymore. Can only be called by the current owner. NOTE: Renouncing ownership will leave the contract without an owner, thereby removing any functionality that is only available to the owner."
      },
      "safeTransferFrom(address,address,uint256)": {
        "details": "See {IERC721-safeTransferFrom}."
      },
      "safeTransferFrom(address,address,uint256,bytes)": {
        "details": "See {IERC721-safeTransferFrom}."
      },
      "setApprovalForAll(address,bool)": {
        "details": "See {IERC721-setApprovalForAll}."
      },
      "supportsInterface(bytes4)": {
        "details": "See {IERC165-supportsInterface}."
      },
      "symbol()": {
        "details": "See {IERC721Metadata-symbol}."
      },
      "tokenByIndex(uint256)": {
        "details": "See {IERC721Enumerable-tokenByIndex}."
      },
      "tokenOfOwnerByIndex(address,uint256)": {
        "details": "See {IERC721Enumerable-tokenOfOwnerByIndex}."
      },
      "tokenURI(uint256)": {
        "details": "See {IERC721Metadata-tokenURI}."
      },
      "totalSupply()": {
        "details": "See {IERC721Enumerable-totalSupply}."
      },
      "transferFrom(address,address,uint256)": {
        "details": "See {IERC721-transferFrom}."
      },
      "transferOwnership(address)": {
        "details": "Transfers ownership of the contract to a new account (`newOwner`). Can only be called by the current owner."
      }
    },
    "version": 1
  },
  "userdoc": {
    "kind": "user",
    "methods": {},
    "version": 1
  }
}