{
  "contractName": "Brand",
  "abi": [
    {
      "inputs": [
        {
          "internalType": "string",
          "name": "_name",
          "type": "string"
        },
        {
          "internalType": "string",
          "name": "_brandsymbol",
          "type": "string"
        }
      ],
      "stateMutability": "nonpayable",
      "type": "constructor"
    },
    {
      "anonymous": false,
      "inputs": [
        {
          "indexed": true,
          "internalType": "address",
          "name": "owner",
          "type": "address"
        },
        {
          "indexed": true,
          "internalType": "address",
          "name": "approved",
          "type": "address"
        },
        {
          "indexed": true,
          "internalType": "uint256",
          "name": "tokenId",
          "type": "uint256"
        }
      ],
      "name": "Approval",
      "type": "event"
    },
    {
      "anonymous": false,
      "inputs": [
        {
          "indexed": true,
          "internalType": "address",
          "name": "owner",
          "type": "address"
        },
        {
          "indexed": true,
          "internalType": "address",
          "name": "operator",
          "type": "address"
        },
        {
          "indexed": false,
          "internalType": "bool",
          "name": "approved",
          "type": "bool"
        }
      ],
      "name": "ApprovalForAll",
      "type": "event"
    },
    {
      "anonymous": false,
      "inputs": [
        {
          "indexed": true,
          "internalType": "address",
          "name": "previousOwner",
          "type": "address"
        },
        {
          "indexed": true,
          "internalType": "address",
          "name": "newOwner",
          "type": "address"
        }
      ],
      "name": "OwnershipTransferred",
      "type": "event"
    },
    {
      "anonymous": false,
      "inputs": [
        {
          "indexed": false,
          "internalType": "uint256",
          "name": "id",
          "type": "uint256"
        },
        {
          "indexed": true,
          "internalType": "address",
          "name": "owner",
          "type": "address"
        },
        {
          "indexed": false,
          "internalType": "uint256",
          "name": "cost",
          "type": "uint256"
        },
        {
          "indexed": false,
          "internalType": "string",
          "name": "metadataURI",
          "type": "string"
        },
        {
          "indexed": false,
          "internalType": "uint256",
          "name": "timestamp",
          "type": "uint256"
        }
      ],
      "name": "Sale",
      "type": "event"
    },
    {
      "anonymous": false,
      "inputs": [
        {
          "indexed": true,
          "internalType": "address",
          "name": "from",
          "type": "address"
        },
        {
          "indexed": true,
          "internalType": "address",
          "name": "to",
          "type": "address"
        },
        {
          "indexed": true,
          "internalType": "uint256",
          "name": "tokenId",
          "type": "uint256"
        }
      ],
      "name": "Transfer",
      "type": "event"
    },
    {
      "inputs": [
        {
          "internalType": "address",
          "name": "to",
          "type": "address"
        },
        {
          "internalType": "uint256",
          "name": "tokenId",
          "type": "uint256"
        }
      ],
      "name": "approve",
      "outputs": [],
      "stateMutability": "nonpayable",
      "type": "function"
    },
    {
      "inputs": [
        {
          "internalType": "address",
          "name": "owner",
          "type": "address"
        }
      ],
      "name": "balanceOf",
      "outputs": [
        {
          "internalType": "uint256",
          "name": "",
          "type": "uint256"
        }
      ],
      "stateMutability": "view",
      "type": "function",
      "constant": true
    },
    {
      "inputs": [],
      "name": "cost",
      "outputs": [
        {
          "internalType": "uint256",
          "name": "",
          "type": "uint256"
        }
      ],
      "stateMutability": "view",
      "type": "function",
      "constant": true
    },
    {
      "inputs": [
        {
          "internalType": "uint256",
          "name": "tokenId",
          "type": "uint256"
        }
      ],
      "name": "getApproved",
      "outputs": [
        {
          "internalType": "address",
          "name": "",
          "type": "address"
        }
      ],
      "stateMutability": "view",
      "type": "function",
      "constant": true
    },
    {
      "inputs": [
        {
          "internalType": "uint256",
          "name": "",
          "type": "uint256"
        }
      ],
      "name": "holderOf",
      "outputs": [
        {
          "internalType": "address",
          "name": "",
          "type": "address"
        }
      ],
      "stateMutability": "view",
      "type": "function",
      "constant": true
    },
    {
      "inputs": [
        {
          "internalType": "address",
          "name": "owner",
          "type": "address"
        },
        {
          "internalType": "address",
          "name": "operator",
          "type": "address"
        }
      ],
      "name": "isApprovedForAll",
      "outputs": [
        {
          "internalType": "bool",
          "name": "",
          "type": "bool"
        }
      ],
      "stateMutability": "view",
      "type": "function",
      "constant": true
    },
    {
      "inputs": [],
      "name": "name",
      "outputs": [
        {
          "internalType": "string",
          "name": "",
          "type": "string"
        }
      ],
      "stateMutability": "view",
      "type": "function",
      "constant": true
    },
    {
      "inputs": [],
      "name": "owner",
      "outputs": [
        {
          "internalType": "address",
          "name": "",
          "type": "address"
        }
      ],
      "stateMutability": "view",
      "type": "function",
      "constant": true
    },
    {
      "inputs": [
        {
          "internalType": "uint256",
          "name": "tokenId",
          "type": "uint256"
        }
      ],
      "name": "ownerOf",
      "outputs": [
        {
          "internalType": "address",
          "name": "",
          "type": "address"
        }
      ],
      "stateMutability": "view",
      "type": "function",
      "constant": true
    },
    {
      "inputs": [],
      "name": "pdt",
      "outputs": [
        {
          "internalType": "uint256",
          "name": "",
          "type": "uint256"
        }
      ],
      "stateMutability": "view",
      "type": "function",
      "constant": true
    },
    {
      "inputs": [],
      "name": "renounceOwnership",
      "outputs": [],
      "stateMutability": "nonpayable",
      "type": "function"
    },
    {
      "inputs": [
        {
          "internalType": "address",
          "name": "from",
          "type": "address"
        },
        {
          "internalType": "address",
          "name": "to",
          "type": "address"
        },
        {
          "internalType": "uint256",
          "name": "tokenId",
          "type": "uint256"
        }
      ],
      "name": "safeTransferFrom",
      "outputs": [],
      "stateMutability": "nonpayable",
      "type": "function"
    },
    {
      "inputs": [
        {
          "internalType": "address",
          "name": "from",
          "type": "address"
        },
        {
          "internalType": "address",
          "name": "to",
          "type": "address"
        },
        {
          "internalType": "uint256",
          "name": "tokenId",
          "type": "uint256"
        },
        {
          "internalType": "bytes",
          "name": "data",
          "type": "bytes"
        }
      ],
      "name": "safeTransferFrom",
      "outputs": [],
      "stateMutability": "nonpayable",
      "type": "function"
    },
    {
      "inputs": [
        {
          "internalType": "address",
          "name": "operator",
          "type": "address"
        },
        {
          "internalType": "bool",
          "name": "approved",
          "type": "bool"
        }
      ],
      "name": "setApprovalForAll",
      "outputs": [],
      "stateMutability": "nonpayable",
      "type": "function"
    },
    {
      "inputs": [],
      "name": "supply",
      "outputs": [
        {
          "internalType": "uint256",
          "name": "",
          "type": "uint256"
        }
      ],
      "stateMutability": "view",
      "type": "function",
      "constant": true
    },
    {
      "inputs": [
        {
          "internalType": "bytes4",
          "name": "interfaceId",
          "type": "bytes4"
        }
      ],
      "name": "supportsInterface",
      "outputs": [
        {
          "internalType": "bool",
          "name": "",
          "type": "bool"
        }
      ],
      "stateMutability": "view",
      "type": "function",
      "constant": true
    },
    {
      "inputs": [],
      "name": "symbol",
      "outputs": [
        {
          "internalType": "string",
          "name": "",
          "type": "string"
        }
      ],
      "stateMutability": "view",
      "type": "function",
      "constant": true
    },
    {
      "inputs": [
        {
          "internalType": "uint256",
          "name": "index",
          "type": "uint256"
        }
      ],
      "name": "tokenByIndex",
      "outputs": [
        {
          "internalType": "uint256",
          "name": "",
          "type": "uint256"
        }
      ],
      "stateMutability": "view",
      "type": "function",
      "constant": true
    },
    {
      "inputs": [
        {
          "internalType": "address",
          "name": "owner",
          "type": "address"
        },
        {
          "internalType": "uint256",
          "name": "index",
          "type": "uint256"
        }
      ],
      "name": "tokenOfOwnerByIndex",
      "outputs": [
        {
          "internalType": "uint256",
          "name": "",
          "type": "uint256"
        }
      ],
      "stateMutability": "view",
      "type": "function",
      "constant": true
    },
    {
      "inputs": [
        {
          "internalType": "uint256",
          "name": "tokenId",
          "type": "uint256"
        }
      ],
      "name": "tokenURI",
      "outputs": [
        {
          "internalType": "string",
          "name": "",
          "type": "string"
        }
      ],
      "stateMutability": "view",
      "type": "function",
      "constant": true
    },
    {
      "inputs": [],
      "name": "totalSupply",
      "outputs": [
        {
          "internalType": "uint256",
          "name": "",
          "type": "uint256"
        }
      ],
      "stateMutability": "view",
      "type": "function",
      "constant": true
    },
    {
      "inputs": [],
      "name": "totalTxn",
      "outputs": [
        {
          "internalType": "uint256",
          "name": "",
          "type": "uint256"
        }
      ],
      "stateMutability": "view",
      "type": "function",
      "constant": true
    },
    {
      "inputs": [
        {
          "internalType": "address",
          "name": "from",
          "type": "address"
        },
        {
          "internalType": "address",
          "name": "to",
          "type": "address"
        },
        {
          "internalType": "uint256",
          "name": "tokenId",
          "type": "uint256"
        }
      ],
      "name": "transferFrom",
      "outputs": [],
      "stateMutability": "nonpayable",
      "type": "function"
    },
    {
      "inputs": [
        {
          "internalType": "address",
          "name": "newOwner",
          "type": "address"
        }
      ],
      "name": "transferOwnership",
      "outputs": [],
      "stateMutability": "nonpayable",
      "type": "function"
    },
    {
      "inputs": [
        {
          "internalType": "string",
          "name": "title",
          "type": "string"
        },
        {
          "internalType": "string",
          "name": "description",
          "type": "string"
        },
        {
          "internalType": "string",
          "name": "metadataURI",
          "type": "string"
        },
        {
          "internalType": "uint256",
          "name": "salesPrice",
          "type": "uint256"
        }
      ],
      "name": "mintProduct",
      "outputs": [],
      "stateMutability": "payable",
      "type": "function",
      "payable": true
    },
    {
      "inputs": [
        {
          "internalType": "uint256",
          "name": "id",
          "type": "uint256"
        }
      ],
      "name": "sellProduct",
      "outputs": [],
      "stateMutability": "payable",
      "type": "function",
      "payable": true
    },
    {
      "inputs": [
        {
          "internalType": "uint256",
          "name": "_id",
          "type": "uint256"
        },
        {
          "internalType": "address",
          "name": "_new",
          "type": "address"
        }
      ],
      "name": "TransferProduct",
      "outputs": [],
      "stateMutability": "nonpayable",
      "type": "function"
    },
    {
      "inputs": [
        {
          "internalType": "uint256",
          "name": "id",
          "type": "uint256"
        },
        {
          "internalType": "uint256",
          "name": "newPrice",
          "type": "uint256"
        }
      ],
      "name": "changePrice",
      "outputs": [
        {
          "internalType": "bool",
          "name": "",
          "type": "bool"
        }
      ],
      "stateMutability": "nonpayable",
      "type": "function"
    },
    {
      "inputs": [],
      "name": "getAllNFTs",
      "outputs": [
        {
          "components": [
            {
              "internalType": "uint256",
              "name": "id",
              "type": "uint256"
            },
            {
              "internalType": "uint256",
              "name": "prod_Id",
              "type": "uint256"
            },
            {
              "internalType": "address",
              "name": "owner",
              "type": "address"
            },
            {
              "internalType": "string",
              "name": "title",
              "type": "string"
            },
            {
              "internalType": "string",
              "name": "description",
              "type": "string"
            },
            {
              "internalType": "uint256",
              "name": "cost",
              "type": "uint256"
            },
            {
              "internalType": "string",
              "name": "metadataURI",
              "type": "string"
            },
            {
              "internalType": "uint256",
              "name": "timestamp",
              "type": "uint256"
            }
          ],
          "internalType": "struct Brand.TransactionStruct[]",
          "name": "",
          "type": "tuple[]"
        }
      ],
      "stateMutability": "view",
      "type": "function",
      "constant": true
    },
    {
      "inputs": [
        {
          "internalType": "uint256",
          "name": "id",
          "type": "uint256"
        }
      ],
      "name": "getNFT",
      "outputs": [
        {
          "components": [
            {
              "internalType": "uint256",
              "name": "id",
              "type": "uint256"
            },
            {
              "internalType": "uint256",
              "name": "prod_Id",
              "type": "uint256"
            },
            {
              "internalType": "address",
              "name": "owner",
              "type": "address"
            },
            {
              "internalType": "string",
              "name": "title",
              "type": "string"
            },
            {
              "internalType": "string",
              "name": "description",
              "type": "string"
            },
            {
              "internalType": "uint256",
              "name": "cost",
              "type": "uint256"
            },
            {
              "internalType": "string",
              "name": "metadataURI",
              "type": "string"
            },
            {
              "internalType": "uint256",
              "name": "timestamp",
              "type": "uint256"
            }
          ],
          "internalType": "struct Brand.TransactionStruct",
          "name": "",
          "type": "tuple"
        }
      ],
      "stateMutability": "view",
      "type": "function",
      "constant": true
    },
    {
      "inputs": [],
      "name": "getAllTransactions",
      "outputs": [
        {
          "components": [
            {
              "internalType": "uint256",
              "name": "id",
              "type": "uint256"
            },
            {
              "internalType": "uint256",
              "name": "prod_Id",
              "type": "uint256"
            },
            {
              "internalType": "address",
              "name": "owner",
              "type": "address"
            },
            {
              "internalType": "string",
              "name": "title",
              "type": "string"
            },
            {
              "internalType": "string",
              "name": "description",
              "type": "string"
            },
            {
              "internalType": "uint256",
              "name": "cost",
              "type": "uint256"
            },
            {
              "internalType": "string",
              "name": "metadataURI",
              "type": "string"
            },
            {
              "internalType": "uint256",
              "name": "timestamp",
              "type": "uint256"
            }
          ],
          "internalType": "struct Brand.TransactionStruct[]",
          "name": "",
          "type": "tuple[]"
        }
      ],
      "stateMutability": "view",
      "type": "function",
      "constant": true
    }
  ],
  "bytecode": "0x60806040526000600d556000600e556000600f55655af3107a40006010553480156200002a57600080fd5b5060405162005c7638038062005c76833981810160405281019062000050919062000301565b81818160009081620000639190620005d1565b508060019081620000759190620005d1565b505050620000986200008c620000a060201b60201c565b620000a860201b60201c565b5050620006b8565b600033905090565b6000600a60009054906101000a900473ffffffffffffffffffffffffffffffffffffffff16905081600a60006101000a81548173ffffffffffffffffffffffffffffffffffffffff021916908373ffffffffffffffffffffffffffffffffffffffff1602179055508173ffffffffffffffffffffffffffffffffffffffff168173ffffffffffffffffffffffffffffffffffffffff167f8be0079c531659141344cd1fd0a4f28419497f9722a3daafe3b4186f6b6457e060405160405180910390a35050565b6000604051905090565b600080fd5b600080fd5b600080fd5b600080fd5b6000601f19601f8301169050919050565b7f4e487b7100000000000000000000000000000000000000000000000000000000600052604160045260246000fd5b620001d7826200018c565b810181811067ffffffffffffffff82111715620001f957620001f86200019d565b5b80604052505050565b60006200020e6200016e565b90506200021c8282620001cc565b919050565b600067ffffffffffffffff8211156200023f576200023e6200019d565b5b6200024a826200018c565b9050602081019050919050565b60005b83811015620002775780820151818401526020810190506200025a565b60008484015250505050565b60006200029a620002948462000221565b62000202565b905082815260208101848484011115620002b957620002b862000187565b5b620002c684828562000257565b509392505050565b600082601f830112620002e657620002e562000182565b5b8151620002f884826020860162000283565b91505092915050565b600080604083850312156200031b576200031a62000178565b5b600083015167ffffffffffffffff8111156200033c576200033b6200017d565b5b6200034a85828601620002ce565b925050602083015167ffffffffffffffff8111156200036e576200036d6200017d565b5b6200037c85828601620002ce565b9150509250929050565b600081519050919050565b7f4e487b7100000000000000000000000000000000000000000000000000000000600052602260045260246000fd5b60006002820490506001821680620003d957607f821691505b602082108103620003ef57620003ee62000391565b5b50919050565b60008190508160005260206000209050919050565b60006020601f8301049050919050565b600082821b905092915050565b600060088302620004597fffffffffffffffffffffffffffffffffffffffffffffffffffffffffffffffff826200041a565b6200046586836200041a565b95508019841693508086168417925050509392505050565b6000819050919050565b6000819050919050565b6000620004b2620004ac620004a6846200047d565b62000487565b6200047d565b9050919050565b6000819050919050565b620004ce8362000491565b620004e6620004dd82620004b9565b84845462000427565b825550505050565b600090565b620004fd620004ee565b6200050a818484620004c3565b505050565b5b81811015620005325762000526600082620004f3565b60018101905062000510565b5050565b601f82111562000581576200054b81620003f5565b62000556846200040a565b8101602085101562000566578190505b6200057e62000575856200040a565b8301826200050f565b50505b505050565b600082821c905092915050565b6000620005a66000198460080262000586565b1980831691505092915050565b6000620005c1838362000593565b9150826002028217905092915050565b620005dc8262000386565b67ffffffffffffffff811115620005f857620005f76200019d565b5b620006048254620003c0565b6200061182828562000536565b600060209050601f83116001811462000649576000841562000634578287015190505b620006408582620005b3565b865550620006b0565b601f1984166200065986620003f5565b60005b8281101562000683578489015182556001820191506020850194506020810190506200065c565b86831015620006a357848901516200069f601f89168262000593565b8355505b6001600288020188555050505b505050505050565b6155ae80620006c86000396000f3fe6080604052600436106101d85760003560e01c806370a0823111610102578063b3de019c11610095578063e0391b0911610064578063e0391b09146106de578063e3fb5e1214610709578063e985e9c514610732578063f2fde38b1461076f576101d8565b8063b3de019c146105fe578063b88d4fde1461063b578063c87b56dd14610664578063dbacc237146106a1576101d8565b806395d89b41116100d157806395d89b4114610554578063a22cb4651461057f578063a6d86818146105a8578063b2b3fd35146105d3576101d8565b806370a08231146104b9578063715018a6146104f657806372af3f7d1461050d5780638da5cb5b14610529576101d8565b806323b872dd1161017a578063492deb1511610149578063492deb15146103e65780634f6ccce714610402578063576f7ea71461043f5780636352211e1461047c576101d8565b806323b872dd1461032c57806327506f53146103555780632f745c591461038057806342842e0e146103bd576101d8565b8063081812fc116101b6578063081812fc14610270578063095ea7b3146102ad57806313faede6146102d657806318160ddd14610301576101d8565b806301ffc9a7146101dd578063047fc9aa1461021a57806306fdde0314610245575b600080fd5b3480156101e957600080fd5b5061020460048036038101906101ff9190613916565b610798565b604051610211919061395e565b60405180910390f35b34801561022657600080fd5b5061022f610812565b60405161023c9190613992565b60405180910390f35b34801561025157600080fd5b5061025a610818565b6040516102679190613a3d565b60405180910390f35b34801561027c57600080fd5b5061029760048036038101906102929190613a8b565b6108aa565b6040516102a49190613af9565b60405180910390f35b3480156102b957600080fd5b506102d460048036038101906102cf9190613b40565b6108f0565b005b3480156102e257600080fd5b506102eb610a07565b6040516102f89190613992565b60405180910390f35b34801561030d57600080fd5b50610316610a0d565b6040516103239190613992565b60405180910390f35b34801561033857600080fd5b50610353600480360381019061034e9190613b80565b610a1a565b005b34801561036157600080fd5b5061036a610a7a565b6040516103779190613dbb565b60405180910390f35b34801561038c57600080fd5b506103a760048036038101906103a29190613b40565b610d0e565b6040516103b49190613992565b60405180910390f35b3480156103c957600080fd5b506103e460048036038101906103df9190613b80565b610db3565b005b61040060048036038101906103fb9190613a8b565b610dd3565b005b34801561040e57600080fd5b5061042960048036038101906104249190613a8b565b6113a3565b6040516104369190613992565b60405180910390f35b34801561044b57600080fd5b5061046660048036038101906104619190613a8b565b611414565b6040516104739190613e9b565b60405180910390f35b34801561048857600080fd5b506104a3600480360381019061049e9190613a8b565b611691565b6040516104b09190613af9565b60405180910390f35b3480156104c557600080fd5b506104e060048036038101906104db9190613ebd565b611717565b6040516104ed9190613992565b60405180910390f35b34801561050257600080fd5b5061050b6117ce565b005b6105276004803603810190610522919061401f565b6117e2565b005b34801561053557600080fd5b5061053e611b80565b60405161054b9190613af9565b60405180910390f35b34801561056057600080fd5b50610569611baa565b6040516105769190613a3d565b60405180910390f35b34801561058b57600080fd5b506105a660048036038101906105a19190614106565b611c3c565b005b3480156105b457600080fd5b506105bd611c52565b6040516105ca9190613992565b60405180910390f35b3480156105df57600080fd5b506105e8611c58565b6040516105f59190613992565b60405180910390f35b34801561060a57600080fd5b5061062560048036038101906106209190614146565b611c5e565b604051610632919061395e565b60405180910390f35b34801561064757600080fd5b50610662600480360381019061065d9190614227565b611da1565b005b34801561067057600080fd5b5061068b60048036038101906106869190613a8b565b611e03565b6040516106989190613a3d565b60405180910390f35b3480156106ad57600080fd5b506106c860048036038101906106c39190613a8b565b611e6b565b6040516106d59190613af9565b60405180910390f35b3480156106ea57600080fd5b506106f3611e9e565b6040516107009190613dbb565b60405180910390f35b34801561071557600080fd5b50610730600480360381019061072b91906142aa565b612132565b005b34801561073e57600080fd5b50610759600480360381019061075491906142ea565b612265565b604051610766919061395e565b60405180910390f35b34801561077b57600080fd5b5061079660048036038101906107919190613ebd565b6122f9565b005b60007f780e9d63000000000000000000000000000000000000000000000000000000007bffffffffffffffffffffffffffffffffffffffffffffffffffffffff1916827bffffffffffffffffffffffffffffffffffffffffffffffffffffffff1916148061080b575061080a8261237c565b5b9050919050565b600d5481565b60606000805461082790614359565b80601f016020809104026020016040519081016040528092919081815260200182805461085390614359565b80156108a05780601f10610875576101008083540402835291602001916108a0565b820191906000526020600020905b81548152906001019060200180831161088357829003601f168201915b5050505050905090565b60006108b58261245e565b6004600083815260200190815260200160002060009054906101000a900473ffffffffffffffffffffffffffffffffffffffff169050919050565b60006108fb82611691565b90508073ffffffffffffffffffffffffffffffffffffffff168373ffffffffffffffffffffffffffffffffffffffff160361096b576040517f08c379a0000000000000000000000000000000000000000000000000000000008152600401610962906143fc565b60405180910390fd5b8073ffffffffffffffffffffffffffffffffffffffff1661098a6124a9565b73ffffffffffffffffffffffffffffffffffffffff1614806109b957506109b8816109b36124a9565b612265565b5b6109f8576040517f08c379a00000000000000000000000000000000000000000000000000000000081526004016109ef9061448e565b60405180910390fd5b610a0283836124b1565b505050565b60105481565b6000600880549050905090565b610a2b610a256124a9565b8261256a565b610a6a576040517f08c379a0000000000000000000000000000000000000000000000000000000008152600401610a6190614520565b60405180910390fd5b610a758383836125ff565b505050565b60606011805480602002602001604051908101604052809291908181526020016000905b82821015610d0557838290600052602060002090600802016040518061010001604052908160008201548152602001600182015481526020016002820160009054906101000a900473ffffffffffffffffffffffffffffffffffffffff1673ffffffffffffffffffffffffffffffffffffffff1673ffffffffffffffffffffffffffffffffffffffff168152602001600382018054610b3c90614359565b80601f0160208091040260200160405190810160405280929190818152602001828054610b6890614359565b8015610bb55780601f10610b8a57610100808354040283529160200191610bb5565b820191906000526020600020905b815481529060010190602001808311610b9857829003601f168201915b50505050508152602001600482018054610bce90614359565b80601f0160208091040260200160405190810160405280929190818152602001828054610bfa90614359565b8015610c475780601f10610c1c57610100808354040283529160200191610c47565b820191906000526020600020905b815481529060010190602001808311610c2a57829003601f168201915b5050505050815260200160058201548152602001600682018054610c6a90614359565b80601f0160208091040260200160405190810160405280929190818152602001828054610c9690614359565b8015610ce35780601f10610cb857610100808354040283529160200191610ce3565b820191906000526020600020905b815481529060010190602001808311610cc657829003601f168201915b5050505050815260200160078201548152505081526020019060010190610a9e565b50505050905090565b6000610d1983611717565b8210610d5a576040517f08c379a0000000000000000000000000000000000000000000000000000000008152600401610d51906145b2565b60405180910390fd5b600660008473ffffffffffffffffffffffffffffffffffffffff1673ffffffffffffffffffffffffffffffffffffffff168152602001908152602001600020600083815260200190815260200160002054905092915050565b610dce83838360405180602001604052806000815250611da1565b505050565b6012600182610de29190614601565b81548110610df357610df2614635565b5b906000526020600020906008020160050154341015610e47576040517f08c379a0000000000000000000000000000000000000000000000000000000008152600401610e3e906146b0565b60405180910390fd5b6012600182610e569190614601565b81548110610e6757610e66614635565b5b906000526020600020906008020160020160009054906101000a900473ffffffffffffffffffffffffffffffffffffffff1673ffffffffffffffffffffffffffffffffffffffff163373ffffffffffffffffffffffffffffffffffffffff1603610f06576040517f08c379a0000000000000000000000000000000000000000000000000000000008152600401610efd9061471c565b60405180910390fd5b600e6000815480929190610f199061473c565b91905055506011604051806101000160405280600e5481526020016012600185610f439190614601565b81548110610f5457610f53614635565b5b90600052602060002090600802016001015481526020013373ffffffffffffffffffffffffffffffffffffffff1681526020016012600185610f969190614601565b81548110610fa757610fa6614635565b5b90600052602060002090600802016003018054610fc390614359565b80601f0160208091040260200160405190810160405280929190818152602001828054610fef90614359565b801561103c5780601f106110115761010080835404028352916020019161103c565b820191906000526020600020905b81548152906001019060200180831161101f57829003601f168201915b5050505050815260200160126001856110559190614601565b8154811061106657611065614635565b5b9060005260206000209060080201600401805461108290614359565b80601f01602080910402602001604051908101604052809291908181526020018280546110ae90614359565b80156110fb5780601f106110d0576101008083540402835291602001916110fb565b820191906000526020600020905b8154815290600101906020018083116110de57829003601f168201915b50505050508152602001348152602001601260018561111a9190614601565b8154811061112b5761112a614635565b5b9060005260206000209060080201600601805461114790614359565b80601f016020809104026020016040519081016040528092919081815260200182805461117390614359565b80156111c05780601f10611195576101008083540402835291602001916111c0565b820191906000526020600020905b8154815290600101906020018083116111a357829003601f168201915b50505050508152602001428152509080600181540180825580915050600190039060005260206000209060080201600090919091909150600082015181600001556020820151816001015560408201518160020160006101000a81548173ffffffffffffffffffffffffffffffffffffffff021916908373ffffffffffffffffffffffffffffffffffffffff16021790555060608201518160030190816112679190614930565b50608082015181600401908161127d9190614930565b5060a0820151816005015560c082015181600601908161129d9190614930565b5060e0820151816007015550503373ffffffffffffffffffffffffffffffffffffffff167fb9508407a6eccb191d8da3286f4173697cf95604e9ea192fe5ab7c862b5221f6600e543460126001866112f59190614601565b8154811061130657611305614635565b5b9060005260206000209060080201600601426040516113289493929190614a86565b60405180910390a23360126001836113409190614601565b8154811061135157611350614635565b5b906000526020600020906008020160020160006101000a81548173ffffffffffffffffffffffffffffffffffffffff021916908373ffffffffffffffffffffffffffffffffffffffff16021790555050565b60006113ad610a0d565b82106113ee576040517f08c379a00000000000000000000000000000000000000000000000000000000081526004016113e590614b44565b60405180910390fd5b6008828154811061140257611401614635565b5b90600052602060002001549050919050565b61141c61384f565b601260018361142b9190614601565b8154811061143c5761143b614635565b5b90600052602060002090600802016040518061010001604052908160008201548152602001600182015481526020016002820160009054906101000a900473ffffffffffffffffffffffffffffffffffffffff1673ffffffffffffffffffffffffffffffffffffffff1673ffffffffffffffffffffffffffffffffffffffff1681526020016003820180546114d090614359565b80601f01602080910402602001604051908101604052809291908181526020018280546114fc90614359565b80156115495780601f1061151e57610100808354040283529160200191611549565b820191906000526020600020905b81548152906001019060200180831161152c57829003601f168201915b5050505050815260200160048201805461156290614359565b80601f016020809104026020016040519081016040528092919081815260200182805461158e90614359565b80156115db5780601f106115b0576101008083540402835291602001916115db565b820191906000526020600020905b8154815290600101906020018083116115be57829003601f168201915b50505050508152602001600582015481526020016006820180546115fe90614359565b80601f016020809104026020016040519081016040528092919081815260200182805461162a90614359565b80156116775780601f1061164c57610100808354040283529160200191611677565b820191906000526020600020905b81548152906001019060200180831161165a57829003601f168201915b505050505081526020016007820154815250509050919050565b60008061169d836128f8565b9050600073ffffffffffffffffffffffffffffffffffffffff168173ffffffffffffffffffffffffffffffffffffffff160361170e576040517f08c379a000000000000000000000000000000000000000000000000000000000815260040161170590614bb0565b60405180910390fd5b80915050919050565b60008073ffffffffffffffffffffffffffffffffffffffff168273ffffffffffffffffffffffffffffffffffffffff1603611787576040517f08c379a000000000000000000000000000000000000000000000000000000000815260040161177e90614c42565b60405180910390fd5b600360008373ffffffffffffffffffffffffffffffffffffffff1673ffffffffffffffffffffffffffffffffffffffff168152602001908152602001600020549050919050565b6117d6612935565b6117e060006129b3565b565b6010543410156117f134612a79565b90611832576040517f08c379a00000000000000000000000000000000000000000000000000000000081526004016118299190613a3d565b60405180910390fd5b506000600b836040516118459190614c9e565b908152602001604051809103902060009054906101000a900460ff1660ff16146118a4576040517f08c379a000000000000000000000000000000000000000000000000000000000815260040161189b90614d01565b60405180910390fd5b6118ac611b80565b73ffffffffffffffffffffffffffffffffffffffff163373ffffffffffffffffffffffffffffffffffffffff1603611919576040517f08c379a000000000000000000000000000000000000000000000000000000000815260040161191090614d6d565b60405180910390fd5b600d600081548092919061192c9061473c565b9190505550600f60008154809291906119449061473c565b91905055506012604051806101000160405280600d548152602001600f5481526020013373ffffffffffffffffffffffffffffffffffffffff168152602001868152602001858152602001838152602001848152602001428152509080600181540180825580915050600190039060005260206000209060080201600090919091909150600082015181600001556020820151816001015560408201518160020160006101000a81548173ffffffffffffffffffffffffffffffffffffffff021916908373ffffffffffffffffffffffffffffffffffffffff1602179055506060820151816003019081611a389190614930565b506080820151816004019081611a4e9190614930565b5060a0820151816005015560c0820151816006019081611a6e9190614930565b5060e082015181600701555050611a8c611a86611b80565b34612b47565b3373ffffffffffffffffffffffffffffffffffffffff167fb9508407a6eccb191d8da3286f4173697cf95604e9ea192fe5ab7c862b5221f6600d54348542604051611ada9493929190614d8d565b60405180910390a2611aee33600d54612bc2565b6001600b83604051611b009190614c9e565b908152602001604051809103902060006101000a81548160ff021916908360ff16021790555033600c6000600d54815260200190815260200160002060006101000a81548173ffffffffffffffffffffffffffffffffffffffff021916908373ffffffffffffffffffffffffffffffffffffffff16021790555050505050565b6000600a60009054906101000a900473ffffffffffffffffffffffffffffffffffffffff16905090565b606060018054611bb990614359565b80601f0160208091040260200160405190810160405280929190818152602001828054611be590614359565b8015611c325780601f10611c0757610100808354040283529160200191611c32565b820191906000526020600020905b815481529060010190602001808311611c1557829003601f168201915b5050505050905090565b611c4e611c476124a9565b8383612be0565b5050565b600e5481565b600f5481565b6000808211611ca2576040517f08c379a0000000000000000000000000000000000000000000000000000000008152600401611c9990614e25565b60405180910390fd5b6012600184611cb19190614601565b81548110611cc257611cc1614635565b5b906000526020600020906008020160020160009054906101000a900473ffffffffffffffffffffffffffffffffffffffff1673ffffffffffffffffffffffffffffffffffffffff163373ffffffffffffffffffffffffffffffffffffffff1614611d61576040517f08c379a0000000000000000000000000000000000000000000000000000000008152600401611d5890614e91565b60405180910390fd5b816012600185611d719190614601565b81548110611d8257611d81614635565b5b9060005260206000209060080201600501819055506001905092915050565b611db2611dac6124a9565b8361256a565b611df1576040517f08c379a0000000000000000000000000000000000000000000000000000000008152600401611de890614520565b60405180910390fd5b611dfd84848484612d4c565b50505050565b6060611e0e8261245e565b6000611e18612da8565b90506000815111611e385760405180602001604052806000815250611e63565b80611e4284612a79565b604051602001611e53929190614eb1565b6040516020818303038152906040525b915050919050565b600c6020528060005260406000206000915054906101000a900473ffffffffffffffffffffffffffffffffffffffff1681565b60606012805480602002602001604051908101604052809291908181526020016000905b8282101561212957838290600052602060002090600802016040518061010001604052908160008201548152602001600182015481526020016002820160009054906101000a900473ffffffffffffffffffffffffffffffffffffffff1673ffffffffffffffffffffffffffffffffffffffff1673ffffffffffffffffffffffffffffffffffffffff168152602001600382018054611f6090614359565b80601f0160208091040260200160405190810160405280929190818152602001828054611f8c90614359565b8015611fd95780601f10611fae57610100808354040283529160200191611fd9565b820191906000526020600020905b815481529060010190602001808311611fbc57829003601f168201915b50505050508152602001600482018054611ff290614359565b80601f016020809104026020016040519081016040528092919081815260200182805461201e90614359565b801561206b5780601f106120405761010080835404028352916020019161206b565b820191906000526020600020905b81548152906001019060200180831161204e57829003601f168201915b505050505081526020016005820154815260200160068201805461208e90614359565b80601f01602080910402602001604051908101604052809291908181526020018280546120ba90614359565b80156121075780601f106120dc57610100808354040283529160200191612107565b820191906000526020600020905b8154815290600101906020018083116120ea57829003601f168201915b5050505050815260200160078201548152505081526020019060010190611ec2565b50505050905090565b60126001836121419190614601565b8154811061215257612151614635565b5b906000526020600020906008020160020160009054906101000a900473ffffffffffffffffffffffffffffffffffffffff1673ffffffffffffffffffffffffffffffffffffffff163373ffffffffffffffffffffffffffffffffffffffff16146121f1576040517f08c379a00000000000000000000000000000000000000000000000000000000081526004016121e890614f47565b60405180910390fd5b8060126001846122019190614601565b8154811061221257612211614635565b5b906000526020600020906008020160020160006101000a81548173ffffffffffffffffffffffffffffffffffffffff021916908373ffffffffffffffffffffffffffffffffffffffff1602179055505050565b6000600560008473ffffffffffffffffffffffffffffffffffffffff1673ffffffffffffffffffffffffffffffffffffffff16815260200190815260200160002060008373ffffffffffffffffffffffffffffffffffffffff1673ffffffffffffffffffffffffffffffffffffffff16815260200190815260200160002060009054906101000a900460ff16905092915050565b612301612935565b600073ffffffffffffffffffffffffffffffffffffffff168173ffffffffffffffffffffffffffffffffffffffff1603612370576040517f08c379a000000000000000000000000000000000000000000000000000000000815260040161236790614fd9565b60405180910390fd5b612379816129b3565b50565b60007f80ac58cd000000000000000000000000000000000000000000000000000000007bffffffffffffffffffffffffffffffffffffffffffffffffffffffff1916827bffffffffffffffffffffffffffffffffffffffffffffffffffffffff1916148061244757507f5b5e139f000000000000000000000000000000000000000000000000000000007bffffffffffffffffffffffffffffffffffffffffffffffffffffffff1916827bffffffffffffffffffffffffffffffffffffffffffffffffffffffff1916145b80612457575061245682612dbf565b5b9050919050565b61246781612e29565b6124a6576040517f08c379a000000000000000000000000000000000000000000000000000000000815260040161249d90614bb0565b60405180910390fd5b50565b600033905090565b816004600083815260200190815260200160002060006101000a81548173ffffffffffffffffffffffffffffffffffffffff021916908373ffffffffffffffffffffffffffffffffffffffff160217905550808273ffffffffffffffffffffffffffffffffffffffff1661252483611691565b73ffffffffffffffffffffffffffffffffffffffff167f8c5be1e5ebec7d5bd14f71427d1e84f3dd0314c0f7b2291e5b200ac8c7c3b92560405160405180910390a45050565b60008061257683611691565b90508073ffffffffffffffffffffffffffffffffffffffff168473ffffffffffffffffffffffffffffffffffffffff1614806125b857506125b78185612265565b5b806125f657508373ffffffffffffffffffffffffffffffffffffffff166125de846108aa565b73ffffffffffffffffffffffffffffffffffffffff16145b91505092915050565b8273ffffffffffffffffffffffffffffffffffffffff1661261f82611691565b73ffffffffffffffffffffffffffffffffffffffff1614612675576040517f08c379a000000000000000000000000000000000000000000000000000000000815260040161266c9061506b565b60405180910390fd5b600073ffffffffffffffffffffffffffffffffffffffff168273ffffffffffffffffffffffffffffffffffffffff16036126e4576040517f08c379a00000000000000000000000000000000000000000000000000000000081526004016126db906150fd565b60405180910390fd5b6126f18383836001612e6a565b8273ffffffffffffffffffffffffffffffffffffffff1661271182611691565b73ffffffffffffffffffffffffffffffffffffffff1614612767576040517f08c379a000000000000000000000000000000000000000000000000000000000815260040161275e9061506b565b60405180910390fd5b6004600082815260200190815260200160002060006101000a81549073ffffffffffffffffffffffffffffffffffffffff02191690556001600360008573ffffffffffffffffffffffffffffffffffffffff1673ffffffffffffffffffffffffffffffffffffffff168152602001908152602001600020600082825403925050819055506001600360008473ffffffffffffffffffffffffffffffffffffffff1673ffffffffffffffffffffffffffffffffffffffff16815260200190815260200160002060008282540192505081905550816002600083815260200190815260200160002060006101000a81548173ffffffffffffffffffffffffffffffffffffffff021916908373ffffffffffffffffffffffffffffffffffffffff160217905550808273ffffffffffffffffffffffffffffffffffffffff168473ffffffffffffffffffffffffffffffffffffffff167fddf252ad1be2c89b69c2b068fc378daa952ba7f163c4a11628f55a4df523b3ef60405160405180910390a46128f38383836001612fc8565b505050565b60006002600083815260200190815260200160002060009054906101000a900473ffffffffffffffffffffffffffffffffffffffff169050919050565b61293d6124a9565b73ffffffffffffffffffffffffffffffffffffffff1661295b611b80565b73ffffffffffffffffffffffffffffffffffffffff16146129b1576040517f08c379a00000000000000000000000000000000000000000000000000000000081526004016129a890615169565b60405180910390fd5b565b6000600a60009054906101000a900473ffffffffffffffffffffffffffffffffffffffff16905081600a60006101000a81548173ffffffffffffffffffffffffffffffffffffffff021916908373ffffffffffffffffffffffffffffffffffffffff1602179055508173ffffffffffffffffffffffffffffffffffffffff168173ffffffffffffffffffffffffffffffffffffffff167f8be0079c531659141344cd1fd0a4f28419497f9722a3daafe3b4186f6b6457e060405160405180910390a35050565b606060006001612a8884612fce565b01905060008167ffffffffffffffff811115612aa757612aa6613ef4565b5b6040519080825280601f01601f191660200182016040528015612ad95781602001600182028036833780820191505090505b509050600082602001820190505b600115612b3c578080600190039150507f3031323334353637383961626364656600000000000000000000000000000000600a86061a8153600a8581612b3057612b2f615189565b5b04945060008503612ae7575b819350505050919050565b60008273ffffffffffffffffffffffffffffffffffffffff1682604051612b6d906151e9565b60006040518083038185875af1925050503d8060008114612baa576040519150601f19603f3d011682016040523d82523d6000602084013e612baf565b606091505b5050905080612bbd57600080fd5b505050565b612bdc828260405180602001604052806000815250613121565b5050565b8173ffffffffffffffffffffffffffffffffffffffff168373ffffffffffffffffffffffffffffffffffffffff1603612c4e576040517f08c379a0000000000000000000000000000000000000000000000000000000008152600401612c459061524a565b60405180910390fd5b80600560008573ffffffffffffffffffffffffffffffffffffffff1673ffffffffffffffffffffffffffffffffffffffff16815260200190815260200160002060008473ffffffffffffffffffffffffffffffffffffffff1673ffffffffffffffffffffffffffffffffffffffff16815260200190815260200160002060006101000a81548160ff0219169083151502179055508173ffffffffffffffffffffffffffffffffffffffff168373ffffffffffffffffffffffffffffffffffffffff167f17307eab39ab6107e8899845ad3d59bd9653f200f220920489ca2b5937696c3183604051612d3f919061395e565b60405180910390a3505050565b612d578484846125ff565b612d638484848461317c565b612da2576040517f08c379a0000000000000000000000000000000000000000000000000000000008152600401612d99906152dc565b60405180910390fd5b50505050565b606060405180602001604052806000815250905090565b60007f01ffc9a7000000000000000000000000000000000000000000000000000000007bffffffffffffffffffffffffffffffffffffffffffffffffffffffff1916827bffffffffffffffffffffffffffffffffffffffffffffffffffffffff1916149050919050565b60008073ffffffffffffffffffffffffffffffffffffffff16612e4b836128f8565b73ffffffffffffffffffffffffffffffffffffffff1614159050919050565b612e7684848484613303565b6001811115612eba576040517f08c379a0000000000000000000000000000000000000000000000000000000008152600401612eb19061536e565b60405180910390fd5b6000829050600073ffffffffffffffffffffffffffffffffffffffff168573ffffffffffffffffffffffffffffffffffffffff1603612f0157612efc81613309565b612f40565b8373ffffffffffffffffffffffffffffffffffffffff168573ffffffffffffffffffffffffffffffffffffffff1614612f3f57612f3e8582613352565b5b5b600073ffffffffffffffffffffffffffffffffffffffff168473ffffffffffffffffffffffffffffffffffffffff1603612f8257612f7d816134bf565b612fc1565b8473ffffffffffffffffffffffffffffffffffffffff168473ffffffffffffffffffffffffffffffffffffffff1614612fc057612fbf8482613590565b5b5b5050505050565b50505050565b600080600090507a184f03e93ff9f4daa797ed6e38ed64bf6a1f010000000000000000831061302c577a184f03e93ff9f4daa797ed6e38ed64bf6a1f010000000000000000838161302257613021615189565b5b0492506040810190505b6d04ee2d6d415b85acef81000000008310613069576d04ee2d6d415b85acef8100000000838161305f5761305e615189565b5b0492506020810190505b662386f26fc10000831061309857662386f26fc10000838161308e5761308d615189565b5b0492506010810190505b6305f5e10083106130c1576305f5e10083816130b7576130b6615189565b5b0492506008810190505b61271083106130e65761271083816130dc576130db615189565b5b0492506004810190505b6064831061310957606483816130ff576130fe615189565b5b0492506002810190505b600a8310613118576001810190505b80915050919050565b61312b838361360f565b613138600084848461317c565b613177576040517f08c379a000000000000000000000000000000000000000000000000000000000815260040161316e906152dc565b60405180910390fd5b505050565b600061319d8473ffffffffffffffffffffffffffffffffffffffff1661382c565b156132f6578373ffffffffffffffffffffffffffffffffffffffff1663150b7a026131c66124a9565b8786866040518563ffffffff1660e01b81526004016131e894939291906153e3565b6020604051808303816000875af192505050801561322457506040513d601f19601f820116820180604052508101906132219190615444565b60015b6132a6573d8060008114613254576040519150601f19603f3d011682016040523d82523d6000602084013e613259565b606091505b50600081510361329e576040517f08c379a0000000000000000000000000000000000000000000000000000000008152600401613295906152dc565b60405180910390fd5b805181602001fd5b63150b7a0260e01b7bffffffffffffffffffffffffffffffffffffffffffffffffffffffff1916817bffffffffffffffffffffffffffffffffffffffffffffffffffffffff1916149150506132fb565b600190505b949350505050565b50505050565b6008805490506009600083815260200190815260200160002081905550600881908060018154018082558091505060019003906000526020600020016000909190919091505550565b6000600161335f84611717565b6133699190614601565b905060006007600084815260200190815260200160002054905081811461344e576000600660008673ffffffffffffffffffffffffffffffffffffffff1673ffffffffffffffffffffffffffffffffffffffff168152602001908152602001600020600084815260200190815260200160002054905080600660008773ffffffffffffffffffffffffffffffffffffffff1673ffffffffffffffffffffffffffffffffffffffff168152602001908152602001600020600084815260200190815260200160002081905550816007600083815260200190815260200160002081905550505b6007600084815260200190815260200160002060009055600660008573ffffffffffffffffffffffffffffffffffffffff1673ffffffffffffffffffffffffffffffffffffffff16815260200190815260200160002060008381526020019081526020016000206000905550505050565b600060016008805490506134d39190614601565b905060006009600084815260200190815260200160002054905060006008838154811061350357613502614635565b5b90600052602060002001549050806008838154811061352557613524614635565b5b90600052602060002001819055508160096000838152602001908152602001600020819055506009600085815260200190815260200160002060009055600880548061357457613573615471565b5b6001900381819060005260206000200160009055905550505050565b600061359b83611717565b905081600660008573ffffffffffffffffffffffffffffffffffffffff1673ffffffffffffffffffffffffffffffffffffffff168152602001908152602001600020600083815260200190815260200160002081905550806007600084815260200190815260200160002081905550505050565b600073ffffffffffffffffffffffffffffffffffffffff168273ffffffffffffffffffffffffffffffffffffffff160361367e576040517f08c379a0000000000000000000000000000000000000000000000000000000008152600401613675906154ec565b60405180910390fd5b61368781612e29565b156136c7576040517f08c379a00000000000000000000000000000000000000000000000000000000081526004016136be90615558565b60405180910390fd5b6136d5600083836001612e6a565b6136de81612e29565b1561371e576040517f08c379a000000000000000000000000000000000000000000000000000000000815260040161371590615558565b60405180910390fd5b6001600360008473ffffffffffffffffffffffffffffffffffffffff1673ffffffffffffffffffffffffffffffffffffffff16815260200190815260200160002060008282540192505081905550816002600083815260200190815260200160002060006101000a81548173ffffffffffffffffffffffffffffffffffffffff021916908373ffffffffffffffffffffffffffffffffffffffff160217905550808273ffffffffffffffffffffffffffffffffffffffff16600073ffffffffffffffffffffffffffffffffffffffff167fddf252ad1be2c89b69c2b068fc378daa952ba7f163c4a11628f55a4df523b3ef60405160405180910390a4613828600083836001612fc8565b5050565b6000808273ffffffffffffffffffffffffffffffffffffffff163b119050919050565b6040518061010001604052806000815260200160008152602001600073ffffffffffffffffffffffffffffffffffffffff16815260200160608152602001606081526020016000815260200160608152602001600081525090565b6000604051905090565b600080fd5b600080fd5b60007fffffffff0000000000000000000000000000000000000000000000000000000082169050919050565b6138f3816138be565b81146138fe57600080fd5b50565b600081359050613910816138ea565b92915050565b60006020828403121561392c5761392b6138b4565b5b600061393a84828501613901565b91505092915050565b60008115159050919050565b61395881613943565b82525050565b6000602082019050613973600083018461394f565b92915050565b6000819050919050565b61398c81613979565b82525050565b60006020820190506139a76000830184613983565b92915050565b600081519050919050565b600082825260208201905092915050565b60005b838110156139e75780820151818401526020810190506139cc565b60008484015250505050565b6000601f19601f8301169050919050565b6000613a0f826139ad565b613a1981856139b8565b9350613a298185602086016139c9565b613a32816139f3565b840191505092915050565b60006020820190508181036000830152613a578184613a04565b905092915050565b613a6881613979565b8114613a7357600080fd5b50565b600081359050613a8581613a5f565b92915050565b600060208284031215613aa157613aa06138b4565b5b6000613aaf84828501613a76565b91505092915050565b600073ffffffffffffffffffffffffffffffffffffffff82169050919050565b6000613ae382613ab8565b9050919050565b613af381613ad8565b82525050565b6000602082019050613b0e6000830184613aea565b92915050565b613b1d81613ad8565b8114613b2857600080fd5b50565b600081359050613b3a81613b14565b92915050565b60008060408385031215613b5757613b566138b4565b5b6000613b6585828601613b2b565b9250506020613b7685828601613a76565b9150509250929050565b600080600060608486031215613b9957613b986138b4565b5b6000613ba786828701613b2b565b9350506020613bb886828701613b2b565b9250506040613bc986828701613a76565b9150509250925092565b600081519050919050565b600082825260208201905092915050565b6000819050602082019050919050565b613c0881613979565b82525050565b613c1781613ad8565b82525050565b600082825260208201905092915050565b6000613c39826139ad565b613c438185613c1d565b9350613c538185602086016139c9565b613c5c816139f3565b840191505092915050565b600061010083016000830151613c806000860182613bff565b506020830151613c936020860182613bff565b506040830151613ca66040860182613c0e565b5060608301518482036060860152613cbe8282613c2e565b91505060808301518482036080860152613cd88282613c2e565b91505060a0830151613ced60a0860182613bff565b5060c083015184820360c0860152613d058282613c2e565b91505060e0830151613d1a60e0860182613bff565b508091505092915050565b6000613d318383613c67565b905092915050565b6000602082019050919050565b6000613d5182613bd3565b613d5b8185613bde565b935083602082028501613d6d85613bef565b8060005b85811015613da95784840389528151613d8a8582613d25565b9450613d9583613d39565b925060208a01995050600181019050613d71565b50829750879550505050505092915050565b60006020820190508181036000830152613dd58184613d46565b905092915050565b600061010083016000830151613df66000860182613bff565b506020830151613e096020860182613bff565b506040830151613e1c6040860182613c0e565b5060608301518482036060860152613e348282613c2e565b91505060808301518482036080860152613e4e8282613c2e565b91505060a0830151613e6360a0860182613bff565b5060c083015184820360c0860152613e7b8282613c2e565b91505060e0830151613e9060e0860182613bff565b508091505092915050565b60006020820190508181036000830152613eb58184613ddd565b905092915050565b600060208284031215613ed357613ed26138b4565b5b6000613ee184828501613b2b565b91505092915050565b600080fd5b600080fd5b7f4e487b7100000000000000000000000000000000000000000000000000000000600052604160045260246000fd5b613f2c826139f3565b810181811067ffffffffffffffff82111715613f4b57613f4a613ef4565b5b80604052505050565b6000613f5e6138aa565b9050613f6a8282613f23565b919050565b600067ffffffffffffffff821115613f8a57613f89613ef4565b5b613f93826139f3565b9050602081019050919050565b82818337600083830152505050565b6000613fc2613fbd84613f6f565b613f54565b905082815260208101848484011115613fde57613fdd613eef565b5b613fe9848285613fa0565b509392505050565b600082601f83011261400657614005613eea565b5b8135614016848260208601613faf565b91505092915050565b60008060008060808587031215614039576140386138b4565b5b600085013567ffffffffffffffff811115614057576140566138b9565b5b61406387828801613ff1565b945050602085013567ffffffffffffffff811115614084576140836138b9565b5b61409087828801613ff1565b935050604085013567ffffffffffffffff8111156140b1576140b06138b9565b5b6140bd87828801613ff1565b92505060606140ce87828801613a76565b91505092959194509250565b6140e381613943565b81146140ee57600080fd5b50565b600081359050614100816140da565b92915050565b6000806040838503121561411d5761411c6138b4565b5b600061412b85828601613b2b565b925050602061413c858286016140f1565b9150509250929050565b6000806040838503121561415d5761415c6138b4565b5b600061416b85828601613a76565b925050602061417c85828601613a76565b9150509250929050565b600067ffffffffffffffff8211156141a1576141a0613ef4565b5b6141aa826139f3565b9050602081019050919050565b60006141ca6141c584614186565b613f54565b9050828152602081018484840111156141e6576141e5613eef565b5b6141f1848285613fa0565b509392505050565b600082601f83011261420e5761420d613eea565b5b813561421e8482602086016141b7565b91505092915050565b60008060008060808587031215614241576142406138b4565b5b600061424f87828801613b2b565b945050602061426087828801613b2b565b935050604061427187828801613a76565b925050606085013567ffffffffffffffff811115614292576142916138b9565b5b61429e878288016141f9565b91505092959194509250565b600080604083850312156142c1576142c06138b4565b5b60006142cf85828601613a76565b92505060206142e085828601613b2b565b9150509250929050565b60008060408385031215614301576143006138b4565b5b600061430f85828601613b2b565b925050602061432085828601613b2b565b9150509250929050565b7f4e487b7100000000000000000000000000000000000000000000000000000000600052602260045260246000fd5b6000600282049050600182168061437157607f821691505b6020821081036143845761438361432a565b5b50919050565b7f4552433732313a20617070726f76616c20746f2063757272656e74206f776e6560008201527f7200000000000000000000000000000000000000000000000000000000000000602082015250565b60006143e66021836139b8565b91506143f18261438a565b604082019050919050565b60006020820190508181036000830152614415816143d9565b9050919050565b7f4552433732313a20617070726f76652063616c6c6572206973206e6f7420746f60008201527f6b656e206f776e6572206f7220617070726f76656420666f7220616c6c000000602082015250565b6000614478603d836139b8565b91506144838261441c565b604082019050919050565b600060208201905081810360008301526144a78161446b565b9050919050565b7f4552433732313a2063616c6c6572206973206e6f7420746f6b656e206f776e6560008201527f72206f7220617070726f76656400000000000000000000000000000000000000602082015250565b600061450a602d836139b8565b9150614515826144ae565b604082019050919050565b60006020820190508181036000830152614539816144fd565b9050919050565b7f455243373231456e756d657261626c653a206f776e657220696e646578206f7560008201527f74206f6620626f756e6473000000000000000000000000000000000000000000602082015250565b600061459c602b836139b8565b91506145a782614540565b604082019050919050565b600060208201905081810360008301526145cb8161458f565b9050919050565b7f4e487b7100000000000000000000000000000000000000000000000000000000600052601160045260246000fd5b600061460c82613979565b915061461783613979565b925082820390508181111561462f5761462e6145d2565b5b92915050565b7f4e487b7100000000000000000000000000000000000000000000000000000000600052603260045260246000fd5b7f457468657220746f6f206c6f7720666f72207075726368617365210000000000600082015250565b600061469a601b836139b8565b91506146a582614664565b602082019050919050565b600060208201905081810360008301526146c98161468d565b9050919050565b7f4f7065726174696f6e204e6f7420416c6c6f7765642100000000000000000000600082015250565b60006147066016836139b8565b9150614711826146d0565b602082019050919050565b60006020820190508181036000830152614735816146f9565b9050919050565b600061474782613979565b91507fffffffffffffffffffffffffffffffffffffffffffffffffffffffffffffffff8203614779576147786145d2565b5b600182019050919050565b60008190508160005260206000209050919050565b60006020601f8301049050919050565b600082821b905092915050565b6000600883026147e67fffffffffffffffffffffffffffffffffffffffffffffffffffffffffffffffff826147a9565b6147f086836147a9565b95508019841693508086168417925050509392505050565b6000819050919050565b600061482d61482861482384613979565b614808565b613979565b9050919050565b6000819050919050565b61484783614812565b61485b61485382614834565b8484546147b6565b825550505050565b600090565b614870614863565b61487b81848461483e565b505050565b5b8181101561489f57614894600082614868565b600181019050614881565b5050565b601f8211156148e4576148b581614784565b6148be84614799565b810160208510156148cd578190505b6148e16148d985614799565b830182614880565b50505b505050565b600082821c905092915050565b6000614907600019846008026148e9565b1980831691505092915050565b600061492083836148f6565b9150826002028217905092915050565b614939826139ad565b67ffffffffffffffff81111561495257614951613ef4565b5b61495c8254614359565b6149678282856148a3565b600060209050601f83116001811461499a5760008415614988578287015190505b6149928582614914565b8655506149fa565b601f1984166149a886614784565b60005b828110156149d0578489015182556001820191506020850194506020810190506149ab565b868310156149ed57848901516149e9601f8916826148f6565b8355505b6001600288020188555050505b505050505050565b60008154614a0f81614359565b614a1981866139b8565b94506001821660008114614a345760018114614a4a57614a7d565b60ff198316865281151560200286019350614a7d565b614a5385614784565b60005b83811015614a7557815481890152600182019150602081019050614a56565b808801955050505b50505092915050565b6000608082019050614a9b6000830187613983565b614aa86020830186613983565b8181036040830152614aba8185614a02565b9050614ac96060830184613983565b95945050505050565b7f455243373231456e756d657261626c653a20676c6f62616c20696e646578206f60008201527f7574206f6620626f756e64730000000000000000000000000000000000000000602082015250565b6000614b2e602c836139b8565b9150614b3982614ad2565b604082019050919050565b60006020820190508181036000830152614b5d81614b21565b9050919050565b7f4552433732313a20696e76616c696420746f6b656e2049440000000000000000600082015250565b6000614b9a6018836139b8565b9150614ba582614b64565b602082019050919050565b60006020820190508181036000830152614bc981614b8d565b9050919050565b7f4552433732313a2061646472657373207a65726f206973206e6f74206120766160008201527f6c6964206f776e65720000000000000000000000000000000000000000000000602082015250565b6000614c2c6029836139b8565b9150614c3782614bd0565b604082019050919050565b60006020820190508181036000830152614c5b81614c1f565b9050919050565b600081905092915050565b6000614c78826139ad565b614c828185614c62565b9350614c928185602086016139c9565b80840191505092915050565b6000614caa8284614c6d565b915081905092915050565b7f54686973204e465420697320616c7265616479206d696e746564210000000000600082015250565b6000614ceb601b836139b8565b9150614cf682614cb5565b602082019050919050565b60006020820190508181036000830152614d1a81614cde565b9050919050565b7f53616c6573206e6f7420616c6c6f776564210000000000000000000000000000600082015250565b6000614d576012836139b8565b9150614d6282614d21565b602082019050919050565b60006020820190508181036000830152614d8681614d4a565b9050919050565b6000608082019050614da26000830187613983565b614daf6020830186613983565b8181036040830152614dc18185613a04565b9050614dd06060830184613983565b95945050505050565b7f457468657220746f6f206c6f7721000000000000000000000000000000000000600082015250565b6000614e0f600e836139b8565b9150614e1a82614dd9565b602082019050919050565b60006020820190508181036000830152614e3e81614e02565b9050919050565b7f4f7065726174696f6e20416c6c6f776564210000000000000000000000000000600082015250565b6000614e7b6012836139b8565b9150614e8682614e45565b602082019050919050565b60006020820190508181036000830152614eaa81614e6e565b9050919050565b6000614ebd8285614c6d565b9150614ec98284614c6d565b91508190509392505050565b7f596f7520646f206e6f74206861766520726967687420746f207472616e73666560008201527f7200000000000000000000000000000000000000000000000000000000000000602082015250565b6000614f316021836139b8565b9150614f3c82614ed5565b604082019050919050565b60006020820190508181036000830152614f6081614f24565b9050919050565b7f4f776e61626c653a206e6577206f776e657220697320746865207a65726f206160008201527f6464726573730000000000000000000000000000000000000000000000000000602082015250565b6000614fc36026836139b8565b9150614fce82614f67565b604082019050919050565b60006020820190508181036000830152614ff281614fb6565b9050919050565b7f4552433732313a207472616e736665722066726f6d20696e636f72726563742060008201527f6f776e6572000000000000000000000000000000000000000000000000000000602082015250565b60006150556025836139b8565b915061506082614ff9565b604082019050919050565b6000602082019050818103600083015261508481615048565b9050919050565b7f4552433732313a207472616e7366657220746f20746865207a65726f2061646460008201527f7265737300000000000000000000000000000000000000000000000000000000602082015250565b60006150e76024836139b8565b91506150f28261508b565b604082019050919050565b60006020820190508181036000830152615116816150da565b9050919050565b7f4f776e61626c653a2063616c6c6572206973206e6f7420746865206f776e6572600082015250565b60006151536020836139b8565b915061515e8261511d565b602082019050919050565b6000602082019050818103600083015261518281615146565b9050919050565b7f4e487b7100000000000000000000000000000000000000000000000000000000600052601260045260246000fd5b600081905092915050565b50565b60006151d36000836151b8565b91506151de826151c3565b600082019050919050565b60006151f4826151c6565b9150819050919050565b7f4552433732313a20617070726f766520746f2063616c6c657200000000000000600082015250565b60006152346019836139b8565b915061523f826151fe565b602082019050919050565b6000602082019050818103600083015261526381615227565b9050919050565b7f4552433732313a207472616e7366657220746f206e6f6e20455243373231526560008201527f63656976657220696d706c656d656e7465720000000000000000000000000000602082015250565b60006152c66032836139b8565b91506152d18261526a565b604082019050919050565b600060208201905081810360008301526152f5816152b9565b9050919050565b7f455243373231456e756d657261626c653a20636f6e736563757469766520747260008201527f616e7366657273206e6f7420737570706f727465640000000000000000000000602082015250565b60006153586035836139b8565b9150615363826152fc565b604082019050919050565b600060208201905081810360008301526153878161534b565b9050919050565b600081519050919050565b600082825260208201905092915050565b60006153b58261538e565b6153bf8185615399565b93506153cf8185602086016139c9565b6153d8816139f3565b840191505092915050565b60006080820190506153f86000830187613aea565b6154056020830186613aea565b6154126040830185613983565b818103606083015261542481846153aa565b905095945050505050565b60008151905061543e816138ea565b92915050565b60006020828403121561545a576154596138b4565b5b60006154688482850161542f565b91505092915050565b7f4e487b7100000000000000000000000000000000000000000000000000000000600052603160045260246000fd5b7f4552433732313a206d696e7420746f20746865207a65726f2061646472657373600082015250565b60006154d66020836139b8565b91506154e1826154a0565b602082019050919050565b60006020820190508181036000830152615505816154c9565b9050919050565b7f4552433732313a20746f6b656e20616c7265616479206d696e74656400000000600082015250565b6000615542601c836139b8565b915061554d8261550c565b602082019050919050565b6000602082019050818103600083015261557181615535565b905091905056fea2646970667358221220b94340ec7a7f97578f90c16c396083215b27df02a261cda53ae8c04dd04fc88764736f6c63430008130033",
  "immutableReferences": {},
  "source": "// SPDX-License-Identifier: MIT\npragma solidity >=0.4.22 <0.9.0;\n\n\nimport \"@openzeppelin/contracts/token/ERC721/ERC721.sol\";\nimport \"@openzeppelin/contracts/token/ERC721/extensions/ERC721Enumerable.sol\";\nimport \"@openzeppelin/contracts/utils/Counters.sol\";\nimport \"@openzeppelin/contracts/access/Ownable.sol\";\n\ncontract ServerContract {\n  constructor() {\n  }\n\n//   function createBrand (string memory name,string memory symbol)external  returns (Brand){\n//     Brand b= new Brand(name,symbol);\n//     return b;\n//   }\n  \n}\n\n\ncontract Brand is ERC721Enumerable, Ownable {\n    using Strings for uint256;\n    \n\nconstructor(\n    string memory _name,\n    string memory _brandsymbol\n) ERC721(_name, _brandsymbol) {\n}\n\n    mapping(string => uint8) existingURIs;\n    mapping(uint256 => address) public holderOf;\n    uint256 public supply = 0; //determines the id\n    uint256 public totalTxn = 0;\n    uint256 public pdt =0;\n    uint256 public cost = 0.0001 ether;\n\n    event Sale(\n        uint256 id,\n        address indexed owner,\n        uint256 cost,\n        string metadataURI,\n        uint256 timestamp\n    );\n\n    \n\n    TransactionStruct[] transactions;\n    TransactionStruct[] minted;\n    \n    struct TransactionStruct {\n        uint256 id;\n        uint256 prod_Id;\n        address owner;\n        string title;\n        string description;\n        uint256 cost;\n        string metadataURI;\n        uint256 timestamp;\n    }\n\n\n    function mintProduct(string memory title,string memory description,string memory metadataURI,uint256 salesPrice) external payable{\n        require(msg.value >= cost, msg.value.toString());\n        require(existingURIs[metadataURI] == 0, \"This NFT is already minted!\");\n        require(msg.sender != owner(), \"Sales not allowed!\");\n\n        supply++;\n        pdt++;\n\n        minted.push(\n            TransactionStruct(\n                supply,\n                pdt,\n                msg.sender,\n                title,\n                description,\n                salesPrice,\n                metadataURI,\n                block.timestamp\n            )\n        );\n        payTo(owner(), msg.value);\n        emit Sale(\n            supply,\n            msg.sender,\n            msg.value,\n            metadataURI,\n            block.timestamp\n        );\n\n        _safeMint(msg.sender, supply);\n        existingURIs[metadataURI] = 1;\n        holderOf[supply] = msg.sender;\n\n    }\n    \n    function sellProduct(uint256 id) external payable {\n        require(msg.value >= minted[id - 1].cost, \"Ether too low for purchase!\");\n        require(msg.sender != minted[id - 1].owner, \"Operation Not Allowed!\");\n\n        totalTxn++;\n\n        transactions.push(\n            TransactionStruct(\n                totalTxn,\n                minted[id - 1].prod_Id,\n                msg.sender,\n                minted[id - 1].title,\n                minted[id - 1].description,\n                msg.value,\n                minted[id - 1].metadataURI,\n                block.timestamp\n            )\n        );\n        \n        \n        emit Sale(\n            totalTxn,\n            msg.sender,\n            msg.value,\n            minted[id - 1].metadataURI,\n            block.timestamp\n        );\n\n        minted[id - 1].owner = msg.sender;\n    }\n\n    function TransferProduct(uint256 _id,address _new) external{\n        require(msg.sender == minted[_id - 1].owner, \"You do not have right to transfer\");\n        minted[_id - 1].owner=_new;\n    }\n\n    function changePrice(uint256 id, uint256 newPrice) external returns (bool) {\n        require(newPrice > 0 ether, \"Ether too low!\");\n        require(msg.sender == minted[id - 1].owner, \"Operation Allowed!\");\n        minted[id - 1].cost = newPrice;\n        return true;\n    }\n\n\n\n    function payTo(address to, uint256 amount) internal {\n        (bool success, ) = payable(to).call{value: amount}(\"\");\n        require(success);\n    }\n\n    function getAllNFTs() external view returns (TransactionStruct[] memory) {\n        return minted;\n    }\n\n    function getNFT(uint256 id) external view returns (TransactionStruct memory) {\n        return minted[id - 1];\n    }\n\n    function getAllTransactions() external view returns (TransactionStruct[] memory) {\n        return transactions;\n    }\n}\n",
  "sourcePath": "/Users/muskaansharma/Desktop/ZCoders_LOC/ZCoders_LOC5.0/scontracts/contracts/Brand.sol",
  "compiler": {
    "name": "solc",
    "version": "0.8.19+commit.7dd6d404.Emscripten.clang"
  },
  "schemaVersion": "3.4.13",
  "updatedAt": "2023-03-12T03:54:24.054Z",
  "networkType": "ethereum",
  "devdoc": {
    "events": {
      "Approval(address,address,uint256)": {
        "details": "Emitted when `owner` enables `approved` to manage the `tokenId` token."
      },
      "ApprovalForAll(address,address,bool)": {
        "details": "Emitted when `owner` enables or disables (`approved`) `operator` to manage all of its assets."
      },
      "Transfer(address,address,uint256)": {
        "details": "Emitted when `tokenId` token is transferred from `from` to `to`."
      }
    },
    "kind": "dev",
    "methods": {
      "approve(address,uint256)": {
        "details": "See {IERC721-approve}."
      },
      "balanceOf(address)": {
        "details": "See {IERC721-balanceOf}."
      },
      "getApproved(uint256)": {
        "details": "See {IERC721-getApproved}."
      },
      "isApprovedForAll(address,address)": {
        "details": "See {IERC721-isApprovedForAll}."
      },
      "name()": {
        "details": "See {IERC721Metadata-name}."
      },
      "owner()": {
        "details": "Returns the address of the current owner."
      },
      "ownerOf(uint256)": {
        "details": "See {IERC721-ownerOf}."
      },
      "renounceOwnership()": {
        "details": "Leaves the contract without owner. It will not be possible to call `onlyOwner` functions anymore. Can only be called by the current owner. NOTE: Renouncing ownership will leave the contract without an owner, thereby removing any functionality that is only available to the owner."
      },
      "safeTransferFrom(address,address,uint256)": {
        "details": "See {IERC721-safeTransferFrom}."
      },
      "safeTransferFrom(address,address,uint256,bytes)": {
        "details": "See {IERC721-safeTransferFrom}."
      },
      "setApprovalForAll(address,bool)": {
        "details": "See {IERC721-setApprovalForAll}."
      },
      "supportsInterface(bytes4)": {
        "details": "See {IERC165-supportsInterface}."
      },
      "symbol()": {
        "details": "See {IERC721Metadata-symbol}."
      },
      "tokenByIndex(uint256)": {
        "details": "See {IERC721Enumerable-tokenByIndex}."
      },
      "tokenOfOwnerByIndex(address,uint256)": {
        "details": "See {IERC721Enumerable-tokenOfOwnerByIndex}."
      },
      "tokenURI(uint256)": {
        "details": "See {IERC721Metadata-tokenURI}."
      },
      "totalSupply()": {
        "details": "See {IERC721Enumerable-totalSupply}."
      },
      "transferFrom(address,address,uint256)": {
        "details": "See {IERC721-transferFrom}."
      },
      "transferOwnership(address)": {
        "details": "Transfers ownership of the contract to a new account (`newOwner`). Can only be called by the current owner."
      }
    },
    "version": 1
  },
  "userdoc": {
    "kind": "user",
    "methods": {},
    "version": 1
  }
}